{
	"1_Votacion_descentralizada.sol": {
		"Votacion": {
			"abi": [
				{
					"inputs": [
						{
							"internalType": "uint256",
							"name": "duraccionContrato",
							"type": "uint256"
						}
					],
					"stateMutability": "nonpayable",
					"type": "constructor"
				},
				{
					"inputs": [
						{
							"internalType": "address",
							"name": "sufra",
							"type": "address"
						}
					],
					"name": "adicionarDireccion",
					"outputs": [],
					"stateMutability": "nonpayable",
					"type": "function"
				},
				{
					"inputs": [
						{
							"internalType": "string",
							"name": "propu",
							"type": "string"
						}
					],
					"name": "adicionarPropuesta",
					"outputs": [],
					"stateMutability": "nonpayable",
					"type": "function"
				},
				{
					"inputs": [],
					"name": "propietario",
					"outputs": [
						{
							"internalType": "address",
							"name": "",
							"type": "address"
						}
					],
					"stateMutability": "view",
					"type": "function"
				},
				{
					"inputs": [
						{
							"internalType": "uint256",
							"name": "",
							"type": "uint256"
						}
					],
					"name": "propuestas",
					"outputs": [
						{
							"internalType": "string",
							"name": "nombre",
							"type": "string"
						},
						{
							"internalType": "uint256",
							"name": "votosTotales",
							"type": "uint256"
						}
					],
					"stateMutability": "view",
					"type": "function"
				},
				{
					"inputs": [],
					"name": "retornarCuantasPropuestas",
					"outputs": [
						{
							"internalType": "uint256",
							"name": "",
							"type": "uint256"
						}
					],
					"stateMutability": "view",
					"type": "function"
				},
				{
					"inputs": [
						{
							"internalType": "uint256",
							"name": "indicePropu",
							"type": "uint256"
						}
					],
					"name": "retornarPropuesta",
					"outputs": [
						{
							"internalType": "string",
							"name": "nombre",
							"type": "string"
						},
						{
							"internalType": "uint256",
							"name": "votosTotales",
							"type": "uint256"
						}
					],
					"stateMutability": "view",
					"type": "function"
				},
				{
					"inputs": [],
					"name": "retornarPropuestas",
					"outputs": [
						{
							"components": [
								{
									"internalType": "string",
									"name": "nombre",
									"type": "string"
								},
								{
									"internalType": "uint256",
									"name": "votosTotales",
									"type": "uint256"
								}
							],
							"internalType": "struct Votacion.Propuesta[]",
							"name": "",
							"type": "tuple[]"
						}
					],
					"stateMutability": "view",
					"type": "function"
				},
				{
					"inputs": [
						{
							"internalType": "address",
							"name": "",
							"type": "address"
						}
					],
					"name": "sufragantes",
					"outputs": [
						{
							"internalType": "bool",
							"name": "",
							"type": "bool"
						}
					],
					"stateMutability": "view",
					"type": "function"
				},
				{
					"inputs": [],
					"name": "tiempoVotacion",
					"outputs": [
						{
							"internalType": "uint256",
							"name": "",
							"type": "uint256"
						}
					],
					"stateMutability": "view",
					"type": "function"
				},
				{
					"inputs": [
						{
							"internalType": "uint256",
							"name": "indicePropu",
							"type": "uint256"
						}
					],
					"name": "votar",
					"outputs": [],
					"stateMutability": "nonpayable",
					"type": "function"
				},
				{
					"inputs": [
						{
							"internalType": "address",
							"name": "",
							"type": "address"
						}
					],
					"name": "whiteList",
					"outputs": [
						{
							"internalType": "bool",
							"name": "",
							"type": "bool"
						}
					],
					"stateMutability": "view",
					"type": "function"
				}
			],
			"devdoc": {
				"kind": "dev",
				"methods": {},
				"title": "Votacion (Descentralizada)",
				"version": 1
			},
			"evm": {
				"assembly": "    /* \"1_Votacion_descentralizada.sol\":190:3473  contract Votacion {... */\n  mstore(0x40, 0x80)\n    /* \"1_Votacion_descentralizada.sol\":998:1154  constructor(uint256 duraccionContrato) {... */\n  callvalue\n  dup1\n  iszero\n  tag_1\n  jumpi\n  0x00\n  dup1\n  revert\ntag_1:\n  pop\n  mload(0x40)\n  sub(codesize, bytecodeSize)\n  dup1\n  bytecodeSize\n  dup4\n  codecopy\n  dup2\n  dup2\n  add\n  0x40\n  mstore\n  dup2\n  add\n  swap1\n  tag_2\n  swap2\n  swap1\n  tag_3\n  jump\t// in\ntag_2:\n    /* \"1_Votacion_descentralizada.sol\":1062:1072  msg.sender */\n  caller\n    /* \"1_Votacion_descentralizada.sol\":1048:1059  propietario */\n  0x01\n  0x00\n    /* \"1_Votacion_descentralizada.sol\":1048:1072  propietario = msg.sender */\n  0x0100\n  exp\n  dup2\n  sload\n  dup2\n  0xffffffffffffffffffffffffffffffffffffffff\n  mul\n  not\n  and\n  swap1\n  dup4\n  0xffffffffffffffffffffffffffffffffffffffff\n  and\n  mul\n  or\n  swap1\n  sstore\n  pop\n    /* \"1_Votacion_descentralizada.sol\":1139:1145  1 days */\n  0x015180\n    /* \"1_Votacion_descentralizada.sol\":1119:1136  duraccionContrato */\n  dup2\n    /* \"1_Votacion_descentralizada.sol\":1119:1145  duraccionContrato * 1 days */\n  tag_6\n  swap2\n  swap1\n  tag_7\n  jump\t// in\ntag_6:\n    /* \"1_Votacion_descentralizada.sol\":1100:1115  block.timestamp */\n  timestamp\n    /* \"1_Votacion_descentralizada.sol\":1100:1146  block.timestamp + (duraccionContrato * 1 days) */\n  tag_8\n  swap2\n  swap1\n  tag_9\n  jump\t// in\ntag_8:\n    /* \"1_Votacion_descentralizada.sol\":1083:1097  tiempoVotacion */\n  0x04\n    /* \"1_Votacion_descentralizada.sol\":1083:1146  tiempoVotacion = block.timestamp + (duraccionContrato * 1 days) */\n  dup2\n  swap1\n  sstore\n  pop\n    /* \"1_Votacion_descentralizada.sol\":998:1154  constructor(uint256 duraccionContrato) {... */\n  pop\n    /* \"1_Votacion_descentralizada.sol\":190:3473  contract Votacion {... */\n  jump(tag_10)\n    /* \"#utility.yul\":88:205   */\ntag_12:\n    /* \"#utility.yul\":197:198   */\n  0x00\n    /* \"#utility.yul\":194:195   */\n  dup1\n    /* \"#utility.yul\":187:199   */\n  revert\n    /* \"#utility.yul\":334:411   */\ntag_14:\n    /* \"#utility.yul\":371:378   */\n  0x00\n    /* \"#utility.yul\":400:405   */\n  dup2\n    /* \"#utility.yul\":389:405   */\n  swap1\n  pop\n    /* \"#utility.yul\":334:411   */\n  swap2\n  swap1\n  pop\n  jump\t// out\n    /* \"#utility.yul\":417:539   */\ntag_15:\n    /* \"#utility.yul\":490:514   */\n  tag_24\n    /* \"#utility.yul\":508:513   */\n  dup2\n    /* \"#utility.yul\":490:514   */\n  tag_14\n  jump\t// in\ntag_24:\n    /* \"#utility.yul\":483:488   */\n  dup2\n    /* \"#utility.yul\":480:515   */\n  eq\n    /* \"#utility.yul\":470:533   */\n  tag_25\n  jumpi\n    /* \"#utility.yul\":529:530   */\n  0x00\n    /* \"#utility.yul\":526:527   */\n  dup1\n    /* \"#utility.yul\":519:531   */\n  revert\n    /* \"#utility.yul\":470:533   */\ntag_25:\n    /* \"#utility.yul\":417:539   */\n  pop\n  jump\t// out\n    /* \"#utility.yul\":545:688   */\ntag_16:\n    /* \"#utility.yul\":602:607   */\n  0x00\n    /* \"#utility.yul\":633:639   */\n  dup2\n    /* \"#utility.yul\":627:640   */\n  mload\n    /* \"#utility.yul\":618:640   */\n  swap1\n  pop\n    /* \"#utility.yul\":649:682   */\n  tag_27\n    /* \"#utility.yul\":676:681   */\n  dup2\n    /* \"#utility.yul\":649:682   */\n  tag_15\n  jump\t// in\ntag_27:\n    /* \"#utility.yul\":545:688   */\n  swap3\n  swap2\n  pop\n  pop\n  jump\t// out\n    /* \"#utility.yul\":694:1045   */\ntag_3:\n    /* \"#utility.yul\":764:770   */\n  0x00\n    /* \"#utility.yul\":813:815   */\n  0x20\n    /* \"#utility.yul\":801:810   */\n  dup3\n    /* \"#utility.yul\":792:799   */\n  dup5\n    /* \"#utility.yul\":788:811   */\n  sub\n    /* \"#utility.yul\":784:816   */\n  slt\n    /* \"#utility.yul\":781:900   */\n  iszero\n  tag_29\n  jumpi\n    /* \"#utility.yul\":819:898   */\n  tag_30\n  tag_12\n  jump\t// in\ntag_30:\n    /* \"#utility.yul\":781:900   */\ntag_29:\n    /* \"#utility.yul\":939:940   */\n  0x00\n    /* \"#utility.yul\":964:1028   */\n  tag_31\n    /* \"#utility.yul\":1020:1027   */\n  dup5\n    /* \"#utility.yul\":1011:1017   */\n  dup3\n    /* \"#utility.yul\":1000:1009   */\n  dup6\n    /* \"#utility.yul\":996:1018   */\n  add\n    /* \"#utility.yul\":964:1028   */\n  tag_16\n  jump\t// in\ntag_31:\n    /* \"#utility.yul\":954:1028   */\n  swap2\n  pop\n    /* \"#utility.yul\":910:1038   */\n  pop\n    /* \"#utility.yul\":694:1045   */\n  swap3\n  swap2\n  pop\n  pop\n  jump\t// out\n    /* \"#utility.yul\":1051:1231   */\ntag_17:\n    /* \"#utility.yul\":1099:1176   */\n  0x4e487b7100000000000000000000000000000000000000000000000000000000\n    /* \"#utility.yul\":1096:1097   */\n  0x00\n    /* \"#utility.yul\":1089:1177   */\n  mstore\n    /* \"#utility.yul\":1196:1200   */\n  0x11\n    /* \"#utility.yul\":1193:1194   */\n  0x04\n    /* \"#utility.yul\":1186:1201   */\n  mstore\n    /* \"#utility.yul\":1220:1224   */\n  0x24\n    /* \"#utility.yul\":1217:1218   */\n  0x00\n    /* \"#utility.yul\":1210:1225   */\n  revert\n    /* \"#utility.yul\":1237:1647   */\ntag_7:\n    /* \"#utility.yul\":1277:1284   */\n  0x00\n    /* \"#utility.yul\":1300:1320   */\n  tag_34\n    /* \"#utility.yul\":1318:1319   */\n  dup3\n    /* \"#utility.yul\":1300:1320   */\n  tag_14\n  jump\t// in\ntag_34:\n    /* \"#utility.yul\":1295:1320   */\n  swap2\n  pop\n    /* \"#utility.yul\":1334:1354   */\n  tag_35\n    /* \"#utility.yul\":1352:1353   */\n  dup4\n    /* \"#utility.yul\":1334:1354   */\n  tag_14\n  jump\t// in\ntag_35:\n    /* \"#utility.yul\":1329:1354   */\n  swap3\n  pop\n    /* \"#utility.yul\":1389:1390   */\n  dup3\n    /* \"#utility.yul\":1386:1387   */\n  dup3\n    /* \"#utility.yul\":1382:1391   */\n  mul\n    /* \"#utility.yul\":1411:1441   */\n  tag_36\n    /* \"#utility.yul\":1429:1440   */\n  dup2\n    /* \"#utility.yul\":1411:1441   */\n  tag_14\n  jump\t// in\ntag_36:\n    /* \"#utility.yul\":1400:1441   */\n  swap2\n  pop\n    /* \"#utility.yul\":1590:1591   */\n  dup3\n    /* \"#utility.yul\":1581:1588   */\n  dup3\n    /* \"#utility.yul\":1577:1592   */\n  div\n    /* \"#utility.yul\":1574:1575   */\n  dup5\n    /* \"#utility.yul\":1571:1593   */\n  eq\n    /* \"#utility.yul\":1551:1552   */\n  dup4\n    /* \"#utility.yul\":1544:1553   */\n  iszero\n    /* \"#utility.yul\":1524:1607   */\n  or\n    /* \"#utility.yul\":1501:1640   */\n  tag_37\n  jumpi\n    /* \"#utility.yul\":1620:1638   */\n  tag_38\n  tag_17\n  jump\t// in\ntag_38:\n    /* \"#utility.yul\":1501:1640   */\ntag_37:\n    /* \"#utility.yul\":1285:1647   */\n  pop\n    /* \"#utility.yul\":1237:1647   */\n  swap3\n  swap2\n  pop\n  pop\n  jump\t// out\n    /* \"#utility.yul\":1653:1844   */\ntag_9:\n    /* \"#utility.yul\":1693:1696   */\n  0x00\n    /* \"#utility.yul\":1712:1732   */\n  tag_40\n    /* \"#utility.yul\":1730:1731   */\n  dup3\n    /* \"#utility.yul\":1712:1732   */\n  tag_14\n  jump\t// in\ntag_40:\n    /* \"#utility.yul\":1707:1732   */\n  swap2\n  pop\n    /* \"#utility.yul\":1746:1766   */\n  tag_41\n    /* \"#utility.yul\":1764:1765   */\n  dup4\n    /* \"#utility.yul\":1746:1766   */\n  tag_14\n  jump\t// in\ntag_41:\n    /* \"#utility.yul\":1741:1766   */\n  swap3\n  pop\n    /* \"#utility.yul\":1789:1790   */\n  dup3\n    /* \"#utility.yul\":1786:1787   */\n  dup3\n    /* \"#utility.yul\":1782:1791   */\n  add\n    /* \"#utility.yul\":1775:1791   */\n  swap1\n  pop\n    /* \"#utility.yul\":1810:1813   */\n  dup1\n    /* \"#utility.yul\":1807:1808   */\n  dup3\n    /* \"#utility.yul\":1804:1814   */\n  gt\n    /* \"#utility.yul\":1801:1837   */\n  iszero\n  tag_42\n  jumpi\n    /* \"#utility.yul\":1817:1835   */\n  tag_43\n  tag_17\n  jump\t// in\ntag_43:\n    /* \"#utility.yul\":1801:1837   */\ntag_42:\n    /* \"#utility.yul\":1653:1844   */\n  swap3\n  swap2\n  pop\n  pop\n  jump\t// out\n    /* \"1_Votacion_descentralizada.sol\":190:3473  contract Votacion {... */\ntag_10:\n  dataSize(sub_0)\n  dup1\n  dataOffset(sub_0)\n  0x00\n  codecopy\n  0x00\n  return\nstop\n\nsub_0: assembly {\n        /* \"1_Votacion_descentralizada.sol\":190:3473  contract Votacion {... */\n      mstore(0x40, 0x80)\n      callvalue\n      dup1\n      iszero\n      tag_1\n      jumpi\n      0x00\n      dup1\n      revert\n    tag_1:\n      pop\n      jumpi(tag_2, lt(calldatasize, 0x04))\n      shr(0xe0, calldataload(0x00))\n      dup1\n      0x372c12b1\n      gt\n      tag_14\n      jumpi\n      dup1\n      0x372c12b1\n      eq\n      tag_8\n      jumpi\n      dup1\n      0x3c4f81cd\n      eq\n      tag_9\n      jumpi\n      dup1\n      0x406f12cb\n      eq\n      tag_10\n      jumpi\n      dup1\n      0x6097e216\n      eq\n      tag_11\n      jumpi\n      dup1\n      0x7334151b\n      eq\n      tag_12\n      jumpi\n      dup1\n      0xc60bb713\n      eq\n      tag_13\n      jumpi\n      jump(tag_2)\n    tag_14:\n      dup1\n      0x0a401942\n      eq\n      tag_3\n      jumpi\n      dup1\n      0x1608d15f\n      eq\n      tag_4\n      jumpi\n      dup1\n      0x21606831\n      eq\n      tag_5\n      jumpi\n      dup1\n      0x27073c4c\n      eq\n      tag_6\n      jumpi\n      dup1\n      0x2759f38e\n      eq\n      tag_7\n      jumpi\n    tag_2:\n      0x00\n      dup1\n      revert\n        /* \"1_Votacion_descentralizada.sol\":2304:2452  function adicionarPropuesta(string memory propu) public soloPropietario {... */\n    tag_3:\n      tag_15\n      0x04\n      dup1\n      calldatasize\n      sub\n      dup2\n      add\n      swap1\n      tag_16\n      swap2\n      swap1\n      tag_17\n      jump\t// in\n    tag_16:\n      tag_18\n      jump\t// in\n    tag_15:\n      stop\n        /* \"1_Votacion_descentralizada.sol\":3010:3305  function retornarPropuestas() public view returns (Propuesta[] memory) {... */\n    tag_4:\n      tag_19\n      tag_20\n      jump\t// in\n    tag_19:\n      mload(0x40)\n      tag_21\n      swap2\n      swap1\n      tag_22\n      jump\t// in\n    tag_21:\n      mload(0x40)\n      dup1\n      swap2\n      sub\n      swap1\n      return\n        /* \"1_Votacion_descentralizada.sol\":2488:2673  function votar(uint256 indicePropu) public soloWhitelist soloDuranteVotacion yaVoto {... */\n    tag_5:\n      tag_23\n      0x04\n      dup1\n      calldatasize\n      sub\n      dup2\n      add\n      swap1\n      tag_24\n      swap2\n      swap1\n      tag_25\n      jump\t// in\n    tag_24:\n      tag_26\n      jump\t// in\n    tag_23:\n      stop\n        /* \"1_Votacion_descentralizada.sol\":842:885  mapping(address => bool) public sufragantes */\n    tag_6:\n      tag_27\n      0x04\n      dup1\n      calldatasize\n      sub\n      dup2\n      add\n      swap1\n      tag_28\n      swap2\n      swap1\n      tag_29\n      jump\t// in\n    tag_28:\n      tag_30\n      jump\t// in\n    tag_27:\n      mload(0x40)\n      tag_31\n      swap2\n      swap1\n      tag_32\n      jump\t// in\n    tag_31:\n      mload(0x40)\n      dup1\n      swap2\n      sub\n      swap1\n      return\n        /* \"1_Votacion_descentralizada.sol\":2707:2952  function retornarPropuesta(uint256 indicePropu) public view returns (string memory nombre, uint256 votosTotales) {... */\n    tag_7:\n      tag_33\n      0x04\n      dup1\n      calldatasize\n      sub\n      dup2\n      add\n      swap1\n      tag_34\n      swap2\n      swap1\n      tag_25\n      jump\t// in\n    tag_34:\n      tag_35\n      jump\t// in\n    tag_33:\n      mload(0x40)\n      tag_36\n      swap3\n      swap2\n      swap1\n      tag_37\n      jump\t// in\n    tag_36:\n      mload(0x40)\n      dup1\n      swap2\n      sub\n      swap1\n      return\n        /* \"1_Votacion_descentralizada.sol\":737:778  mapping(address => bool) public whiteList */\n    tag_8:\n      tag_38\n      0x04\n      dup1\n      calldatasize\n      sub\n      dup2\n      add\n      swap1\n      tag_39\n      swap2\n      swap1\n      tag_29\n      jump\t// in\n    tag_39:\n      tag_40\n      jump\t// in\n    tag_38:\n      mload(0x40)\n      tag_41\n      swap2\n      swap1\n      tag_32\n      jump\t// in\n    tag_41:\n      mload(0x40)\n      dup1\n      swap2\n      sub\n      swap1\n      return\n        /* \"1_Votacion_descentralizada.sol\":685:711  address public propietario */\n    tag_9:\n      tag_42\n      tag_43\n      jump\t// in\n    tag_42:\n      mload(0x40)\n      tag_44\n      swap2\n      swap1\n      tag_45\n      jump\t// in\n    tag_44:\n      mload(0x40)\n      dup1\n      swap2\n      sub\n      swap1\n      return\n        /* \"1_Votacion_descentralizada.sol\":2149:2257  function adicionarDireccion(address sufra) public soloPropietario {... */\n    tag_10:\n      tag_46\n      0x04\n      dup1\n      calldatasize\n      sub\n      dup2\n      add\n      swap1\n      tag_47\n      swap2\n      swap1\n      tag_29\n      jump\t// in\n    tag_47:\n      tag_48\n      jump\t// in\n    tag_46:\n      stop\n        /* \"1_Votacion_descentralizada.sol\":506:535  Propuesta[] public propuestas */\n    tag_11:\n      tag_49\n      0x04\n      dup1\n      calldatasize\n      sub\n      dup2\n      add\n      swap1\n      tag_50\n      swap2\n      swap1\n      tag_25\n      jump\t// in\n    tag_50:\n      tag_51\n      jump\t// in\n    tag_49:\n      mload(0x40)\n      tag_52\n      swap3\n      swap2\n      swap1\n      tag_37\n      jump\t// in\n    tag_52:\n      mload(0x40)\n      dup1\n      swap2\n      sub\n      swap1\n      return\n        /* \"1_Votacion_descentralizada.sol\":941:970  uint256 public tiempoVotacion */\n    tag_12:\n      tag_53\n      tag_54\n      jump\t// in\n    tag_53:\n      mload(0x40)\n      tag_55\n      swap2\n      swap1\n      tag_56\n      jump\t// in\n    tag_55:\n      mload(0x40)\n      dup1\n      swap2\n      sub\n      swap1\n      return\n        /* \"1_Votacion_descentralizada.sol\":3358:3468  function retornarCuantasPropuestas() public view returns (uint256) {... */\n    tag_13:\n      tag_57\n      tag_58\n      jump\t// in\n    tag_57:\n      mload(0x40)\n      tag_59\n      swap2\n      swap1\n      tag_56\n      jump\t// in\n    tag_59:\n      mload(0x40)\n      dup1\n      swap2\n      sub\n      swap1\n      return\n        /* \"1_Votacion_descentralizada.sol\":2304:2452  function adicionarPropuesta(string memory propu) public soloPropietario {... */\n    tag_18:\n        /* \"1_Votacion_descentralizada.sol\":1336:1347  propietario */\n      0x01\n      0x00\n      swap1\n      sload\n      swap1\n      0x0100\n      exp\n      swap1\n      div\n      0xffffffffffffffffffffffffffffffffffffffff\n      and\n        /* \"1_Votacion_descentralizada.sol\":1322:1347  msg.sender == propietario */\n      0xffffffffffffffffffffffffffffffffffffffff\n      and\n        /* \"1_Votacion_descentralizada.sol\":1322:1332  msg.sender */\n      caller\n        /* \"1_Votacion_descentralizada.sol\":1322:1347  msg.sender == propietario */\n      0xffffffffffffffffffffffffffffffffffffffff\n      and\n      eq\n        /* \"1_Votacion_descentralizada.sol\":1314:1400  require(msg.sender == propietario, \"Solo el propietario puede ejecutar esta funcion.\") */\n      tag_61\n      jumpi\n      mload(0x40)\n      0x08c379a000000000000000000000000000000000000000000000000000000000\n      dup2\n      mstore\n      0x04\n      add\n      tag_62\n      swap1\n      tag_63\n      jump\t// in\n    tag_62:\n      mload(0x40)\n      dup1\n      swap2\n      sub\n      swap1\n      revert\n    tag_61:\n        /* \"1_Votacion_descentralizada.sol\":2387:2397  propuestas */\n      0x00\n        /* \"1_Votacion_descentralizada.sol\":2403:2443  Propuesta({nombre:propu,votosTotales:0}) */\n      mload(0x40)\n      dup1\n      0x40\n      add\n      0x40\n      mstore\n      dup1\n        /* \"1_Votacion_descentralizada.sol\":2421:2426  propu */\n      dup4\n        /* \"1_Votacion_descentralizada.sol\":2403:2443  Propuesta({nombre:propu,votosTotales:0}) */\n      dup2\n      mstore\n      0x20\n      add\n        /* \"1_Votacion_descentralizada.sol\":2440:2441  0 */\n      0x00\n        /* \"1_Votacion_descentralizada.sol\":2403:2443  Propuesta({nombre:propu,votosTotales:0}) */\n      dup2\n      mstore\n      pop\n        /* \"1_Votacion_descentralizada.sol\":2387:2444  propuestas.push(Propuesta({nombre:propu,votosTotales:0})) */\n      swap1\n      dup1\n      0x01\n      dup2\n      sload\n      add\n      dup1\n      dup3\n      sstore\n      dup1\n      swap2\n      pop\n      pop\n      0x01\n      swap1\n      sub\n      swap1\n      0x00\n      mstore\n      keccak256(0x00, 0x20)\n      swap1\n      0x02\n      mul\n      add\n      0x00\n      swap1\n      swap2\n      swap1\n      swap2\n      swap1\n      swap2\n      pop\n      0x00\n      dup3\n      add\n      mload\n      dup2\n      0x00\n      add\n      swap1\n      dup2\n      tag_66\n      swap2\n      swap1\n      tag_67\n      jump\t// in\n    tag_66:\n      pop\n      0x20\n      dup3\n      add\n      mload\n      dup2\n      0x01\n      add\n      sstore\n      pop\n      pop\n        /* \"1_Votacion_descentralizada.sol\":2304:2452  function adicionarPropuesta(string memory propu) public soloPropietario {... */\n      pop\n      jump\t// out\n        /* \"1_Votacion_descentralizada.sol\":3010:3305  function retornarPropuestas() public view returns (Propuesta[] memory) {... */\n    tag_20:\n        /* \"1_Votacion_descentralizada.sol\":3061:3079  Propuesta[] memory */\n      0x60\n        /* \"1_Votacion_descentralizada.sol\":3092:3120  Propuesta[] memory resultado */\n      0x00\n        /* \"1_Votacion_descentralizada.sol\":3139:3149  propuestas */\n      dup1\n        /* \"1_Votacion_descentralizada.sol\":3139:3156  propuestas.length */\n      dup1\n      sload\n      swap1\n      pop\n        /* \"1_Votacion_descentralizada.sol\":3123:3157  new Propuesta[](propuestas.length) */\n      0xffffffffffffffff\n      dup2\n      gt\n      iszero\n      tag_69\n      jumpi\n      tag_70\n      tag_71\n      jump\t// in\n    tag_70:\n    tag_69:\n      mload(0x40)\n      swap1\n      dup1\n      dup3\n      mstore\n      dup1\n      0x20\n      mul\n      0x20\n      add\n      dup3\n      add\n      0x40\n      mstore\n      dup1\n      iszero\n      tag_72\n      jumpi\n      dup2\n      0x20\n      add\n    tag_73:\n      tag_74\n      tag_75\n      jump\t// in\n    tag_74:\n      dup2\n      mstore\n      0x20\n      add\n      swap1\n      0x01\n      swap1\n      sub\n      swap1\n      dup2\n      tag_73\n      jumpi\n      swap1\n      pop\n    tag_72:\n      pop\n        /* \"1_Votacion_descentralizada.sol\":3092:3157  Propuesta[] memory resultado = new Propuesta[](propuestas.length) */\n      swap1\n      pop\n        /* \"1_Votacion_descentralizada.sol\":3173:3182  uint256 i */\n      0x00\n        /* \"1_Votacion_descentralizada.sol\":3168:3271  for (uint256 i = 0; i < propuestas.length; i++) {... */\n    tag_76:\n        /* \"1_Votacion_descentralizada.sol\":3192:3202  propuestas */\n      0x00\n        /* \"1_Votacion_descentralizada.sol\":3192:3209  propuestas.length */\n      dup1\n      sload\n      swap1\n      pop\n        /* \"1_Votacion_descentralizada.sol\":3188:3189  i */\n      dup2\n        /* \"1_Votacion_descentralizada.sol\":3188:3209  i < propuestas.length */\n      lt\n        /* \"1_Votacion_descentralizada.sol\":3168:3271  for (uint256 i = 0; i < propuestas.length; i++) {... */\n      iszero\n      tag_77\n      jumpi\n        /* \"1_Votacion_descentralizada.sol\":3246:3256  propuestas */\n      0x00\n        /* \"1_Votacion_descentralizada.sol\":3257:3258  i */\n      dup2\n        /* \"1_Votacion_descentralizada.sol\":3246:3259  propuestas[i] */\n      dup2\n      sload\n      dup2\n      lt\n      tag_79\n      jumpi\n      tag_80\n      tag_81\n      jump\t// in\n    tag_80:\n    tag_79:\n      swap1\n      0x00\n      mstore\n      keccak256(0x00, 0x20)\n      swap1\n      0x02\n      mul\n      add\n        /* \"1_Votacion_descentralizada.sol\":3231:3259  resultado[i] = propuestas[i] */\n      mload(0x40)\n      dup1\n      0x40\n      add\n      0x40\n      mstore\n      swap1\n      dup2\n      0x00\n      dup3\n      add\n      dup1\n      sload\n      tag_83\n      swap1\n      tag_84\n      jump\t// in\n    tag_83:\n      dup1\n      0x1f\n      add\n      0x20\n      dup1\n      swap2\n      div\n      mul\n      0x20\n      add\n      mload(0x40)\n      swap1\n      dup2\n      add\n      0x40\n      mstore\n      dup1\n      swap3\n      swap2\n      swap1\n      dup2\n      dup2\n      mstore\n      0x20\n      add\n      dup3\n      dup1\n      sload\n      tag_85\n      swap1\n      tag_84\n      jump\t// in\n    tag_85:\n      dup1\n      iszero\n      tag_86\n      jumpi\n      dup1\n      0x1f\n      lt\n      tag_87\n      jumpi\n      0x0100\n      dup1\n      dup4\n      sload\n      div\n      mul\n      dup4\n      mstore\n      swap2\n      0x20\n      add\n      swap2\n      jump(tag_86)\n    tag_87:\n      dup3\n      add\n      swap2\n      swap1\n      0x00\n      mstore\n      keccak256(0x00, 0x20)\n      swap1\n    tag_88:\n      dup2\n      sload\n      dup2\n      mstore\n      swap1\n      0x01\n      add\n      swap1\n      0x20\n      add\n      dup1\n      dup4\n      gt\n      tag_88\n      jumpi\n      dup3\n      swap1\n      sub\n      0x1f\n      and\n      dup3\n      add\n      swap2\n    tag_86:\n      pop\n      pop\n      pop\n      pop\n      pop\n      dup2\n      mstore\n      0x20\n      add\n      0x01\n      dup3\n      add\n      sload\n      dup2\n      mstore\n      pop\n      pop\n        /* \"1_Votacion_descentralizada.sol\":3231:3240  resultado */\n      dup3\n        /* \"1_Votacion_descentralizada.sol\":3241:3242  i */\n      dup3\n        /* \"1_Votacion_descentralizada.sol\":3231:3243  resultado[i] */\n      dup2\n      mload\n      dup2\n      lt\n      tag_89\n      jumpi\n      tag_90\n      tag_81\n      jump\t// in\n    tag_90:\n    tag_89:\n      0x20\n      mul\n      0x20\n      add\n      add\n        /* \"1_Votacion_descentralizada.sol\":3231:3259  resultado[i] = propuestas[i] */\n      dup2\n      swap1\n      mstore\n      pop\n        /* \"1_Votacion_descentralizada.sol\":3211:3214  i++ */\n      dup1\n      dup1\n      0x01\n      add\n      swap2\n      pop\n      pop\n        /* \"1_Votacion_descentralizada.sol\":3168:3271  for (uint256 i = 0; i < propuestas.length; i++) {... */\n      jump(tag_76)\n    tag_77:\n      pop\n        /* \"1_Votacion_descentralizada.sol\":3288:3297  resultado */\n      dup1\n        /* \"1_Votacion_descentralizada.sol\":3281:3297  return resultado */\n      swap2\n      pop\n      pop\n        /* \"1_Votacion_descentralizada.sol\":3010:3305  function retornarPropuestas() public view returns (Propuesta[] memory) {... */\n      swap1\n      jump\t// out\n        /* \"1_Votacion_descentralizada.sol\":2488:2673  function votar(uint256 indicePropu) public soloWhitelist soloDuranteVotacion yaVoto {... */\n    tag_26:\n        /* \"1_Votacion_descentralizada.sol\":1549:1558  whiteList */\n      0x02\n        /* \"1_Votacion_descentralizada.sol\":1549:1570  whiteList[msg.sender] */\n      0x00\n        /* \"1_Votacion_descentralizada.sol\":1559:1569  msg.sender */\n      caller\n        /* \"1_Votacion_descentralizada.sol\":1549:1570  whiteList[msg.sender] */\n      0xffffffffffffffffffffffffffffffffffffffff\n      and\n      0xffffffffffffffffffffffffffffffffffffffff\n      and\n      dup2\n      mstore\n      0x20\n      add\n      swap1\n      dup2\n      mstore\n      0x20\n      add\n      0x00\n      keccak256\n      0x00\n      swap1\n      sload\n      swap1\n      0x0100\n      exp\n      swap1\n      div\n      0xff\n      and\n        /* \"1_Votacion_descentralizada.sol\":1541:1618  require(whiteList[msg.sender], \"Solo las personas autorizadas pueden votar.\") */\n      tag_92\n      jumpi\n      mload(0x40)\n      0x08c379a000000000000000000000000000000000000000000000000000000000\n      dup2\n      mstore\n      0x04\n      add\n      tag_93\n      swap1\n      tag_94\n      jump\t// in\n    tag_93:\n      mload(0x40)\n      dup1\n      swap2\n      sub\n      swap1\n      revert\n    tag_92:\n        /* \"1_Votacion_descentralizada.sol\":2021:2035  tiempoVotacion */\n      sload(0x04)\n        /* \"1_Votacion_descentralizada.sol\":2002:2017  block.timestamp */\n      timestamp\n        /* \"1_Votacion_descentralizada.sol\":2002:2035  block.timestamp <= tiempoVotacion */\n      gt\n      iszero\n        /* \"1_Votacion_descentralizada.sol\":1994:2077  require(block.timestamp <= tiempoVotacion, \"El periodo de votacion ha finalizado.\") */\n      tag_96\n      jumpi\n      mload(0x40)\n      0x08c379a000000000000000000000000000000000000000000000000000000000\n      dup2\n      mstore\n      0x04\n      add\n      tag_97\n      swap1\n      tag_98\n      jump\t// in\n    tag_97:\n      mload(0x40)\n      dup1\n      swap2\n      sub\n      swap1\n      revert\n    tag_96:\n        /* \"1_Votacion_descentralizada.sol\":1775:1786  sufragantes */\n      0x03\n        /* \"1_Votacion_descentralizada.sol\":1775:1798  sufragantes[msg.sender] */\n      0x00\n        /* \"1_Votacion_descentralizada.sol\":1787:1797  msg.sender */\n      caller\n        /* \"1_Votacion_descentralizada.sol\":1775:1798  sufragantes[msg.sender] */\n      0xffffffffffffffffffffffffffffffffffffffff\n      and\n      0xffffffffffffffffffffffffffffffffffffffff\n      and\n      dup2\n      mstore\n      0x20\n      add\n      swap1\n      dup2\n      mstore\n      0x20\n      add\n      0x00\n      keccak256\n      0x00\n      swap1\n      sload\n      swap1\n      0x0100\n      exp\n      swap1\n      div\n      0xff\n      and\n        /* \"1_Votacion_descentralizada.sol\":1774:1798  !sufragantes[msg.sender] */\n      iszero\n        /* \"1_Votacion_descentralizada.sol\":1766:1817  require(!sufragantes[msg.sender], \"Usted ya voto.\") */\n      tag_100\n      jumpi\n      mload(0x40)\n      0x08c379a000000000000000000000000000000000000000000000000000000000\n      dup2\n      mstore\n      0x04\n      add\n      tag_101\n      swap1\n      tag_102\n      jump\t// in\n    tag_101:\n      mload(0x40)\n      dup1\n      swap2\n      sub\n      swap1\n      revert\n    tag_100:\n        /* \"1_Votacion_descentralizada.sol\":2623:2624  1 */\n      0x01\n        /* \"1_Votacion_descentralizada.sol\":2583:2593  propuestas */\n      0x00\n        /* \"1_Votacion_descentralizada.sol\":2594:2605  indicePropu */\n      dup3\n        /* \"1_Votacion_descentralizada.sol\":2583:2606  propuestas[indicePropu] */\n      dup2\n      sload\n      dup2\n      lt\n      tag_104\n      jumpi\n      tag_105\n      tag_81\n      jump\t// in\n    tag_105:\n    tag_104:\n      swap1\n      0x00\n      mstore\n      keccak256(0x00, 0x20)\n      swap1\n      0x02\n      mul\n      add\n        /* \"1_Votacion_descentralizada.sol\":2583:2619  propuestas[indicePropu].votosTotales */\n      0x01\n      add\n      0x00\n        /* \"1_Votacion_descentralizada.sol\":2583:2624  propuestas[indicePropu].votosTotales += 1 */\n      dup3\n      dup3\n      sload\n      tag_107\n      swap2\n      swap1\n      tag_108\n      jump\t// in\n    tag_107:\n      swap3\n      pop\n      pop\n      dup2\n      swap1\n      sstore\n      pop\n        /* \"1_Votacion_descentralizada.sol\":2661:2665  true */\n      0x01\n        /* \"1_Votacion_descentralizada.sol\":2635:2646  sufragantes */\n      0x03\n        /* \"1_Votacion_descentralizada.sol\":2635:2658  sufragantes[msg.sender] */\n      0x00\n        /* \"1_Votacion_descentralizada.sol\":2647:2657  msg.sender */\n      caller\n        /* \"1_Votacion_descentralizada.sol\":2635:2658  sufragantes[msg.sender] */\n      0xffffffffffffffffffffffffffffffffffffffff\n      and\n      0xffffffffffffffffffffffffffffffffffffffff\n      and\n      dup2\n      mstore\n      0x20\n      add\n      swap1\n      dup2\n      mstore\n      0x20\n      add\n      0x00\n      keccak256\n      0x00\n        /* \"1_Votacion_descentralizada.sol\":2635:2665  sufragantes[msg.sender] = true */\n      0x0100\n      exp\n      dup2\n      sload\n      dup2\n      0xff\n      mul\n      not\n      and\n      swap1\n      dup4\n      iszero\n      iszero\n      mul\n      or\n      swap1\n      sstore\n      pop\n        /* \"1_Votacion_descentralizada.sol\":2488:2673  function votar(uint256 indicePropu) public soloWhitelist soloDuranteVotacion yaVoto {... */\n      pop\n      jump\t// out\n        /* \"1_Votacion_descentralizada.sol\":842:885  mapping(address => bool) public sufragantes */\n    tag_30:\n      mstore(0x20, 0x03)\n      dup1\n      0x00\n      mstore\n      keccak256(0x00, 0x40)\n      0x00\n      swap2\n      pop\n      sload\n      swap1\n      0x0100\n      exp\n      swap1\n      div\n      0xff\n      and\n      dup2\n      jump\t// out\n        /* \"1_Votacion_descentralizada.sol\":2707:2952  function retornarPropuesta(uint256 indicePropu) public view returns (string memory nombre, uint256 votosTotales) {... */\n    tag_35:\n        /* \"1_Votacion_descentralizada.sol\":2776:2796  string memory nombre */\n      0x60\n        /* \"1_Votacion_descentralizada.sol\":2798:2818  uint256 votosTotales */\n      0x00\n        /* \"1_Votacion_descentralizada.sol\":2831:2858  Propuesta storage propuesta */\n      dup1\n        /* \"1_Votacion_descentralizada.sol\":2861:2871  propuestas */\n      0x00\n        /* \"1_Votacion_descentralizada.sol\":2872:2883  indicePropu */\n      dup5\n        /* \"1_Votacion_descentralizada.sol\":2861:2884  propuestas[indicePropu] */\n      dup2\n      sload\n      dup2\n      lt\n      tag_110\n      jumpi\n      tag_111\n      tag_81\n      jump\t// in\n    tag_111:\n    tag_110:\n      swap1\n      0x00\n      mstore\n      keccak256(0x00, 0x20)\n      swap1\n      0x02\n      mul\n      add\n        /* \"1_Votacion_descentralizada.sol\":2831:2884  Propuesta storage propuesta = propuestas[indicePropu] */\n      swap1\n      pop\n        /* \"1_Votacion_descentralizada.sol\":2903:2912  propuesta */\n      dup1\n        /* \"1_Votacion_descentralizada.sol\":2903:2919  propuesta.nombre */\n      0x00\n      add\n        /* \"1_Votacion_descentralizada.sol\":2921:2930  propuesta */\n      dup2\n        /* \"1_Votacion_descentralizada.sol\":2921:2943  propuesta.votosTotales */\n      0x01\n      add\n      sload\n        /* \"1_Votacion_descentralizada.sol\":2895:2944  return (propuesta.nombre, propuesta.votosTotales) */\n      dup2\n      dup1\n      sload\n      tag_113\n      swap1\n      tag_84\n      jump\t// in\n    tag_113:\n      dup1\n      0x1f\n      add\n      0x20\n      dup1\n      swap2\n      div\n      mul\n      0x20\n      add\n      mload(0x40)\n      swap1\n      dup2\n      add\n      0x40\n      mstore\n      dup1\n      swap3\n      swap2\n      swap1\n      dup2\n      dup2\n      mstore\n      0x20\n      add\n      dup3\n      dup1\n      sload\n      tag_114\n      swap1\n      tag_84\n      jump\t// in\n    tag_114:\n      dup1\n      iszero\n      tag_115\n      jumpi\n      dup1\n      0x1f\n      lt\n      tag_116\n      jumpi\n      0x0100\n      dup1\n      dup4\n      sload\n      div\n      mul\n      dup4\n      mstore\n      swap2\n      0x20\n      add\n      swap2\n      jump(tag_115)\n    tag_116:\n      dup3\n      add\n      swap2\n      swap1\n      0x00\n      mstore\n      keccak256(0x00, 0x20)\n      swap1\n    tag_117:\n      dup2\n      sload\n      dup2\n      mstore\n      swap1\n      0x01\n      add\n      swap1\n      0x20\n      add\n      dup1\n      dup4\n      gt\n      tag_117\n      jumpi\n      dup3\n      swap1\n      sub\n      0x1f\n      and\n      dup3\n      add\n      swap2\n    tag_115:\n      pop\n      pop\n      pop\n      pop\n      pop\n      swap2\n      pop\n      swap3\n      pop\n      swap3\n      pop\n      pop\n        /* \"1_Votacion_descentralizada.sol\":2707:2952  function retornarPropuesta(uint256 indicePropu) public view returns (string memory nombre, uint256 votosTotales) {... */\n      swap2\n      pop\n      swap2\n      jump\t// out\n        /* \"1_Votacion_descentralizada.sol\":737:778  mapping(address => bool) public whiteList */\n    tag_40:\n      mstore(0x20, 0x02)\n      dup1\n      0x00\n      mstore\n      keccak256(0x00, 0x40)\n      0x00\n      swap2\n      pop\n      sload\n      swap1\n      0x0100\n      exp\n      swap1\n      div\n      0xff\n      and\n      dup2\n      jump\t// out\n        /* \"1_Votacion_descentralizada.sol\":685:711  address public propietario */\n    tag_43:\n      0x01\n      0x00\n      swap1\n      sload\n      swap1\n      0x0100\n      exp\n      swap1\n      div\n      0xffffffffffffffffffffffffffffffffffffffff\n      and\n      dup2\n      jump\t// out\n        /* \"1_Votacion_descentralizada.sol\":2149:2257  function adicionarDireccion(address sufra) public soloPropietario {... */\n    tag_48:\n        /* \"1_Votacion_descentralizada.sol\":1336:1347  propietario */\n      0x01\n      0x00\n      swap1\n      sload\n      swap1\n      0x0100\n      exp\n      swap1\n      div\n      0xffffffffffffffffffffffffffffffffffffffff\n      and\n        /* \"1_Votacion_descentralizada.sol\":1322:1347  msg.sender == propietario */\n      0xffffffffffffffffffffffffffffffffffffffff\n      and\n        /* \"1_Votacion_descentralizada.sol\":1322:1332  msg.sender */\n      caller\n        /* \"1_Votacion_descentralizada.sol\":1322:1347  msg.sender == propietario */\n      0xffffffffffffffffffffffffffffffffffffffff\n      and\n      eq\n        /* \"1_Votacion_descentralizada.sol\":1314:1400  require(msg.sender == propietario, \"Solo el propietario puede ejecutar esta funcion.\") */\n      tag_119\n      jumpi\n      mload(0x40)\n      0x08c379a000000000000000000000000000000000000000000000000000000000\n      dup2\n      mstore\n      0x04\n      add\n      tag_120\n      swap1\n      tag_63\n      jump\t// in\n    tag_120:\n      mload(0x40)\n      dup1\n      swap2\n      sub\n      swap1\n      revert\n    tag_119:\n        /* \"1_Votacion_descentralizada.sol\":2245:2249  true */\n      0x01\n        /* \"1_Votacion_descentralizada.sol\":2226:2235  whiteList */\n      0x02\n        /* \"1_Votacion_descentralizada.sol\":2226:2242  whiteList[sufra] */\n      0x00\n        /* \"1_Votacion_descentralizada.sol\":2236:2241  sufra */\n      dup4\n        /* \"1_Votacion_descentralizada.sol\":2226:2242  whiteList[sufra] */\n      0xffffffffffffffffffffffffffffffffffffffff\n      and\n      0xffffffffffffffffffffffffffffffffffffffff\n      and\n      dup2\n      mstore\n      0x20\n      add\n      swap1\n      dup2\n      mstore\n      0x20\n      add\n      0x00\n      keccak256\n      0x00\n        /* \"1_Votacion_descentralizada.sol\":2226:2249  whiteList[sufra] = true */\n      0x0100\n      exp\n      dup2\n      sload\n      dup2\n      0xff\n      mul\n      not\n      and\n      swap1\n      dup4\n      iszero\n      iszero\n      mul\n      or\n      swap1\n      sstore\n      pop\n        /* \"1_Votacion_descentralizada.sol\":2149:2257  function adicionarDireccion(address sufra) public soloPropietario {... */\n      pop\n      jump\t// out\n        /* \"1_Votacion_descentralizada.sol\":506:535  Propuesta[] public propuestas */\n    tag_51:\n      0x00\n      dup2\n      dup2\n      sload\n      dup2\n      lt\n      tag_122\n      jumpi\n      0x00\n      dup1\n      revert\n    tag_122:\n      swap1\n      0x00\n      mstore\n      keccak256(0x00, 0x20)\n      swap1\n      0x02\n      mul\n      add\n      0x00\n      swap2\n      pop\n      swap1\n      pop\n      dup1\n      0x00\n      add\n      dup1\n      sload\n      tag_124\n      swap1\n      tag_84\n      jump\t// in\n    tag_124:\n      dup1\n      0x1f\n      add\n      0x20\n      dup1\n      swap2\n      div\n      mul\n      0x20\n      add\n      mload(0x40)\n      swap1\n      dup2\n      add\n      0x40\n      mstore\n      dup1\n      swap3\n      swap2\n      swap1\n      dup2\n      dup2\n      mstore\n      0x20\n      add\n      dup3\n      dup1\n      sload\n      tag_125\n      swap1\n      tag_84\n      jump\t// in\n    tag_125:\n      dup1\n      iszero\n      tag_126\n      jumpi\n      dup1\n      0x1f\n      lt\n      tag_127\n      jumpi\n      0x0100\n      dup1\n      dup4\n      sload\n      div\n      mul\n      dup4\n      mstore\n      swap2\n      0x20\n      add\n      swap2\n      jump(tag_126)\n    tag_127:\n      dup3\n      add\n      swap2\n      swap1\n      0x00\n      mstore\n      keccak256(0x00, 0x20)\n      swap1\n    tag_128:\n      dup2\n      sload\n      dup2\n      mstore\n      swap1\n      0x01\n      add\n      swap1\n      0x20\n      add\n      dup1\n      dup4\n      gt\n      tag_128\n      jumpi\n      dup3\n      swap1\n      sub\n      0x1f\n      and\n      dup3\n      add\n      swap2\n    tag_126:\n      pop\n      pop\n      pop\n      pop\n      pop\n      swap1\n      dup1\n      0x01\n      add\n      sload\n      swap1\n      pop\n      dup3\n      jump\t// out\n        /* \"1_Votacion_descentralizada.sol\":941:970  uint256 public tiempoVotacion */\n    tag_54:\n      sload(0x04)\n      dup2\n      jump\t// out\n        /* \"1_Votacion_descentralizada.sol\":3358:3468  function retornarCuantasPropuestas() public view returns (uint256) {... */\n    tag_58:\n        /* \"1_Votacion_descentralizada.sol\":3416:3423  uint256 */\n      0x00\n        /* \"1_Votacion_descentralizada.sol\":3443:3453  propuestas */\n      dup1\n        /* \"1_Votacion_descentralizada.sol\":3443:3460  propuestas.length */\n      dup1\n      sload\n      swap1\n      pop\n        /* \"1_Votacion_descentralizada.sol\":3436:3460  return propuestas.length */\n      swap1\n      pop\n        /* \"1_Votacion_descentralizada.sol\":3358:3468  function retornarCuantasPropuestas() public view returns (uint256) {... */\n      swap1\n      jump\t// out\n    tag_75:\n      mload(0x40)\n      dup1\n      0x40\n      add\n      0x40\n      mstore\n      dup1\n      0x60\n      dup2\n      mstore\n      0x20\n      add\n      0x00\n      dup2\n      mstore\n      pop\n      swap1\n      jump\t// out\n        /* \"#utility.yul\":7:82   */\n    tag_130:\n        /* \"#utility.yul\":40:46   */\n      0x00\n        /* \"#utility.yul\":73:75   */\n      0x40\n        /* \"#utility.yul\":67:76   */\n      mload\n        /* \"#utility.yul\":57:76   */\n      swap1\n      pop\n        /* \"#utility.yul\":7:82   */\n      swap1\n      jump\t// out\n        /* \"#utility.yul\":88:205   */\n    tag_131:\n        /* \"#utility.yul\":197:198   */\n      0x00\n        /* \"#utility.yul\":194:195   */\n      dup1\n        /* \"#utility.yul\":187:199   */\n      revert\n        /* \"#utility.yul\":211:328   */\n    tag_132:\n        /* \"#utility.yul\":320:321   */\n      0x00\n        /* \"#utility.yul\":317:318   */\n      dup1\n        /* \"#utility.yul\":310:322   */\n      revert\n        /* \"#utility.yul\":334:451   */\n    tag_133:\n        /* \"#utility.yul\":443:444   */\n      0x00\n        /* \"#utility.yul\":440:441   */\n      dup1\n        /* \"#utility.yul\":433:445   */\n      revert\n        /* \"#utility.yul\":457:574   */\n    tag_134:\n        /* \"#utility.yul\":566:567   */\n      0x00\n        /* \"#utility.yul\":563:564   */\n      dup1\n        /* \"#utility.yul\":556:568   */\n      revert\n        /* \"#utility.yul\":580:682   */\n    tag_135:\n        /* \"#utility.yul\":621:627   */\n      0x00\n        /* \"#utility.yul\":672:674   */\n      0x1f\n        /* \"#utility.yul\":668:675   */\n      not\n        /* \"#utility.yul\":663:665   */\n      0x1f\n        /* \"#utility.yul\":656:661   */\n      dup4\n        /* \"#utility.yul\":652:666   */\n      add\n        /* \"#utility.yul\":648:676   */\n      and\n        /* \"#utility.yul\":638:676   */\n      swap1\n      pop\n        /* \"#utility.yul\":580:682   */\n      swap2\n      swap1\n      pop\n      jump\t// out\n        /* \"#utility.yul\":688:868   */\n    tag_71:\n        /* \"#utility.yul\":736:813   */\n      0x4e487b7100000000000000000000000000000000000000000000000000000000\n        /* \"#utility.yul\":733:734   */\n      0x00\n        /* \"#utility.yul\":726:814   */\n      mstore\n        /* \"#utility.yul\":833:837   */\n      0x41\n        /* \"#utility.yul\":830:831   */\n      0x04\n        /* \"#utility.yul\":823:838   */\n      mstore\n        /* \"#utility.yul\":857:861   */\n      0x24\n        /* \"#utility.yul\":854:855   */\n      0x00\n        /* \"#utility.yul\":847:862   */\n      revert\n        /* \"#utility.yul\":874:1155   */\n    tag_136:\n        /* \"#utility.yul\":957:984   */\n      tag_201\n        /* \"#utility.yul\":979:983   */\n      dup3\n        /* \"#utility.yul\":957:984   */\n      tag_135\n      jump\t// in\n    tag_201:\n        /* \"#utility.yul\":949:955   */\n      dup2\n        /* \"#utility.yul\":945:985   */\n      add\n        /* \"#utility.yul\":1087:1093   */\n      dup2\n        /* \"#utility.yul\":1075:1085   */\n      dup2\n        /* \"#utility.yul\":1072:1094   */\n      lt\n        /* \"#utility.yul\":1051:1069   */\n      0xffffffffffffffff\n        /* \"#utility.yul\":1039:1049   */\n      dup3\n        /* \"#utility.yul\":1036:1070   */\n      gt\n        /* \"#utility.yul\":1033:1095   */\n      or\n        /* \"#utility.yul\":1030:1118   */\n      iszero\n      tag_202\n      jumpi\n        /* \"#utility.yul\":1098:1116   */\n      tag_203\n      tag_71\n      jump\t// in\n    tag_203:\n        /* \"#utility.yul\":1030:1118   */\n    tag_202:\n        /* \"#utility.yul\":1138:1148   */\n      dup1\n        /* \"#utility.yul\":1134:1136   */\n      0x40\n        /* \"#utility.yul\":1127:1149   */\n      mstore\n        /* \"#utility.yul\":917:1155   */\n      pop\n        /* \"#utility.yul\":874:1155   */\n      pop\n      pop\n      jump\t// out\n        /* \"#utility.yul\":1161:1290   */\n    tag_137:\n        /* \"#utility.yul\":1195:1201   */\n      0x00\n        /* \"#utility.yul\":1222:1242   */\n      tag_205\n      tag_130\n      jump\t// in\n    tag_205:\n        /* \"#utility.yul\":1212:1242   */\n      swap1\n      pop\n        /* \"#utility.yul\":1251:1284   */\n      tag_206\n        /* \"#utility.yul\":1279:1283   */\n      dup3\n        /* \"#utility.yul\":1271:1277   */\n      dup3\n        /* \"#utility.yul\":1251:1284   */\n      tag_136\n      jump\t// in\n    tag_206:\n        /* \"#utility.yul\":1161:1290   */\n      swap2\n      swap1\n      pop\n      jump\t// out\n        /* \"#utility.yul\":1296:1604   */\n    tag_138:\n        /* \"#utility.yul\":1358:1362   */\n      0x00\n        /* \"#utility.yul\":1448:1466   */\n      0xffffffffffffffff\n        /* \"#utility.yul\":1440:1446   */\n      dup3\n        /* \"#utility.yul\":1437:1467   */\n      gt\n        /* \"#utility.yul\":1434:1490   */\n      iszero\n      tag_208\n      jumpi\n        /* \"#utility.yul\":1470:1488   */\n      tag_209\n      tag_71\n      jump\t// in\n    tag_209:\n        /* \"#utility.yul\":1434:1490   */\n    tag_208:\n        /* \"#utility.yul\":1508:1537   */\n      tag_210\n        /* \"#utility.yul\":1530:1536   */\n      dup3\n        /* \"#utility.yul\":1508:1537   */\n      tag_135\n      jump\t// in\n    tag_210:\n        /* \"#utility.yul\":1500:1537   */\n      swap1\n      pop\n        /* \"#utility.yul\":1592:1596   */\n      0x20\n        /* \"#utility.yul\":1586:1590   */\n      dup2\n        /* \"#utility.yul\":1582:1597   */\n      add\n        /* \"#utility.yul\":1574:1597   */\n      swap1\n      pop\n        /* \"#utility.yul\":1296:1604   */\n      swap2\n      swap1\n      pop\n      jump\t// out\n        /* \"#utility.yul\":1610:1758   */\n    tag_139:\n        /* \"#utility.yul\":1708:1714   */\n      dup3\n        /* \"#utility.yul\":1703:1706   */\n      dup2\n        /* \"#utility.yul\":1698:1701   */\n      dup4\n        /* \"#utility.yul\":1685:1715   */\n      calldatacopy\n        /* \"#utility.yul\":1749:1750   */\n      0x00\n        /* \"#utility.yul\":1740:1746   */\n      dup4\n        /* \"#utility.yul\":1735:1738   */\n      dup4\n        /* \"#utility.yul\":1731:1747   */\n      add\n        /* \"#utility.yul\":1724:1751   */\n      mstore\n        /* \"#utility.yul\":1610:1758   */\n      pop\n      pop\n      pop\n      jump\t// out\n        /* \"#utility.yul\":1764:2189   */\n    tag_140:\n        /* \"#utility.yul\":1842:1847   */\n      0x00\n        /* \"#utility.yul\":1867:1933   */\n      tag_213\n        /* \"#utility.yul\":1883:1932   */\n      tag_214\n        /* \"#utility.yul\":1925:1931   */\n      dup5\n        /* \"#utility.yul\":1883:1932   */\n      tag_138\n      jump\t// in\n    tag_214:\n        /* \"#utility.yul\":1867:1933   */\n      tag_137\n      jump\t// in\n    tag_213:\n        /* \"#utility.yul\":1858:1933   */\n      swap1\n      pop\n        /* \"#utility.yul\":1956:1962   */\n      dup3\n        /* \"#utility.yul\":1949:1954   */\n      dup2\n        /* \"#utility.yul\":1942:1963   */\n      mstore\n        /* \"#utility.yul\":1994:1998   */\n      0x20\n        /* \"#utility.yul\":1987:1992   */\n      dup2\n        /* \"#utility.yul\":1983:1999   */\n      add\n        /* \"#utility.yul\":2032:2035   */\n      dup5\n        /* \"#utility.yul\":2023:2029   */\n      dup5\n        /* \"#utility.yul\":2018:2021   */\n      dup5\n        /* \"#utility.yul\":2014:2030   */\n      add\n        /* \"#utility.yul\":2011:2036   */\n      gt\n        /* \"#utility.yul\":2008:2120   */\n      iszero\n      tag_215\n      jumpi\n        /* \"#utility.yul\":2039:2118   */\n      tag_216\n      tag_134\n      jump\t// in\n    tag_216:\n        /* \"#utility.yul\":2008:2120   */\n    tag_215:\n        /* \"#utility.yul\":2129:2183   */\n      tag_217\n        /* \"#utility.yul\":2176:2182   */\n      dup5\n        /* \"#utility.yul\":2171:2174   */\n      dup3\n        /* \"#utility.yul\":2166:2169   */\n      dup6\n        /* \"#utility.yul\":2129:2183   */\n      tag_139\n      jump\t// in\n    tag_217:\n        /* \"#utility.yul\":1848:2189   */\n      pop\n        /* \"#utility.yul\":1764:2189   */\n      swap4\n      swap3\n      pop\n      pop\n      pop\n      jump\t// out\n        /* \"#utility.yul\":2209:2549   */\n    tag_141:\n        /* \"#utility.yul\":2265:2270   */\n      0x00\n        /* \"#utility.yul\":2314:2317   */\n      dup3\n        /* \"#utility.yul\":2307:2311   */\n      0x1f\n        /* \"#utility.yul\":2299:2305   */\n      dup4\n        /* \"#utility.yul\":2295:2312   */\n      add\n        /* \"#utility.yul\":2291:2318   */\n      slt\n        /* \"#utility.yul\":2281:2403   */\n      tag_219\n      jumpi\n        /* \"#utility.yul\":2322:2401   */\n      tag_220\n      tag_133\n      jump\t// in\n    tag_220:\n        /* \"#utility.yul\":2281:2403   */\n    tag_219:\n        /* \"#utility.yul\":2439:2445   */\n      dup2\n        /* \"#utility.yul\":2426:2446   */\n      calldataload\n        /* \"#utility.yul\":2464:2543   */\n      tag_221\n        /* \"#utility.yul\":2539:2542   */\n      dup5\n        /* \"#utility.yul\":2531:2537   */\n      dup3\n        /* \"#utility.yul\":2524:2528   */\n      0x20\n        /* \"#utility.yul\":2516:2522   */\n      dup7\n        /* \"#utility.yul\":2512:2529   */\n      add\n        /* \"#utility.yul\":2464:2543   */\n      tag_140\n      jump\t// in\n    tag_221:\n        /* \"#utility.yul\":2455:2543   */\n      swap2\n      pop\n        /* \"#utility.yul\":2271:2549   */\n      pop\n        /* \"#utility.yul\":2209:2549   */\n      swap3\n      swap2\n      pop\n      pop\n      jump\t// out\n        /* \"#utility.yul\":2555:3064   */\n    tag_17:\n        /* \"#utility.yul\":2624:2630   */\n      0x00\n        /* \"#utility.yul\":2673:2675   */\n      0x20\n        /* \"#utility.yul\":2661:2670   */\n      dup3\n        /* \"#utility.yul\":2652:2659   */\n      dup5\n        /* \"#utility.yul\":2648:2671   */\n      sub\n        /* \"#utility.yul\":2644:2676   */\n      slt\n        /* \"#utility.yul\":2641:2760   */\n      iszero\n      tag_223\n      jumpi\n        /* \"#utility.yul\":2679:2758   */\n      tag_224\n      tag_131\n      jump\t// in\n    tag_224:\n        /* \"#utility.yul\":2641:2760   */\n    tag_223:\n        /* \"#utility.yul\":2827:2828   */\n      0x00\n        /* \"#utility.yul\":2816:2825   */\n      dup3\n        /* \"#utility.yul\":2812:2829   */\n      add\n        /* \"#utility.yul\":2799:2830   */\n      calldataload\n        /* \"#utility.yul\":2857:2875   */\n      0xffffffffffffffff\n        /* \"#utility.yul\":2849:2855   */\n      dup2\n        /* \"#utility.yul\":2846:2876   */\n      gt\n        /* \"#utility.yul\":2843:2960   */\n      iszero\n      tag_225\n      jumpi\n        /* \"#utility.yul\":2879:2958   */\n      tag_226\n      tag_132\n      jump\t// in\n    tag_226:\n        /* \"#utility.yul\":2843:2960   */\n    tag_225:\n        /* \"#utility.yul\":2984:3047   */\n      tag_227\n        /* \"#utility.yul\":3039:3046   */\n      dup5\n        /* \"#utility.yul\":3030:3036   */\n      dup3\n        /* \"#utility.yul\":3019:3028   */\n      dup6\n        /* \"#utility.yul\":3015:3037   */\n      add\n        /* \"#utility.yul\":2984:3047   */\n      tag_141\n      jump\t// in\n    tag_227:\n        /* \"#utility.yul\":2974:3047   */\n      swap2\n      pop\n        /* \"#utility.yul\":2770:3057   */\n      pop\n        /* \"#utility.yul\":2555:3064   */\n      swap3\n      swap2\n      pop\n      pop\n      jump\t// out\n        /* \"#utility.yul\":3070:3208   */\n    tag_142:\n        /* \"#utility.yul\":3161:3167   */\n      0x00\n        /* \"#utility.yul\":3195:3200   */\n      dup2\n        /* \"#utility.yul\":3189:3201   */\n      mload\n        /* \"#utility.yul\":3179:3201   */\n      swap1\n      pop\n        /* \"#utility.yul\":3070:3208   */\n      swap2\n      swap1\n      pop\n      jump\t// out\n        /* \"#utility.yul\":3214:3422   */\n    tag_143:\n        /* \"#utility.yul\":3337:3348   */\n      0x00\n        /* \"#utility.yul\":3371:3377   */\n      dup3\n        /* \"#utility.yul\":3366:3369   */\n      dup3\n        /* \"#utility.yul\":3359:3378   */\n      mstore\n        /* \"#utility.yul\":3411:3415   */\n      0x20\n        /* \"#utility.yul\":3406:3409   */\n      dup3\n        /* \"#utility.yul\":3402:3416   */\n      add\n        /* \"#utility.yul\":3387:3416   */\n      swap1\n      pop\n        /* \"#utility.yul\":3214:3422   */\n      swap3\n      swap2\n      pop\n      pop\n      jump\t// out\n        /* \"#utility.yul\":3428:3584   */\n    tag_144:\n        /* \"#utility.yul\":3519:3523   */\n      0x00\n        /* \"#utility.yul\":3542:3545   */\n      dup2\n        /* \"#utility.yul\":3534:3545   */\n      swap1\n      pop\n        /* \"#utility.yul\":3572:3576   */\n      0x20\n        /* \"#utility.yul\":3567:3570   */\n      dup3\n        /* \"#utility.yul\":3563:3577   */\n      add\n        /* \"#utility.yul\":3555:3577   */\n      swap1\n      pop\n        /* \"#utility.yul\":3428:3584   */\n      swap2\n      swap1\n      pop\n      jump\t// out\n        /* \"#utility.yul\":3590:3689   */\n    tag_145:\n        /* \"#utility.yul\":3642:3648   */\n      0x00\n        /* \"#utility.yul\":3676:3681   */\n      dup2\n        /* \"#utility.yul\":3670:3682   */\n      mload\n        /* \"#utility.yul\":3660:3682   */\n      swap1\n      pop\n        /* \"#utility.yul\":3590:3689   */\n      swap2\n      swap1\n      pop\n      jump\t// out\n        /* \"#utility.yul\":3695:3854   */\n    tag_146:\n        /* \"#utility.yul\":3769:3780   */\n      0x00\n        /* \"#utility.yul\":3803:3809   */\n      dup3\n        /* \"#utility.yul\":3798:3801   */\n      dup3\n        /* \"#utility.yul\":3791:3810   */\n      mstore\n        /* \"#utility.yul\":3843:3847   */\n      0x20\n        /* \"#utility.yul\":3838:3841   */\n      dup3\n        /* \"#utility.yul\":3834:3848   */\n      add\n        /* \"#utility.yul\":3819:3848   */\n      swap1\n      pop\n        /* \"#utility.yul\":3695:3854   */\n      swap3\n      swap2\n      pop\n      pop\n      jump\t// out\n        /* \"#utility.yul\":3860:3999   */\n    tag_147:\n        /* \"#utility.yul\":3949:3955   */\n      dup3\n        /* \"#utility.yul\":3944:3947   */\n      dup2\n        /* \"#utility.yul\":3939:3942   */\n      dup4\n        /* \"#utility.yul\":3933:3956   */\n      mcopy\n        /* \"#utility.yul\":3990:3991   */\n      0x00\n        /* \"#utility.yul\":3981:3987   */\n      dup4\n        /* \"#utility.yul\":3976:3979   */\n      dup4\n        /* \"#utility.yul\":3972:3988   */\n      add\n        /* \"#utility.yul\":3965:3992   */\n      mstore\n        /* \"#utility.yul\":3860:3999   */\n      pop\n      pop\n      pop\n      jump\t// out\n        /* \"#utility.yul\":4005:4362   */\n    tag_148:\n        /* \"#utility.yul\":4083:4086   */\n      0x00\n        /* \"#utility.yul\":4111:4150   */\n      tag_235\n        /* \"#utility.yul\":4144:4149   */\n      dup3\n        /* \"#utility.yul\":4111:4150   */\n      tag_145\n      jump\t// in\n    tag_235:\n        /* \"#utility.yul\":4166:4227   */\n      tag_236\n        /* \"#utility.yul\":4220:4226   */\n      dup2\n        /* \"#utility.yul\":4215:4218   */\n      dup6\n        /* \"#utility.yul\":4166:4227   */\n      tag_146\n      jump\t// in\n    tag_236:\n        /* \"#utility.yul\":4159:4227   */\n      swap4\n      pop\n        /* \"#utility.yul\":4236:4301   */\n      tag_237\n        /* \"#utility.yul\":4294:4300   */\n      dup2\n        /* \"#utility.yul\":4289:4292   */\n      dup6\n        /* \"#utility.yul\":4282:4286   */\n      0x20\n        /* \"#utility.yul\":4275:4280   */\n      dup7\n        /* \"#utility.yul\":4271:4287   */\n      add\n        /* \"#utility.yul\":4236:4301   */\n      tag_147\n      jump\t// in\n    tag_237:\n        /* \"#utility.yul\":4326:4355   */\n      tag_238\n        /* \"#utility.yul\":4348:4354   */\n      dup2\n        /* \"#utility.yul\":4326:4355   */\n      tag_135\n      jump\t// in\n    tag_238:\n        /* \"#utility.yul\":4321:4324   */\n      dup5\n        /* \"#utility.yul\":4317:4356   */\n      add\n        /* \"#utility.yul\":4310:4356   */\n      swap2\n      pop\n        /* \"#utility.yul\":4087:4362   */\n      pop\n        /* \"#utility.yul\":4005:4362   */\n      swap3\n      swap2\n      pop\n      pop\n      jump\t// out\n        /* \"#utility.yul\":4368:4445   */\n    tag_149:\n        /* \"#utility.yul\":4405:4412   */\n      0x00\n        /* \"#utility.yul\":4434:4439   */\n      dup2\n        /* \"#utility.yul\":4423:4439   */\n      swap1\n      pop\n        /* \"#utility.yul\":4368:4445   */\n      swap2\n      swap1\n      pop\n      jump\t// out\n        /* \"#utility.yul\":4451:4559   */\n    tag_150:\n        /* \"#utility.yul\":4528:4552   */\n      tag_241\n        /* \"#utility.yul\":4546:4551   */\n      dup2\n        /* \"#utility.yul\":4528:4552   */\n      tag_149\n      jump\t// in\n    tag_241:\n        /* \"#utility.yul\":4523:4526   */\n      dup3\n        /* \"#utility.yul\":4516:4553   */\n      mstore\n        /* \"#utility.yul\":4451:4559   */\n      pop\n      pop\n      jump\t// out\n        /* \"#utility.yul\":4627:5231   */\n    tag_151:\n        /* \"#utility.yul\":4734:4737   */\n      0x00\n        /* \"#utility.yul\":4770:4774   */\n      0x40\n        /* \"#utility.yul\":4765:4768   */\n      dup4\n        /* \"#utility.yul\":4761:4775   */\n      add\n        /* \"#utility.yul\":4859:4863   */\n      0x00\n        /* \"#utility.yul\":4852:4857   */\n      dup4\n        /* \"#utility.yul\":4848:4864   */\n      add\n        /* \"#utility.yul\":4842:4865   */\n      mload\n        /* \"#utility.yul\":4912:4915   */\n      dup5\n        /* \"#utility.yul\":4906:4910   */\n      dup3\n        /* \"#utility.yul\":4902:4916   */\n      sub\n        /* \"#utility.yul\":4895:4899   */\n      0x00\n        /* \"#utility.yul\":4890:4893   */\n      dup7\n        /* \"#utility.yul\":4886:4900   */\n      add\n        /* \"#utility.yul\":4879:4917   */\n      mstore\n        /* \"#utility.yul\":4938:5011   */\n      tag_243\n        /* \"#utility.yul\":5006:5010   */\n      dup3\n        /* \"#utility.yul\":4992:5004   */\n      dup3\n        /* \"#utility.yul\":4938:5011   */\n      tag_148\n      jump\t// in\n    tag_243:\n        /* \"#utility.yul\":4930:5011   */\n      swap2\n      pop\n        /* \"#utility.yul\":4785:5022   */\n      pop\n        /* \"#utility.yul\":5112:5116   */\n      0x20\n        /* \"#utility.yul\":5105:5110   */\n      dup4\n        /* \"#utility.yul\":5101:5117   */\n      add\n        /* \"#utility.yul\":5095:5118   */\n      mload\n        /* \"#utility.yul\":5131:5194   */\n      tag_244\n        /* \"#utility.yul\":5188:5192   */\n      0x20\n        /* \"#utility.yul\":5183:5186   */\n      dup7\n        /* \"#utility.yul\":5179:5193   */\n      add\n        /* \"#utility.yul\":5165:5177   */\n      dup3\n        /* \"#utility.yul\":5131:5194   */\n      tag_150\n      jump\t// in\n    tag_244:\n        /* \"#utility.yul\":5032:5204   */\n      pop\n        /* \"#utility.yul\":5221:5225   */\n      dup1\n        /* \"#utility.yul\":5214:5225   */\n      swap2\n      pop\n        /* \"#utility.yul\":4739:5231   */\n      pop\n        /* \"#utility.yul\":4627:5231   */\n      swap3\n      swap2\n      pop\n      pop\n      jump\t// out\n        /* \"#utility.yul\":5237:5489   */\n    tag_152:\n        /* \"#utility.yul\":5354:5364   */\n      0x00\n        /* \"#utility.yul\":5389:5483   */\n      tag_246\n        /* \"#utility.yul\":5479:5482   */\n      dup4\n        /* \"#utility.yul\":5471:5477   */\n      dup4\n        /* \"#utility.yul\":5389:5483   */\n      tag_151\n      jump\t// in\n    tag_246:\n        /* \"#utility.yul\":5375:5483   */\n      swap1\n      pop\n        /* \"#utility.yul\":5237:5489   */\n      swap3\n      swap2\n      pop\n      pop\n      jump\t// out\n        /* \"#utility.yul\":5495:5632   */\n    tag_153:\n        /* \"#utility.yul\":5589:5593   */\n      0x00\n        /* \"#utility.yul\":5621:5625   */\n      0x20\n        /* \"#utility.yul\":5616:5619   */\n      dup3\n        /* \"#utility.yul\":5612:5626   */\n      add\n        /* \"#utility.yul\":5604:5626   */\n      swap1\n      pop\n        /* \"#utility.yul\":5495:5632   */\n      swap2\n      swap1\n      pop\n      jump\t// out\n        /* \"#utility.yul\":5704:6807   */\n    tag_154:\n        /* \"#utility.yul\":5871:5874   */\n      0x00\n        /* \"#utility.yul\":5900:5978   */\n      tag_249\n        /* \"#utility.yul\":5972:5977   */\n      dup3\n        /* \"#utility.yul\":5900:5978   */\n      tag_142\n      jump\t// in\n    tag_249:\n        /* \"#utility.yul\":5994:6104   */\n      tag_250\n        /* \"#utility.yul\":6097:6103   */\n      dup2\n        /* \"#utility.yul\":6092:6095   */\n      dup6\n        /* \"#utility.yul\":5994:6104   */\n      tag_143\n      jump\t// in\n    tag_250:\n        /* \"#utility.yul\":5987:6104   */\n      swap4\n      pop\n        /* \"#utility.yul\":6130:6133   */\n      dup4\n        /* \"#utility.yul\":6175:6179   */\n      0x20\n        /* \"#utility.yul\":6167:6173   */\n      dup3\n        /* \"#utility.yul\":6163:6180   */\n      mul\n        /* \"#utility.yul\":6158:6161   */\n      dup6\n        /* \"#utility.yul\":6154:6181   */\n      add\n        /* \"#utility.yul\":6205:6285   */\n      tag_251\n        /* \"#utility.yul\":6279:6284   */\n      dup6\n        /* \"#utility.yul\":6205:6285   */\n      tag_144\n      jump\t// in\n    tag_251:\n        /* \"#utility.yul\":6308:6315   */\n      dup1\n        /* \"#utility.yul\":6339:6340   */\n      0x00\n        /* \"#utility.yul\":6324:6762   */\n    tag_252:\n        /* \"#utility.yul\":6349:6355   */\n      dup6\n        /* \"#utility.yul\":6346:6347   */\n      dup2\n        /* \"#utility.yul\":6343:6356   */\n      lt\n        /* \"#utility.yul\":6324:6762   */\n      iszero\n      tag_254\n      jumpi\n        /* \"#utility.yul\":6420:6429   */\n      dup5\n        /* \"#utility.yul\":6414:6418   */\n      dup5\n        /* \"#utility.yul\":6410:6430   */\n      sub\n        /* \"#utility.yul\":6405:6408   */\n      dup10\n        /* \"#utility.yul\":6398:6431   */\n      mstore\n        /* \"#utility.yul\":6471:6477   */\n      dup2\n        /* \"#utility.yul\":6465:6478   */\n      mload\n        /* \"#utility.yul\":6499:6611   */\n      tag_255\n        /* \"#utility.yul\":6606:6610   */\n      dup6\n        /* \"#utility.yul\":6591:6604   */\n      dup3\n        /* \"#utility.yul\":6499:6611   */\n      tag_152\n      jump\t// in\n    tag_255:\n        /* \"#utility.yul\":6491:6611   */\n      swap5\n      pop\n        /* \"#utility.yul\":6634:6718   */\n      tag_256\n        /* \"#utility.yul\":6711:6717   */\n      dup4\n        /* \"#utility.yul\":6634:6718   */\n      tag_153\n      jump\t// in\n    tag_256:\n        /* \"#utility.yul\":6624:6718   */\n      swap3\n      pop\n        /* \"#utility.yul\":6747:6751   */\n      0x20\n        /* \"#utility.yul\":6742:6745   */\n      dup11\n        /* \"#utility.yul\":6738:6752   */\n      add\n        /* \"#utility.yul\":6731:6752   */\n      swap10\n      pop\n        /* \"#utility.yul\":6384:6762   */\n      pop\n        /* \"#utility.yul\":6371:6372   */\n      0x01\n        /* \"#utility.yul\":6368:6369   */\n      dup2\n        /* \"#utility.yul\":6364:6373   */\n      add\n        /* \"#utility.yul\":6359:6373   */\n      swap1\n      pop\n        /* \"#utility.yul\":6324:6762   */\n      jump(tag_252)\n    tag_254:\n        /* \"#utility.yul\":6328:6342   */\n      pop\n        /* \"#utility.yul\":6778:6782   */\n      dup3\n        /* \"#utility.yul\":6771:6782   */\n      swap8\n      pop\n        /* \"#utility.yul\":6798:6801   */\n      dup8\n        /* \"#utility.yul\":6791:6801   */\n      swap6\n      pop\n        /* \"#utility.yul\":5876:6807   */\n      pop\n      pop\n      pop\n      pop\n      pop\n        /* \"#utility.yul\":5704:6807   */\n      swap3\n      swap2\n      pop\n      pop\n      jump\t// out\n        /* \"#utility.yul\":6813:7282   */\n    tag_22:\n        /* \"#utility.yul\":7004:7008   */\n      0x00\n        /* \"#utility.yul\":7042:7044   */\n      0x20\n        /* \"#utility.yul\":7031:7040   */\n      dup3\n        /* \"#utility.yul\":7027:7045   */\n      add\n        /* \"#utility.yul\":7019:7045   */\n      swap1\n      pop\n        /* \"#utility.yul\":7091:7100   */\n      dup2\n        /* \"#utility.yul\":7085:7089   */\n      dup2\n        /* \"#utility.yul\":7081:7101   */\n      sub\n        /* \"#utility.yul\":7077:7078   */\n      0x00\n        /* \"#utility.yul\":7066:7075   */\n      dup4\n        /* \"#utility.yul\":7062:7079   */\n      add\n        /* \"#utility.yul\":7055:7102   */\n      mstore\n        /* \"#utility.yul\":7119:7275   */\n      tag_258\n        /* \"#utility.yul\":7270:7274   */\n      dup2\n        /* \"#utility.yul\":7261:7267   */\n      dup5\n        /* \"#utility.yul\":7119:7275   */\n      tag_154\n      jump\t// in\n    tag_258:\n        /* \"#utility.yul\":7111:7275   */\n      swap1\n      pop\n        /* \"#utility.yul\":6813:7282   */\n      swap3\n      swap2\n      pop\n      pop\n      jump\t// out\n        /* \"#utility.yul\":7288:7410   */\n    tag_155:\n        /* \"#utility.yul\":7361:7385   */\n      tag_260\n        /* \"#utility.yul\":7379:7384   */\n      dup2\n        /* \"#utility.yul\":7361:7385   */\n      tag_149\n      jump\t// in\n    tag_260:\n        /* \"#utility.yul\":7354:7359   */\n      dup2\n        /* \"#utility.yul\":7351:7386   */\n      eq\n        /* \"#utility.yul\":7341:7404   */\n      tag_261\n      jumpi\n        /* \"#utility.yul\":7400:7401   */\n      0x00\n        /* \"#utility.yul\":7397:7398   */\n      dup1\n        /* \"#utility.yul\":7390:7402   */\n      revert\n        /* \"#utility.yul\":7341:7404   */\n    tag_261:\n        /* \"#utility.yul\":7288:7410   */\n      pop\n      jump\t// out\n        /* \"#utility.yul\":7416:7555   */\n    tag_156:\n        /* \"#utility.yul\":7462:7467   */\n      0x00\n        /* \"#utility.yul\":7500:7506   */\n      dup2\n        /* \"#utility.yul\":7487:7507   */\n      calldataload\n        /* \"#utility.yul\":7478:7507   */\n      swap1\n      pop\n        /* \"#utility.yul\":7516:7549   */\n      tag_263\n        /* \"#utility.yul\":7543:7548   */\n      dup2\n        /* \"#utility.yul\":7516:7549   */\n      tag_155\n      jump\t// in\n    tag_263:\n        /* \"#utility.yul\":7416:7555   */\n      swap3\n      swap2\n      pop\n      pop\n      jump\t// out\n        /* \"#utility.yul\":7561:7890   */\n    tag_25:\n        /* \"#utility.yul\":7620:7626   */\n      0x00\n        /* \"#utility.yul\":7669:7671   */\n      0x20\n        /* \"#utility.yul\":7657:7666   */\n      dup3\n        /* \"#utility.yul\":7648:7655   */\n      dup5\n        /* \"#utility.yul\":7644:7667   */\n      sub\n        /* \"#utility.yul\":7640:7672   */\n      slt\n        /* \"#utility.yul\":7637:7756   */\n      iszero\n      tag_265\n      jumpi\n        /* \"#utility.yul\":7675:7754   */\n      tag_266\n      tag_131\n      jump\t// in\n    tag_266:\n        /* \"#utility.yul\":7637:7756   */\n    tag_265:\n        /* \"#utility.yul\":7795:7796   */\n      0x00\n        /* \"#utility.yul\":7820:7873   */\n      tag_267\n        /* \"#utility.yul\":7865:7872   */\n      dup5\n        /* \"#utility.yul\":7856:7862   */\n      dup3\n        /* \"#utility.yul\":7845:7854   */\n      dup6\n        /* \"#utility.yul\":7841:7863   */\n      add\n        /* \"#utility.yul\":7820:7873   */\n      tag_156\n      jump\t// in\n    tag_267:\n        /* \"#utility.yul\":7810:7873   */\n      swap2\n      pop\n        /* \"#utility.yul\":7766:7883   */\n      pop\n        /* \"#utility.yul\":7561:7890   */\n      swap3\n      swap2\n      pop\n      pop\n      jump\t// out\n        /* \"#utility.yul\":7896:8022   */\n    tag_157:\n        /* \"#utility.yul\":7933:7940   */\n      0x00\n        /* \"#utility.yul\":7973:8015   */\n      0xffffffffffffffffffffffffffffffffffffffff\n        /* \"#utility.yul\":7966:7971   */\n      dup3\n        /* \"#utility.yul\":7962:8016   */\n      and\n        /* \"#utility.yul\":7951:8016   */\n      swap1\n      pop\n        /* \"#utility.yul\":7896:8022   */\n      swap2\n      swap1\n      pop\n      jump\t// out\n        /* \"#utility.yul\":8028:8124   */\n    tag_158:\n        /* \"#utility.yul\":8065:8072   */\n      0x00\n        /* \"#utility.yul\":8094:8118   */\n      tag_270\n        /* \"#utility.yul\":8112:8117   */\n      dup3\n        /* \"#utility.yul\":8094:8118   */\n      tag_157\n      jump\t// in\n    tag_270:\n        /* \"#utility.yul\":8083:8118   */\n      swap1\n      pop\n        /* \"#utility.yul\":8028:8124   */\n      swap2\n      swap1\n      pop\n      jump\t// out\n        /* \"#utility.yul\":8130:8252   */\n    tag_159:\n        /* \"#utility.yul\":8203:8227   */\n      tag_272\n        /* \"#utility.yul\":8221:8226   */\n      dup2\n        /* \"#utility.yul\":8203:8227   */\n      tag_158\n      jump\t// in\n    tag_272:\n        /* \"#utility.yul\":8196:8201   */\n      dup2\n        /* \"#utility.yul\":8193:8228   */\n      eq\n        /* \"#utility.yul\":8183:8246   */\n      tag_273\n      jumpi\n        /* \"#utility.yul\":8242:8243   */\n      0x00\n        /* \"#utility.yul\":8239:8240   */\n      dup1\n        /* \"#utility.yul\":8232:8244   */\n      revert\n        /* \"#utility.yul\":8183:8246   */\n    tag_273:\n        /* \"#utility.yul\":8130:8252   */\n      pop\n      jump\t// out\n        /* \"#utility.yul\":8258:8397   */\n    tag_160:\n        /* \"#utility.yul\":8304:8309   */\n      0x00\n        /* \"#utility.yul\":8342:8348   */\n      dup2\n        /* \"#utility.yul\":8329:8349   */\n      calldataload\n        /* \"#utility.yul\":8320:8349   */\n      swap1\n      pop\n        /* \"#utility.yul\":8358:8391   */\n      tag_275\n        /* \"#utility.yul\":8385:8390   */\n      dup2\n        /* \"#utility.yul\":8358:8391   */\n      tag_159\n      jump\t// in\n    tag_275:\n        /* \"#utility.yul\":8258:8397   */\n      swap3\n      swap2\n      pop\n      pop\n      jump\t// out\n        /* \"#utility.yul\":8403:8732   */\n    tag_29:\n        /* \"#utility.yul\":8462:8468   */\n      0x00\n        /* \"#utility.yul\":8511:8513   */\n      0x20\n        /* \"#utility.yul\":8499:8508   */\n      dup3\n        /* \"#utility.yul\":8490:8497   */\n      dup5\n        /* \"#utility.yul\":8486:8509   */\n      sub\n        /* \"#utility.yul\":8482:8514   */\n      slt\n        /* \"#utility.yul\":8479:8598   */\n      iszero\n      tag_277\n      jumpi\n        /* \"#utility.yul\":8517:8596   */\n      tag_278\n      tag_131\n      jump\t// in\n    tag_278:\n        /* \"#utility.yul\":8479:8598   */\n    tag_277:\n        /* \"#utility.yul\":8637:8638   */\n      0x00\n        /* \"#utility.yul\":8662:8715   */\n      tag_279\n        /* \"#utility.yul\":8707:8714   */\n      dup5\n        /* \"#utility.yul\":8698:8704   */\n      dup3\n        /* \"#utility.yul\":8687:8696   */\n      dup6\n        /* \"#utility.yul\":8683:8705   */\n      add\n        /* \"#utility.yul\":8662:8715   */\n      tag_160\n      jump\t// in\n    tag_279:\n        /* \"#utility.yul\":8652:8715   */\n      swap2\n      pop\n        /* \"#utility.yul\":8608:8725   */\n      pop\n        /* \"#utility.yul\":8403:8732   */\n      swap3\n      swap2\n      pop\n      pop\n      jump\t// out\n        /* \"#utility.yul\":8738:8828   */\n    tag_161:\n        /* \"#utility.yul\":8772:8779   */\n      0x00\n        /* \"#utility.yul\":8815:8820   */\n      dup2\n        /* \"#utility.yul\":8808:8821   */\n      iszero\n        /* \"#utility.yul\":8801:8822   */\n      iszero\n        /* \"#utility.yul\":8790:8822   */\n      swap1\n      pop\n        /* \"#utility.yul\":8738:8828   */\n      swap2\n      swap1\n      pop\n      jump\t// out\n        /* \"#utility.yul\":8834:8943   */\n    tag_162:\n        /* \"#utility.yul\":8915:8936   */\n      tag_282\n        /* \"#utility.yul\":8930:8935   */\n      dup2\n        /* \"#utility.yul\":8915:8936   */\n      tag_161\n      jump\t// in\n    tag_282:\n        /* \"#utility.yul\":8910:8913   */\n      dup3\n        /* \"#utility.yul\":8903:8937   */\n      mstore\n        /* \"#utility.yul\":8834:8943   */\n      pop\n      pop\n      jump\t// out\n        /* \"#utility.yul\":8949:9159   */\n    tag_32:\n        /* \"#utility.yul\":9036:9040   */\n      0x00\n        /* \"#utility.yul\":9074:9076   */\n      0x20\n        /* \"#utility.yul\":9063:9072   */\n      dup3\n        /* \"#utility.yul\":9059:9077   */\n      add\n        /* \"#utility.yul\":9051:9077   */\n      swap1\n      pop\n        /* \"#utility.yul\":9087:9152   */\n      tag_284\n        /* \"#utility.yul\":9149:9150   */\n      0x00\n        /* \"#utility.yul\":9138:9147   */\n      dup4\n        /* \"#utility.yul\":9134:9151   */\n      add\n        /* \"#utility.yul\":9125:9131   */\n      dup5\n        /* \"#utility.yul\":9087:9152   */\n      tag_162\n      jump\t// in\n    tag_284:\n        /* \"#utility.yul\":8949:9159   */\n      swap3\n      swap2\n      pop\n      pop\n      jump\t// out\n        /* \"#utility.yul\":9165:9334   */\n    tag_163:\n        /* \"#utility.yul\":9249:9260   */\n      0x00\n        /* \"#utility.yul\":9283:9289   */\n      dup3\n        /* \"#utility.yul\":9278:9281   */\n      dup3\n        /* \"#utility.yul\":9271:9290   */\n      mstore\n        /* \"#utility.yul\":9323:9327   */\n      0x20\n        /* \"#utility.yul\":9318:9321   */\n      dup3\n        /* \"#utility.yul\":9314:9328   */\n      add\n        /* \"#utility.yul\":9299:9328   */\n      swap1\n      pop\n        /* \"#utility.yul\":9165:9334   */\n      swap3\n      swap2\n      pop\n      pop\n      jump\t// out\n        /* \"#utility.yul\":9340:9717   */\n    tag_164:\n        /* \"#utility.yul\":9428:9431   */\n      0x00\n        /* \"#utility.yul\":9456:9495   */\n      tag_287\n        /* \"#utility.yul\":9489:9494   */\n      dup3\n        /* \"#utility.yul\":9456:9495   */\n      tag_145\n      jump\t// in\n    tag_287:\n        /* \"#utility.yul\":9511:9582   */\n      tag_288\n        /* \"#utility.yul\":9575:9581   */\n      dup2\n        /* \"#utility.yul\":9570:9573   */\n      dup6\n        /* \"#utility.yul\":9511:9582   */\n      tag_163\n      jump\t// in\n    tag_288:\n        /* \"#utility.yul\":9504:9582   */\n      swap4\n      pop\n        /* \"#utility.yul\":9591:9656   */\n      tag_289\n        /* \"#utility.yul\":9649:9655   */\n      dup2\n        /* \"#utility.yul\":9644:9647   */\n      dup6\n        /* \"#utility.yul\":9637:9641   */\n      0x20\n        /* \"#utility.yul\":9630:9635   */\n      dup7\n        /* \"#utility.yul\":9626:9642   */\n      add\n        /* \"#utility.yul\":9591:9656   */\n      tag_147\n      jump\t// in\n    tag_289:\n        /* \"#utility.yul\":9681:9710   */\n      tag_290\n        /* \"#utility.yul\":9703:9709   */\n      dup2\n        /* \"#utility.yul\":9681:9710   */\n      tag_135\n      jump\t// in\n    tag_290:\n        /* \"#utility.yul\":9676:9679   */\n      dup5\n        /* \"#utility.yul\":9672:9711   */\n      add\n        /* \"#utility.yul\":9665:9711   */\n      swap2\n      pop\n        /* \"#utility.yul\":9432:9717   */\n      pop\n        /* \"#utility.yul\":9340:9717   */\n      swap3\n      swap2\n      pop\n      pop\n      jump\t// out\n        /* \"#utility.yul\":9723:9841   */\n    tag_165:\n        /* \"#utility.yul\":9810:9834   */\n      tag_292\n        /* \"#utility.yul\":9828:9833   */\n      dup2\n        /* \"#utility.yul\":9810:9834   */\n      tag_149\n      jump\t// in\n    tag_292:\n        /* \"#utility.yul\":9805:9808   */\n      dup3\n        /* \"#utility.yul\":9798:9835   */\n      mstore\n        /* \"#utility.yul\":9723:9841   */\n      pop\n      pop\n      jump\t// out\n        /* \"#utility.yul\":9847:10270   */\n    tag_37:\n        /* \"#utility.yul\":9988:9992   */\n      0x00\n        /* \"#utility.yul\":10026:10028   */\n      0x40\n        /* \"#utility.yul\":10015:10024   */\n      dup3\n        /* \"#utility.yul\":10011:10029   */\n      add\n        /* \"#utility.yul\":10003:10029   */\n      swap1\n      pop\n        /* \"#utility.yul\":10075:10084   */\n      dup2\n        /* \"#utility.yul\":10069:10073   */\n      dup2\n        /* \"#utility.yul\":10065:10085   */\n      sub\n        /* \"#utility.yul\":10061:10062   */\n      0x00\n        /* \"#utility.yul\":10050:10059   */\n      dup4\n        /* \"#utility.yul\":10046:10063   */\n      add\n        /* \"#utility.yul\":10039:10086   */\n      mstore\n        /* \"#utility.yul\":10103:10181   */\n      tag_294\n        /* \"#utility.yul\":10176:10180   */\n      dup2\n        /* \"#utility.yul\":10167:10173   */\n      dup6\n        /* \"#utility.yul\":10103:10181   */\n      tag_164\n      jump\t// in\n    tag_294:\n        /* \"#utility.yul\":10095:10181   */\n      swap1\n      pop\n        /* \"#utility.yul\":10191:10263   */\n      tag_295\n        /* \"#utility.yul\":10259:10261   */\n      0x20\n        /* \"#utility.yul\":10248:10257   */\n      dup4\n        /* \"#utility.yul\":10244:10262   */\n      add\n        /* \"#utility.yul\":10235:10241   */\n      dup5\n        /* \"#utility.yul\":10191:10263   */\n      tag_165\n      jump\t// in\n    tag_295:\n        /* \"#utility.yul\":9847:10270   */\n      swap4\n      swap3\n      pop\n      pop\n      pop\n      jump\t// out\n        /* \"#utility.yul\":10276:10394   */\n    tag_166:\n        /* \"#utility.yul\":10363:10387   */\n      tag_297\n        /* \"#utility.yul\":10381:10386   */\n      dup2\n        /* \"#utility.yul\":10363:10387   */\n      tag_158\n      jump\t// in\n    tag_297:\n        /* \"#utility.yul\":10358:10361   */\n      dup3\n        /* \"#utility.yul\":10351:10388   */\n      mstore\n        /* \"#utility.yul\":10276:10394   */\n      pop\n      pop\n      jump\t// out\n        /* \"#utility.yul\":10400:10622   */\n    tag_45:\n        /* \"#utility.yul\":10493:10497   */\n      0x00\n        /* \"#utility.yul\":10531:10533   */\n      0x20\n        /* \"#utility.yul\":10520:10529   */\n      dup3\n        /* \"#utility.yul\":10516:10534   */\n      add\n        /* \"#utility.yul\":10508:10534   */\n      swap1\n      pop\n        /* \"#utility.yul\":10544:10615   */\n      tag_299\n        /* \"#utility.yul\":10612:10613   */\n      0x00\n        /* \"#utility.yul\":10601:10610   */\n      dup4\n        /* \"#utility.yul\":10597:10614   */\n      add\n        /* \"#utility.yul\":10588:10594   */\n      dup5\n        /* \"#utility.yul\":10544:10615   */\n      tag_166\n      jump\t// in\n    tag_299:\n        /* \"#utility.yul\":10400:10622   */\n      swap3\n      swap2\n      pop\n      pop\n      jump\t// out\n        /* \"#utility.yul\":10628:10850   */\n    tag_56:\n        /* \"#utility.yul\":10721:10725   */\n      0x00\n        /* \"#utility.yul\":10759:10761   */\n      0x20\n        /* \"#utility.yul\":10748:10757   */\n      dup3\n        /* \"#utility.yul\":10744:10762   */\n      add\n        /* \"#utility.yul\":10736:10762   */\n      swap1\n      pop\n        /* \"#utility.yul\":10772:10843   */\n      tag_301\n        /* \"#utility.yul\":10840:10841   */\n      0x00\n        /* \"#utility.yul\":10829:10838   */\n      dup4\n        /* \"#utility.yul\":10825:10842   */\n      add\n        /* \"#utility.yul\":10816:10822   */\n      dup5\n        /* \"#utility.yul\":10772:10843   */\n      tag_165\n      jump\t// in\n    tag_301:\n        /* \"#utility.yul\":10628:10850   */\n      swap3\n      swap2\n      pop\n      pop\n      jump\t// out\n        /* \"#utility.yul\":10856:11091   */\n    tag_167:\n        /* \"#utility.yul\":10996:11030   */\n      0x536f6c6f20656c2070726f706965746172696f20707565646520656a65637574\n        /* \"#utility.yul\":10992:10993   */\n      0x00\n        /* \"#utility.yul\":10984:10990   */\n      dup3\n        /* \"#utility.yul\":10980:10994   */\n      add\n        /* \"#utility.yul\":10973:11031   */\n      mstore\n        /* \"#utility.yul\":11065:11083   */\n      0x617220657374612066756e63696f6e2e00000000000000000000000000000000\n        /* \"#utility.yul\":11060:11062   */\n      0x20\n        /* \"#utility.yul\":11052:11058   */\n      dup3\n        /* \"#utility.yul\":11048:11063   */\n      add\n        /* \"#utility.yul\":11041:11084   */\n      mstore\n        /* \"#utility.yul\":10856:11091   */\n      pop\n      jump\t// out\n        /* \"#utility.yul\":11097:11463   */\n    tag_168:\n        /* \"#utility.yul\":11239:11242   */\n      0x00\n        /* \"#utility.yul\":11260:11327   */\n      tag_304\n        /* \"#utility.yul\":11324:11326   */\n      0x30\n        /* \"#utility.yul\":11319:11322   */\n      dup4\n        /* \"#utility.yul\":11260:11327   */\n      tag_163\n      jump\t// in\n    tag_304:\n        /* \"#utility.yul\":11253:11327   */\n      swap2\n      pop\n        /* \"#utility.yul\":11336:11429   */\n      tag_305\n        /* \"#utility.yul\":11425:11428   */\n      dup3\n        /* \"#utility.yul\":11336:11429   */\n      tag_167\n      jump\t// in\n    tag_305:\n        /* \"#utility.yul\":11454:11456   */\n      0x40\n        /* \"#utility.yul\":11449:11452   */\n      dup3\n        /* \"#utility.yul\":11445:11457   */\n      add\n        /* \"#utility.yul\":11438:11457   */\n      swap1\n      pop\n        /* \"#utility.yul\":11097:11463   */\n      swap2\n      swap1\n      pop\n      jump\t// out\n        /* \"#utility.yul\":11469:11888   */\n    tag_63:\n        /* \"#utility.yul\":11635:11639   */\n      0x00\n        /* \"#utility.yul\":11673:11675   */\n      0x20\n        /* \"#utility.yul\":11662:11671   */\n      dup3\n        /* \"#utility.yul\":11658:11676   */\n      add\n        /* \"#utility.yul\":11650:11676   */\n      swap1\n      pop\n        /* \"#utility.yul\":11722:11731   */\n      dup2\n        /* \"#utility.yul\":11716:11720   */\n      dup2\n        /* \"#utility.yul\":11712:11732   */\n      sub\n        /* \"#utility.yul\":11708:11709   */\n      0x00\n        /* \"#utility.yul\":11697:11706   */\n      dup4\n        /* \"#utility.yul\":11693:11710   */\n      add\n        /* \"#utility.yul\":11686:11733   */\n      mstore\n        /* \"#utility.yul\":11750:11881   */\n      tag_307\n        /* \"#utility.yul\":11876:11880   */\n      dup2\n        /* \"#utility.yul\":11750:11881   */\n      tag_168\n      jump\t// in\n    tag_307:\n        /* \"#utility.yul\":11742:11881   */\n      swap1\n      pop\n        /* \"#utility.yul\":11469:11888   */\n      swap2\n      swap1\n      pop\n      jump\t// out\n        /* \"#utility.yul\":11894:12074   */\n    tag_169:\n        /* \"#utility.yul\":11942:12019   */\n      0x4e487b7100000000000000000000000000000000000000000000000000000000\n        /* \"#utility.yul\":11939:11940   */\n      0x00\n        /* \"#utility.yul\":11932:12020   */\n      mstore\n        /* \"#utility.yul\":12039:12043   */\n      0x22\n        /* \"#utility.yul\":12036:12037   */\n      0x04\n        /* \"#utility.yul\":12029:12044   */\n      mstore\n        /* \"#utility.yul\":12063:12067   */\n      0x24\n        /* \"#utility.yul\":12060:12061   */\n      0x00\n        /* \"#utility.yul\":12053:12068   */\n      revert\n        /* \"#utility.yul\":12080:12400   */\n    tag_84:\n        /* \"#utility.yul\":12124:12130   */\n      0x00\n        /* \"#utility.yul\":12161:12162   */\n      0x02\n        /* \"#utility.yul\":12155:12159   */\n      dup3\n        /* \"#utility.yul\":12151:12163   */\n      div\n        /* \"#utility.yul\":12141:12163   */\n      swap1\n      pop\n        /* \"#utility.yul\":12208:12209   */\n      0x01\n        /* \"#utility.yul\":12202:12206   */\n      dup3\n        /* \"#utility.yul\":12198:12210   */\n      and\n        /* \"#utility.yul\":12229:12247   */\n      dup1\n        /* \"#utility.yul\":12219:12300   */\n      tag_310\n      jumpi\n        /* \"#utility.yul\":12285:12289   */\n      0x7f\n        /* \"#utility.yul\":12277:12283   */\n      dup3\n        /* \"#utility.yul\":12273:12290   */\n      and\n        /* \"#utility.yul\":12263:12290   */\n      swap2\n      pop\n        /* \"#utility.yul\":12219:12300   */\n    tag_310:\n        /* \"#utility.yul\":12347:12349   */\n      0x20\n        /* \"#utility.yul\":12339:12345   */\n      dup3\n        /* \"#utility.yul\":12336:12350   */\n      lt\n        /* \"#utility.yul\":12316:12334   */\n      dup2\n        /* \"#utility.yul\":12313:12351   */\n      sub\n        /* \"#utility.yul\":12310:12394   */\n      tag_311\n      jumpi\n        /* \"#utility.yul\":12366:12384   */\n      tag_312\n      tag_169\n      jump\t// in\n    tag_312:\n        /* \"#utility.yul\":12310:12394   */\n    tag_311:\n        /* \"#utility.yul\":12131:12400   */\n      pop\n        /* \"#utility.yul\":12080:12400   */\n      swap2\n      swap1\n      pop\n      jump\t// out\n        /* \"#utility.yul\":12406:12547   */\n    tag_170:\n        /* \"#utility.yul\":12455:12459   */\n      0x00\n        /* \"#utility.yul\":12478:12481   */\n      dup2\n        /* \"#utility.yul\":12470:12481   */\n      swap1\n      pop\n        /* \"#utility.yul\":12501:12504   */\n      dup2\n        /* \"#utility.yul\":12498:12499   */\n      0x00\n        /* \"#utility.yul\":12491:12505   */\n      mstore\n        /* \"#utility.yul\":12535:12539   */\n      0x20\n        /* \"#utility.yul\":12532:12533   */\n      0x00\n        /* \"#utility.yul\":12522:12540   */\n      keccak256\n        /* \"#utility.yul\":12514:12540   */\n      swap1\n      pop\n        /* \"#utility.yul\":12406:12547   */\n      swap2\n      swap1\n      pop\n      jump\t// out\n        /* \"#utility.yul\":12553:12646   */\n    tag_171:\n        /* \"#utility.yul\":12590:12596   */\n      0x00\n        /* \"#utility.yul\":12637:12639   */\n      0x20\n        /* \"#utility.yul\":12632:12634   */\n      0x1f\n        /* \"#utility.yul\":12625:12630   */\n      dup4\n        /* \"#utility.yul\":12621:12635   */\n      add\n        /* \"#utility.yul\":12617:12640   */\n      div\n        /* \"#utility.yul\":12607:12640   */\n      swap1\n      pop\n        /* \"#utility.yul\":12553:12646   */\n      swap2\n      swap1\n      pop\n      jump\t// out\n        /* \"#utility.yul\":12652:12759   */\n    tag_172:\n        /* \"#utility.yul\":12696:12704   */\n      0x00\n        /* \"#utility.yul\":12746:12751   */\n      dup3\n        /* \"#utility.yul\":12740:12744   */\n      dup3\n        /* \"#utility.yul\":12736:12752   */\n      shl\n        /* \"#utility.yul\":12715:12752   */\n      swap1\n      pop\n        /* \"#utility.yul\":12652:12759   */\n      swap3\n      swap2\n      pop\n      pop\n      jump\t// out\n        /* \"#utility.yul\":12765:13158   */\n    tag_173:\n        /* \"#utility.yul\":12834:12840   */\n      0x00\n        /* \"#utility.yul\":12884:12885   */\n      0x08\n        /* \"#utility.yul\":12872:12882   */\n      dup4\n        /* \"#utility.yul\":12868:12886   */\n      mul\n        /* \"#utility.yul\":12907:13004   */\n      tag_317\n        /* \"#utility.yul\":12937:13003   */\n      0xffffffffffffffffffffffffffffffffffffffffffffffffffffffffffffffff\n        /* \"#utility.yul\":12926:12935   */\n      dup3\n        /* \"#utility.yul\":12907:13004   */\n      tag_172\n      jump\t// in\n    tag_317:\n        /* \"#utility.yul\":13025:13064   */\n      tag_318\n        /* \"#utility.yul\":13055:13063   */\n      dup7\n        /* \"#utility.yul\":13044:13053   */\n      dup4\n        /* \"#utility.yul\":13025:13064   */\n      tag_172\n      jump\t// in\n    tag_318:\n        /* \"#utility.yul\":13013:13064   */\n      swap6\n      pop\n        /* \"#utility.yul\":13097:13101   */\n      dup1\n        /* \"#utility.yul\":13093:13102   */\n      not\n        /* \"#utility.yul\":13086:13091   */\n      dup5\n        /* \"#utility.yul\":13082:13103   */\n      and\n        /* \"#utility.yul\":13073:13103   */\n      swap4\n      pop\n        /* \"#utility.yul\":13146:13150   */\n      dup1\n        /* \"#utility.yul\":13136:13144   */\n      dup7\n        /* \"#utility.yul\":13132:13151   */\n      and\n        /* \"#utility.yul\":13125:13130   */\n      dup5\n        /* \"#utility.yul\":13122:13152   */\n      or\n        /* \"#utility.yul\":13112:13152   */\n      swap3\n      pop\n        /* \"#utility.yul\":12841:13158   */\n      pop\n      pop\n        /* \"#utility.yul\":12765:13158   */\n      swap4\n      swap3\n      pop\n      pop\n      pop\n      jump\t// out\n        /* \"#utility.yul\":13164:13224   */\n    tag_174:\n        /* \"#utility.yul\":13192:13195   */\n      0x00\n        /* \"#utility.yul\":13213:13218   */\n      dup2\n        /* \"#utility.yul\":13206:13218   */\n      swap1\n      pop\n        /* \"#utility.yul\":13164:13224   */\n      swap2\n      swap1\n      pop\n      jump\t// out\n        /* \"#utility.yul\":13230:13372   */\n    tag_175:\n        /* \"#utility.yul\":13280:13289   */\n      0x00\n        /* \"#utility.yul\":13313:13366   */\n      tag_321\n        /* \"#utility.yul\":13331:13365   */\n      tag_322\n        /* \"#utility.yul\":13340:13364   */\n      tag_323\n        /* \"#utility.yul\":13358:13363   */\n      dup5\n        /* \"#utility.yul\":13340:13364   */\n      tag_149\n      jump\t// in\n    tag_323:\n        /* \"#utility.yul\":13331:13365   */\n      tag_174\n      jump\t// in\n    tag_322:\n        /* \"#utility.yul\":13313:13366   */\n      tag_149\n      jump\t// in\n    tag_321:\n        /* \"#utility.yul\":13300:13366   */\n      swap1\n      pop\n        /* \"#utility.yul\":13230:13372   */\n      swap2\n      swap1\n      pop\n      jump\t// out\n        /* \"#utility.yul\":13378:13453   */\n    tag_176:\n        /* \"#utility.yul\":13421:13424   */\n      0x00\n        /* \"#utility.yul\":13442:13447   */\n      dup2\n        /* \"#utility.yul\":13435:13447   */\n      swap1\n      pop\n        /* \"#utility.yul\":13378:13453   */\n      swap2\n      swap1\n      pop\n      jump\t// out\n        /* \"#utility.yul\":13459:13728   */\n    tag_177:\n        /* \"#utility.yul\":13569:13608   */\n      tag_326\n        /* \"#utility.yul\":13600:13607   */\n      dup4\n        /* \"#utility.yul\":13569:13608   */\n      tag_175\n      jump\t// in\n    tag_326:\n        /* \"#utility.yul\":13630:13721   */\n      tag_327\n        /* \"#utility.yul\":13679:13720   */\n      tag_328\n        /* \"#utility.yul\":13703:13719   */\n      dup3\n        /* \"#utility.yul\":13679:13720   */\n      tag_176\n      jump\t// in\n    tag_328:\n        /* \"#utility.yul\":13671:13677   */\n      dup5\n        /* \"#utility.yul\":13664:13668   */\n      dup5\n        /* \"#utility.yul\":13658:13669   */\n      sload\n        /* \"#utility.yul\":13630:13721   */\n      tag_173\n      jump\t// in\n    tag_327:\n        /* \"#utility.yul\":13624:13628   */\n      dup3\n        /* \"#utility.yul\":13617:13722   */\n      sstore\n        /* \"#utility.yul\":13535:13728   */\n      pop\n        /* \"#utility.yul\":13459:13728   */\n      pop\n      pop\n      pop\n      jump\t// out\n        /* \"#utility.yul\":13734:13807   */\n    tag_178:\n        /* \"#utility.yul\":13779:13782   */\n      0x00\n        /* \"#utility.yul\":13734:13807   */\n      swap1\n      jump\t// out\n        /* \"#utility.yul\":13813:14002   */\n    tag_179:\n        /* \"#utility.yul\":13890:13922   */\n      tag_331\n      tag_178\n      jump\t// in\n    tag_331:\n        /* \"#utility.yul\":13931:13996   */\n      tag_332\n        /* \"#utility.yul\":13989:13995   */\n      dup2\n        /* \"#utility.yul\":13981:13987   */\n      dup5\n        /* \"#utility.yul\":13975:13979   */\n      dup5\n        /* \"#utility.yul\":13931:13996   */\n      tag_177\n      jump\t// in\n    tag_332:\n        /* \"#utility.yul\":13866:14002   */\n      pop\n        /* \"#utility.yul\":13813:14002   */\n      pop\n      pop\n      jump\t// out\n        /* \"#utility.yul\":14008:14194   */\n    tag_180:\n        /* \"#utility.yul\":14068:14188   */\n    tag_334:\n        /* \"#utility.yul\":14085:14088   */\n      dup2\n        /* \"#utility.yul\":14078:14083   */\n      dup2\n        /* \"#utility.yul\":14075:14089   */\n      lt\n        /* \"#utility.yul\":14068:14188   */\n      iszero\n      tag_336\n      jumpi\n        /* \"#utility.yul\":14139:14178   */\n      tag_337\n        /* \"#utility.yul\":14176:14177   */\n      0x00\n        /* \"#utility.yul\":14169:14174   */\n      dup3\n        /* \"#utility.yul\":14139:14178   */\n      tag_179\n      jump\t// in\n    tag_337:\n        /* \"#utility.yul\":14112:14113   */\n      0x01\n        /* \"#utility.yul\":14105:14110   */\n      dup2\n        /* \"#utility.yul\":14101:14114   */\n      add\n        /* \"#utility.yul\":14092:14114   */\n      swap1\n      pop\n        /* \"#utility.yul\":14068:14188   */\n      jump(tag_334)\n    tag_336:\n        /* \"#utility.yul\":14008:14194   */\n      pop\n      pop\n      jump\t// out\n        /* \"#utility.yul\":14200:14743   */\n    tag_181:\n        /* \"#utility.yul\":14301:14303   */\n      0x1f\n        /* \"#utility.yul\":14296:14299   */\n      dup3\n        /* \"#utility.yul\":14293:14304   */\n      gt\n        /* \"#utility.yul\":14290:14736   */\n      iszero\n      tag_339\n      jumpi\n        /* \"#utility.yul\":14335:14373   */\n      tag_340\n        /* \"#utility.yul\":14367:14372   */\n      dup2\n        /* \"#utility.yul\":14335:14373   */\n      tag_170\n      jump\t// in\n    tag_340:\n        /* \"#utility.yul\":14419:14448   */\n      tag_341\n        /* \"#utility.yul\":14437:14447   */\n      dup5\n        /* \"#utility.yul\":14419:14448   */\n      tag_171\n      jump\t// in\n    tag_341:\n        /* \"#utility.yul\":14409:14417   */\n      dup2\n        /* \"#utility.yul\":14405:14449   */\n      add\n        /* \"#utility.yul\":14602:14604   */\n      0x20\n        /* \"#utility.yul\":14590:14600   */\n      dup6\n        /* \"#utility.yul\":14587:14605   */\n      lt\n        /* \"#utility.yul\":14584:14633   */\n      iszero\n      tag_342\n      jumpi\n        /* \"#utility.yul\":14623:14631   */\n      dup2\n        /* \"#utility.yul\":14608:14631   */\n      swap1\n      pop\n        /* \"#utility.yul\":14584:14633   */\n    tag_342:\n        /* \"#utility.yul\":14646:14726   */\n      tag_343\n        /* \"#utility.yul\":14702:14724   */\n      tag_344\n        /* \"#utility.yul\":14720:14723   */\n      dup6\n        /* \"#utility.yul\":14702:14724   */\n      tag_171\n      jump\t// in\n    tag_344:\n        /* \"#utility.yul\":14692:14700   */\n      dup4\n        /* \"#utility.yul\":14688:14725   */\n      add\n        /* \"#utility.yul\":14675:14686   */\n      dup3\n        /* \"#utility.yul\":14646:14726   */\n      tag_180\n      jump\t// in\n    tag_343:\n        /* \"#utility.yul\":14305:14736   */\n      pop\n      pop\n        /* \"#utility.yul\":14290:14736   */\n    tag_339:\n        /* \"#utility.yul\":14200:14743   */\n      pop\n      pop\n      pop\n      jump\t// out\n        /* \"#utility.yul\":14749:14866   */\n    tag_182:\n        /* \"#utility.yul\":14803:14811   */\n      0x00\n        /* \"#utility.yul\":14853:14858   */\n      dup3\n        /* \"#utility.yul\":14847:14851   */\n      dup3\n        /* \"#utility.yul\":14843:14859   */\n      shr\n        /* \"#utility.yul\":14822:14859   */\n      swap1\n      pop\n        /* \"#utility.yul\":14749:14866   */\n      swap3\n      swap2\n      pop\n      pop\n      jump\t// out\n        /* \"#utility.yul\":14872:15041   */\n    tag_183:\n        /* \"#utility.yul\":14916:14922   */\n      0x00\n        /* \"#utility.yul\":14949:15000   */\n      tag_347\n        /* \"#utility.yul\":14997:14998   */\n      0x00\n        /* \"#utility.yul\":14993:14999   */\n      not\n        /* \"#utility.yul\":14985:14990   */\n      dup5\n        /* \"#utility.yul\":14982:14983   */\n      0x08\n        /* \"#utility.yul\":14978:14991   */\n      mul\n        /* \"#utility.yul\":14949:15000   */\n      tag_182\n      jump\t// in\n    tag_347:\n        /* \"#utility.yul\":14945:15001   */\n      not\n        /* \"#utility.yul\":15030:15034   */\n      dup1\n        /* \"#utility.yul\":15024:15028   */\n      dup4\n        /* \"#utility.yul\":15020:15035   */\n      and\n        /* \"#utility.yul\":15010:15035   */\n      swap2\n      pop\n        /* \"#utility.yul\":14923:15041   */\n      pop\n        /* \"#utility.yul\":14872:15041   */\n      swap3\n      swap2\n      pop\n      pop\n      jump\t// out\n        /* \"#utility.yul\":15046:15341   */\n    tag_184:\n        /* \"#utility.yul\":15122:15126   */\n      0x00\n        /* \"#utility.yul\":15268:15297   */\n      tag_349\n        /* \"#utility.yul\":15293:15296   */\n      dup4\n        /* \"#utility.yul\":15287:15291   */\n      dup4\n        /* \"#utility.yul\":15268:15297   */\n      tag_183\n      jump\t// in\n    tag_349:\n        /* \"#utility.yul\":15260:15297   */\n      swap2\n      pop\n        /* \"#utility.yul\":15330:15333   */\n      dup3\n        /* \"#utility.yul\":15327:15328   */\n      0x02\n        /* \"#utility.yul\":15323:15334   */\n      mul\n        /* \"#utility.yul\":15317:15321   */\n      dup3\n        /* \"#utility.yul\":15314:15335   */\n      or\n        /* \"#utility.yul\":15306:15335   */\n      swap1\n      pop\n        /* \"#utility.yul\":15046:15341   */\n      swap3\n      swap2\n      pop\n      pop\n      jump\t// out\n        /* \"#utility.yul\":15346:16741   */\n    tag_67:\n        /* \"#utility.yul\":15463:15500   */\n      tag_351\n        /* \"#utility.yul\":15496:15499   */\n      dup3\n        /* \"#utility.yul\":15463:15500   */\n      tag_145\n      jump\t// in\n    tag_351:\n        /* \"#utility.yul\":15565:15583   */\n      0xffffffffffffffff\n        /* \"#utility.yul\":15557:15563   */\n      dup2\n        /* \"#utility.yul\":15554:15584   */\n      gt\n        /* \"#utility.yul\":15551:15607   */\n      iszero\n      tag_352\n      jumpi\n        /* \"#utility.yul\":15587:15605   */\n      tag_353\n      tag_71\n      jump\t// in\n    tag_353:\n        /* \"#utility.yul\":15551:15607   */\n    tag_352:\n        /* \"#utility.yul\":15631:15669   */\n      tag_354\n        /* \"#utility.yul\":15663:15667   */\n      dup3\n        /* \"#utility.yul\":15657:15668   */\n      sload\n        /* \"#utility.yul\":15631:15669   */\n      tag_84\n      jump\t// in\n    tag_354:\n        /* \"#utility.yul\":15716:15783   */\n      tag_355\n        /* \"#utility.yul\":15776:15782   */\n      dup3\n        /* \"#utility.yul\":15768:15774   */\n      dup3\n        /* \"#utility.yul\":15762:15766   */\n      dup6\n        /* \"#utility.yul\":15716:15783   */\n      tag_181\n      jump\t// in\n    tag_355:\n        /* \"#utility.yul\":15810:15811   */\n      0x00\n        /* \"#utility.yul\":15834:15838   */\n      0x20\n        /* \"#utility.yul\":15821:15838   */\n      swap1\n      pop\n        /* \"#utility.yul\":15866:15868   */\n      0x1f\n        /* \"#utility.yul\":15858:15864   */\n      dup4\n        /* \"#utility.yul\":15855:15869   */\n      gt\n        /* \"#utility.yul\":15883:15884   */\n      0x01\n        /* \"#utility.yul\":15878:16496   */\n      dup2\n      eq\n      tag_357\n      jumpi\n        /* \"#utility.yul\":16540:16541   */\n      0x00\n        /* \"#utility.yul\":16557:16563   */\n      dup5\n        /* \"#utility.yul\":16554:16631   */\n      iszero\n      tag_358\n      jumpi\n        /* \"#utility.yul\":16606:16615   */\n      dup3\n        /* \"#utility.yul\":16601:16604   */\n      dup8\n        /* \"#utility.yul\":16597:16616   */\n      add\n        /* \"#utility.yul\":16591:16617   */\n      mload\n        /* \"#utility.yul\":16582:16617   */\n      swap1\n      pop\n        /* \"#utility.yul\":16554:16631   */\n    tag_358:\n        /* \"#utility.yul\":16657:16724   */\n      tag_359\n        /* \"#utility.yul\":16717:16723   */\n      dup6\n        /* \"#utility.yul\":16710:16715   */\n      dup3\n        /* \"#utility.yul\":16657:16724   */\n      tag_184\n      jump\t// in\n    tag_359:\n        /* \"#utility.yul\":16651:16655   */\n      dup7\n        /* \"#utility.yul\":16644:16725   */\n      sstore\n        /* \"#utility.yul\":16513:16735   */\n      pop\n        /* \"#utility.yul\":15848:16735   */\n      jump(tag_356)\n        /* \"#utility.yul\":15878:16496   */\n    tag_357:\n        /* \"#utility.yul\":15930:15934   */\n      0x1f\n        /* \"#utility.yul\":15926:15935   */\n      not\n        /* \"#utility.yul\":15918:15924   */\n      dup5\n        /* \"#utility.yul\":15914:15936   */\n      and\n        /* \"#utility.yul\":15964:16001   */\n      tag_360\n        /* \"#utility.yul\":15996:16000   */\n      dup7\n        /* \"#utility.yul\":15964:16001   */\n      tag_170\n      jump\t// in\n    tag_360:\n        /* \"#utility.yul\":16023:16024   */\n      0x00\n        /* \"#utility.yul\":16037:16245   */\n    tag_361:\n        /* \"#utility.yul\":16051:16058   */\n      dup3\n        /* \"#utility.yul\":16048:16049   */\n      dup2\n        /* \"#utility.yul\":16045:16059   */\n      lt\n        /* \"#utility.yul\":16037:16245   */\n      iszero\n      tag_363\n      jumpi\n        /* \"#utility.yul\":16130:16139   */\n      dup5\n        /* \"#utility.yul\":16125:16128   */\n      dup10\n        /* \"#utility.yul\":16121:16140   */\n      add\n        /* \"#utility.yul\":16115:16141   */\n      mload\n        /* \"#utility.yul\":16107:16113   */\n      dup3\n        /* \"#utility.yul\":16100:16142   */\n      sstore\n        /* \"#utility.yul\":16181:16182   */\n      0x01\n        /* \"#utility.yul\":16173:16179   */\n      dup3\n        /* \"#utility.yul\":16169:16183   */\n      add\n        /* \"#utility.yul\":16159:16183   */\n      swap2\n      pop\n        /* \"#utility.yul\":16228:16230   */\n      0x20\n        /* \"#utility.yul\":16217:16226   */\n      dup6\n        /* \"#utility.yul\":16213:16231   */\n      add\n        /* \"#utility.yul\":16200:16231   */\n      swap5\n      pop\n        /* \"#utility.yul\":16074:16078   */\n      0x20\n        /* \"#utility.yul\":16071:16072   */\n      dup2\n        /* \"#utility.yul\":16067:16079   */\n      add\n        /* \"#utility.yul\":16062:16079   */\n      swap1\n      pop\n        /* \"#utility.yul\":16037:16245   */\n      jump(tag_361)\n    tag_363:\n        /* \"#utility.yul\":16273:16279   */\n      dup7\n        /* \"#utility.yul\":16264:16271   */\n      dup4\n        /* \"#utility.yul\":16261:16280   */\n      lt\n        /* \"#utility.yul\":16258:16437   */\n      iszero\n      tag_364\n      jumpi\n        /* \"#utility.yul\":16331:16340   */\n      dup5\n        /* \"#utility.yul\":16326:16329   */\n      dup10\n        /* \"#utility.yul\":16322:16341   */\n      add\n        /* \"#utility.yul\":16316:16342   */\n      mload\n        /* \"#utility.yul\":16374:16422   */\n      tag_365\n        /* \"#utility.yul\":16416:16420   */\n      0x1f\n        /* \"#utility.yul\":16408:16414   */\n      dup10\n        /* \"#utility.yul\":16404:16421   */\n      and\n        /* \"#utility.yul\":16393:16402   */\n      dup3\n        /* \"#utility.yul\":16374:16422   */\n      tag_183\n      jump\t// in\n    tag_365:\n        /* \"#utility.yul\":16366:16372   */\n      dup4\n        /* \"#utility.yul\":16359:16423   */\n      sstore\n        /* \"#utility.yul\":16281:16437   */\n      pop\n        /* \"#utility.yul\":16258:16437   */\n    tag_364:\n        /* \"#utility.yul\":16483:16484   */\n      0x01\n        /* \"#utility.yul\":16479:16480   */\n      0x02\n        /* \"#utility.yul\":16471:16477   */\n      dup9\n        /* \"#utility.yul\":16467:16481   */\n      mul\n        /* \"#utility.yul\":16463:16485   */\n      add\n        /* \"#utility.yul\":16457:16461   */\n      dup9\n        /* \"#utility.yul\":16450:16486   */\n      sstore\n        /* \"#utility.yul\":15885:16496   */\n      pop\n      pop\n      pop\n        /* \"#utility.yul\":15848:16735   */\n    tag_356:\n      pop\n        /* \"#utility.yul\":15438:16741   */\n      pop\n      pop\n      pop\n        /* \"#utility.yul\":15346:16741   */\n      pop\n      pop\n      jump\t// out\n        /* \"#utility.yul\":16747:16927   */\n    tag_81:\n        /* \"#utility.yul\":16795:16872   */\n      0x4e487b7100000000000000000000000000000000000000000000000000000000\n        /* \"#utility.yul\":16792:16793   */\n      0x00\n        /* \"#utility.yul\":16785:16873   */\n      mstore\n        /* \"#utility.yul\":16892:16896   */\n      0x32\n        /* \"#utility.yul\":16889:16890   */\n      0x04\n        /* \"#utility.yul\":16882:16897   */\n      mstore\n        /* \"#utility.yul\":16916:16920   */\n      0x24\n        /* \"#utility.yul\":16913:16914   */\n      0x00\n        /* \"#utility.yul\":16906:16921   */\n      revert\n        /* \"#utility.yul\":16933:17163   */\n    tag_185:\n        /* \"#utility.yul\":17073:17107   */\n      0x536f6c6f206c617320706572736f6e6173206175746f72697a61646173207075\n        /* \"#utility.yul\":17069:17070   */\n      0x00\n        /* \"#utility.yul\":17061:17067   */\n      dup3\n        /* \"#utility.yul\":17057:17071   */\n      add\n        /* \"#utility.yul\":17050:17108   */\n      mstore\n        /* \"#utility.yul\":17142:17155   */\n      0x6564656e20766f7461722e000000000000000000000000000000000000000000\n        /* \"#utility.yul\":17137:17139   */\n      0x20\n        /* \"#utility.yul\":17129:17135   */\n      dup3\n        /* \"#utility.yul\":17125:17140   */\n      add\n        /* \"#utility.yul\":17118:17156   */\n      mstore\n        /* \"#utility.yul\":16933:17163   */\n      pop\n      jump\t// out\n        /* \"#utility.yul\":17169:17535   */\n    tag_186:\n        /* \"#utility.yul\":17311:17314   */\n      0x00\n        /* \"#utility.yul\":17332:17399   */\n      tag_369\n        /* \"#utility.yul\":17396:17398   */\n      0x2b\n        /* \"#utility.yul\":17391:17394   */\n      dup4\n        /* \"#utility.yul\":17332:17399   */\n      tag_163\n      jump\t// in\n    tag_369:\n        /* \"#utility.yul\":17325:17399   */\n      swap2\n      pop\n        /* \"#utility.yul\":17408:17501   */\n      tag_370\n        /* \"#utility.yul\":17497:17500   */\n      dup3\n        /* \"#utility.yul\":17408:17501   */\n      tag_185\n      jump\t// in\n    tag_370:\n        /* \"#utility.yul\":17526:17528   */\n      0x40\n        /* \"#utility.yul\":17521:17524   */\n      dup3\n        /* \"#utility.yul\":17517:17529   */\n      add\n        /* \"#utility.yul\":17510:17529   */\n      swap1\n      pop\n        /* \"#utility.yul\":17169:17535   */\n      swap2\n      swap1\n      pop\n      jump\t// out\n        /* \"#utility.yul\":17541:17960   */\n    tag_94:\n        /* \"#utility.yul\":17707:17711   */\n      0x00\n        /* \"#utility.yul\":17745:17747   */\n      0x20\n        /* \"#utility.yul\":17734:17743   */\n      dup3\n        /* \"#utility.yul\":17730:17748   */\n      add\n        /* \"#utility.yul\":17722:17748   */\n      swap1\n      pop\n        /* \"#utility.yul\":17794:17803   */\n      dup2\n        /* \"#utility.yul\":17788:17792   */\n      dup2\n        /* \"#utility.yul\":17784:17804   */\n      sub\n        /* \"#utility.yul\":17780:17781   */\n      0x00\n        /* \"#utility.yul\":17769:17778   */\n      dup4\n        /* \"#utility.yul\":17765:17782   */\n      add\n        /* \"#utility.yul\":17758:17805   */\n      mstore\n        /* \"#utility.yul\":17822:17953   */\n      tag_372\n        /* \"#utility.yul\":17948:17952   */\n      dup2\n        /* \"#utility.yul\":17822:17953   */\n      tag_186\n      jump\t// in\n    tag_372:\n        /* \"#utility.yul\":17814:17953   */\n      swap1\n      pop\n        /* \"#utility.yul\":17541:17960   */\n      swap2\n      swap1\n      pop\n      jump\t// out\n        /* \"#utility.yul\":17966:18190   */\n    tag_187:\n        /* \"#utility.yul\":18106:18140   */\n      0x456c20706572696f646f20646520766f746163696f6e2068612066696e616c69\n        /* \"#utility.yul\":18102:18103   */\n      0x00\n        /* \"#utility.yul\":18094:18100   */\n      dup3\n        /* \"#utility.yul\":18090:18104   */\n      add\n        /* \"#utility.yul\":18083:18141   */\n      mstore\n        /* \"#utility.yul\":18175:18182   */\n      0x7a61646f2e000000000000000000000000000000000000000000000000000000\n        /* \"#utility.yul\":18170:18172   */\n      0x20\n        /* \"#utility.yul\":18162:18168   */\n      dup3\n        /* \"#utility.yul\":18158:18173   */\n      add\n        /* \"#utility.yul\":18151:18183   */\n      mstore\n        /* \"#utility.yul\":17966:18190   */\n      pop\n      jump\t// out\n        /* \"#utility.yul\":18196:18562   */\n    tag_188:\n        /* \"#utility.yul\":18338:18341   */\n      0x00\n        /* \"#utility.yul\":18359:18426   */\n      tag_375\n        /* \"#utility.yul\":18423:18425   */\n      0x25\n        /* \"#utility.yul\":18418:18421   */\n      dup4\n        /* \"#utility.yul\":18359:18426   */\n      tag_163\n      jump\t// in\n    tag_375:\n        /* \"#utility.yul\":18352:18426   */\n      swap2\n      pop\n        /* \"#utility.yul\":18435:18528   */\n      tag_376\n        /* \"#utility.yul\":18524:18527   */\n      dup3\n        /* \"#utility.yul\":18435:18528   */\n      tag_187\n      jump\t// in\n    tag_376:\n        /* \"#utility.yul\":18553:18555   */\n      0x40\n        /* \"#utility.yul\":18548:18551   */\n      dup3\n        /* \"#utility.yul\":18544:18556   */\n      add\n        /* \"#utility.yul\":18537:18556   */\n      swap1\n      pop\n        /* \"#utility.yul\":18196:18562   */\n      swap2\n      swap1\n      pop\n      jump\t// out\n        /* \"#utility.yul\":18568:18987   */\n    tag_98:\n        /* \"#utility.yul\":18734:18738   */\n      0x00\n        /* \"#utility.yul\":18772:18774   */\n      0x20\n        /* \"#utility.yul\":18761:18770   */\n      dup3\n        /* \"#utility.yul\":18757:18775   */\n      add\n        /* \"#utility.yul\":18749:18775   */\n      swap1\n      pop\n        /* \"#utility.yul\":18821:18830   */\n      dup2\n        /* \"#utility.yul\":18815:18819   */\n      dup2\n        /* \"#utility.yul\":18811:18831   */\n      sub\n        /* \"#utility.yul\":18807:18808   */\n      0x00\n        /* \"#utility.yul\":18796:18805   */\n      dup4\n        /* \"#utility.yul\":18792:18809   */\n      add\n        /* \"#utility.yul\":18785:18832   */\n      mstore\n        /* \"#utility.yul\":18849:18980   */\n      tag_378\n        /* \"#utility.yul\":18975:18979   */\n      dup2\n        /* \"#utility.yul\":18849:18980   */\n      tag_188\n      jump\t// in\n    tag_378:\n        /* \"#utility.yul\":18841:18980   */\n      swap1\n      pop\n        /* \"#utility.yul\":18568:18987   */\n      swap2\n      swap1\n      pop\n      jump\t// out\n        /* \"#utility.yul\":18993:19157   */\n    tag_189:\n        /* \"#utility.yul\":19133:19149   */\n      0x557374656420796120766f746f2e000000000000000000000000000000000000\n        /* \"#utility.yul\":19129:19130   */\n      0x00\n        /* \"#utility.yul\":19121:19127   */\n      dup3\n        /* \"#utility.yul\":19117:19131   */\n      add\n        /* \"#utility.yul\":19110:19150   */\n      mstore\n        /* \"#utility.yul\":18993:19157   */\n      pop\n      jump\t// out\n        /* \"#utility.yul\":19163:19529   */\n    tag_190:\n        /* \"#utility.yul\":19305:19308   */\n      0x00\n        /* \"#utility.yul\":19326:19393   */\n      tag_381\n        /* \"#utility.yul\":19390:19392   */\n      0x0e\n        /* \"#utility.yul\":19385:19388   */\n      dup4\n        /* \"#utility.yul\":19326:19393   */\n      tag_163\n      jump\t// in\n    tag_381:\n        /* \"#utility.yul\":19319:19393   */\n      swap2\n      pop\n        /* \"#utility.yul\":19402:19495   */\n      tag_382\n        /* \"#utility.yul\":19491:19494   */\n      dup3\n        /* \"#utility.yul\":19402:19495   */\n      tag_189\n      jump\t// in\n    tag_382:\n        /* \"#utility.yul\":19520:19522   */\n      0x20\n        /* \"#utility.yul\":19515:19518   */\n      dup3\n        /* \"#utility.yul\":19511:19523   */\n      add\n        /* \"#utility.yul\":19504:19523   */\n      swap1\n      pop\n        /* \"#utility.yul\":19163:19529   */\n      swap2\n      swap1\n      pop\n      jump\t// out\n        /* \"#utility.yul\":19535:19954   */\n    tag_102:\n        /* \"#utility.yul\":19701:19705   */\n      0x00\n        /* \"#utility.yul\":19739:19741   */\n      0x20\n        /* \"#utility.yul\":19728:19737   */\n      dup3\n        /* \"#utility.yul\":19724:19742   */\n      add\n        /* \"#utility.yul\":19716:19742   */\n      swap1\n      pop\n        /* \"#utility.yul\":19788:19797   */\n      dup2\n        /* \"#utility.yul\":19782:19786   */\n      dup2\n        /* \"#utility.yul\":19778:19798   */\n      sub\n        /* \"#utility.yul\":19774:19775   */\n      0x00\n        /* \"#utility.yul\":19763:19772   */\n      dup4\n        /* \"#utility.yul\":19759:19776   */\n      add\n        /* \"#utility.yul\":19752:19799   */\n      mstore\n        /* \"#utility.yul\":19816:19947   */\n      tag_384\n        /* \"#utility.yul\":19942:19946   */\n      dup2\n        /* \"#utility.yul\":19816:19947   */\n      tag_190\n      jump\t// in\n    tag_384:\n        /* \"#utility.yul\":19808:19947   */\n      swap1\n      pop\n        /* \"#utility.yul\":19535:19954   */\n      swap2\n      swap1\n      pop\n      jump\t// out\n        /* \"#utility.yul\":19960:20140   */\n    tag_191:\n        /* \"#utility.yul\":20008:20085   */\n      0x4e487b7100000000000000000000000000000000000000000000000000000000\n        /* \"#utility.yul\":20005:20006   */\n      0x00\n        /* \"#utility.yul\":19998:20086   */\n      mstore\n        /* \"#utility.yul\":20105:20109   */\n      0x11\n        /* \"#utility.yul\":20102:20103   */\n      0x04\n        /* \"#utility.yul\":20095:20110   */\n      mstore\n        /* \"#utility.yul\":20129:20133   */\n      0x24\n        /* \"#utility.yul\":20126:20127   */\n      0x00\n        /* \"#utility.yul\":20119:20134   */\n      revert\n        /* \"#utility.yul\":20146:20337   */\n    tag_108:\n        /* \"#utility.yul\":20186:20189   */\n      0x00\n        /* \"#utility.yul\":20205:20225   */\n      tag_387\n        /* \"#utility.yul\":20223:20224   */\n      dup3\n        /* \"#utility.yul\":20205:20225   */\n      tag_149\n      jump\t// in\n    tag_387:\n        /* \"#utility.yul\":20200:20225   */\n      swap2\n      pop\n        /* \"#utility.yul\":20239:20259   */\n      tag_388\n        /* \"#utility.yul\":20257:20258   */\n      dup4\n        /* \"#utility.yul\":20239:20259   */\n      tag_149\n      jump\t// in\n    tag_388:\n        /* \"#utility.yul\":20234:20259   */\n      swap3\n      pop\n        /* \"#utility.yul\":20282:20283   */\n      dup3\n        /* \"#utility.yul\":20279:20280   */\n      dup3\n        /* \"#utility.yul\":20275:20284   */\n      add\n        /* \"#utility.yul\":20268:20284   */\n      swap1\n      pop\n        /* \"#utility.yul\":20303:20306   */\n      dup1\n        /* \"#utility.yul\":20300:20301   */\n      dup3\n        /* \"#utility.yul\":20297:20307   */\n      gt\n        /* \"#utility.yul\":20294:20330   */\n      iszero\n      tag_389\n      jumpi\n        /* \"#utility.yul\":20310:20328   */\n      tag_390\n      tag_191\n      jump\t// in\n    tag_390:\n        /* \"#utility.yul\":20294:20330   */\n    tag_389:\n        /* \"#utility.yul\":20146:20337   */\n      swap3\n      swap2\n      pop\n      pop\n      jump\t// out\n\n    auxdata: 0xa2646970667358221220a742670bc76a64340eaa618dda2e98369d74a661b5a943f402a7ef2bfc30bc4d64736f6c634300081a0033\n}\n",
				"bytecode": {
					"linkReferences": {},
					"object": "608060405234801561000f575f80fd5b5060405161158f38038061158f833981810160405281019061003191906100ce565b3360015f6101000a81548173ffffffffffffffffffffffffffffffffffffffff021916908373ffffffffffffffffffffffffffffffffffffffff16021790555062015180816100809190610126565b4261008b9190610167565b6004819055505061019a565b5f80fd5b5f819050919050565b6100ad8161009b565b81146100b7575f80fd5b50565b5f815190506100c8816100a4565b92915050565b5f602082840312156100e3576100e2610097565b5b5f6100f0848285016100ba565b91505092915050565b7f4e487b71000000000000000000000000000000000000000000000000000000005f52601160045260245ffd5b5f6101308261009b565b915061013b8361009b565b92508282026101498161009b565b915082820484148315176101605761015f6100f9565b5b5092915050565b5f6101718261009b565b915061017c8361009b565b9250828201905080821115610194576101936100f9565b5b92915050565b6113e8806101a75f395ff3fe608060405234801561000f575f80fd5b50600436106100a7575f3560e01c8063372c12b11161006f578063372c12b1146101625780633c4f81cd14610192578063406f12cb146101b05780636097e216146101cc5780637334151b146101fd578063c60bb7131461021b576100a7565b80630a401942146100ab5780631608d15f146100c757806321606831146100e557806327073c4c146101015780632759f38e14610131575b5f80fd5b6100c560048036038101906100c09190610aa3565b610239565b005b6100cf610327565b6040516100dc9190610c57565b60405180910390f35b6100ff60048036038101906100fa9190610ca1565b610488565b005b61011b60048036038101906101169190610d26565b610671565b6040516101289190610d6b565b60405180910390f35b61014b60048036038101906101469190610ca1565b61068e565b604051610159929190610ddb565b60405180910390f35b61017c60048036038101906101779190610d26565b61074f565b6040516101899190610d6b565b60405180910390f35b61019a61076c565b6040516101a79190610e18565b60405180910390f35b6101ca60048036038101906101c59190610d26565b610791565b005b6101e660048036038101906101e19190610ca1565b610878565b6040516101f4929190610ddb565b60405180910390f35b61020561092c565b6040516102129190610e31565b60405180910390f35b610223610932565b6040516102309190610e31565b60405180910390f35b60015f9054906101000a900473ffffffffffffffffffffffffffffffffffffffff1673ffffffffffffffffffffffffffffffffffffffff163373ffffffffffffffffffffffffffffffffffffffff16146102c8576040517f08c379a00000000000000000000000000000000000000000000000000000000081526004016102bf90610eba565b60405180910390fd5b5f60405180604001604052808381526020015f815250908060018154018082558091505060019003905f5260205f2090600202015f909190919091505f820151815f01908161031791906110d2565b5060208201518160010155505050565b60605f808054905067ffffffffffffffff8111156103485761034761097f565b5b60405190808252806020026020018201604052801561038157816020015b61036e61093d565b8152602001906001900390816103665790505b5090505f5b5f80549050811015610480575f81815481106103a5576103a46111a1565b5b905f5260205f2090600202016040518060400160405290815f820180546103cb90610f05565b80601f01602080910402602001604051908101604052809291908181526020018280546103f790610f05565b80156104425780601f1061041957610100808354040283529160200191610442565b820191905f5260205f20905b81548152906001019060200180831161042557829003601f168201915b50505050508152602001600182015481525050828281518110610468576104676111a1565b5b60200260200101819052508080600101915050610386565b508091505090565b60025f3373ffffffffffffffffffffffffffffffffffffffff1673ffffffffffffffffffffffffffffffffffffffff1681526020019081526020015f205f9054906101000a900460ff16610511576040517f08c379a00000000000000000000000000000000000000000000000000000000081526004016105089061123e565b60405180910390fd5b600454421115610556576040517f08c379a000000000000000000000000000000000000000000000000000000000815260040161054d906112cc565b60405180910390fd5b60035f3373ffffffffffffffffffffffffffffffffffffffff1673ffffffffffffffffffffffffffffffffffffffff1681526020019081526020015f205f9054906101000a900460ff16156105e0576040517f08c379a00000000000000000000000000000000000000000000000000000000081526004016105d790611334565b60405180910390fd5b60015f82815481106105f5576105f46111a1565b5b905f5260205f2090600202016001015f828254610612919061137f565b92505081905550600160035f3373ffffffffffffffffffffffffffffffffffffffff1673ffffffffffffffffffffffffffffffffffffffff1681526020019081526020015f205f6101000a81548160ff02191690831515021790555050565b6003602052805f5260405f205f915054906101000a900460ff1681565b60605f805f84815481106106a5576106a46111a1565b5b905f5260205f2090600202019050805f0181600101548180546106c790610f05565b80601f01602080910402602001604051908101604052809291908181526020018280546106f390610f05565b801561073e5780601f106107155761010080835404028352916020019161073e565b820191905f5260205f20905b81548152906001019060200180831161072157829003601f168201915b505050505091509250925050915091565b6002602052805f5260405f205f915054906101000a900460ff1681565b60015f9054906101000a900473ffffffffffffffffffffffffffffffffffffffff1681565b60015f9054906101000a900473ffffffffffffffffffffffffffffffffffffffff1673ffffffffffffffffffffffffffffffffffffffff163373ffffffffffffffffffffffffffffffffffffffff1614610820576040517f08c379a000000000000000000000000000000000000000000000000000000000815260040161081790610eba565b60405180910390fd5b600160025f8373ffffffffffffffffffffffffffffffffffffffff1673ffffffffffffffffffffffffffffffffffffffff1681526020019081526020015f205f6101000a81548160ff02191690831515021790555050565b5f8181548110610886575f80fd5b905f5260205f2090600202015f91509050805f0180546108a590610f05565b80601f01602080910402602001604051908101604052809291908181526020018280546108d190610f05565b801561091c5780601f106108f35761010080835404028352916020019161091c565b820191905f5260205f20905b8154815290600101906020018083116108ff57829003601f168201915b5050505050908060010154905082565b60045481565b5f8080549050905090565b6040518060400160405280606081526020015f81525090565b5f604051905090565b5f80fd5b5f80fd5b5f80fd5b5f80fd5b5f601f19601f8301169050919050565b7f4e487b71000000000000000000000000000000000000000000000000000000005f52604160045260245ffd5b6109b58261096f565b810181811067ffffffffffffffff821117156109d4576109d361097f565b5b80604052505050565b5f6109e6610956565b90506109f282826109ac565b919050565b5f67ffffffffffffffff821115610a1157610a1061097f565b5b610a1a8261096f565b9050602081019050919050565b828183375f83830152505050565b5f610a47610a42846109f7565b6109dd565b905082815260208101848484011115610a6357610a6261096b565b5b610a6e848285610a27565b509392505050565b5f82601f830112610a8a57610a89610967565b5b8135610a9a848260208601610a35565b91505092915050565b5f60208284031215610ab857610ab761095f565b5b5f82013567ffffffffffffffff811115610ad557610ad4610963565b5b610ae184828501610a76565b91505092915050565b5f81519050919050565b5f82825260208201905092915050565b5f819050602082019050919050565b5f81519050919050565b5f82825260208201905092915050565b8281835e5f83830152505050565b5f610b4582610b13565b610b4f8185610b1d565b9350610b5f818560208601610b2d565b610b688161096f565b840191505092915050565b5f819050919050565b610b8581610b73565b82525050565b5f604083015f8301518482035f860152610ba58282610b3b565b9150506020830151610bba6020860182610b7c565b508091505092915050565b5f610bd08383610b8b565b905092915050565b5f602082019050919050565b5f610bee82610aea565b610bf88185610af4565b935083602082028501610c0a85610b04565b805f5b85811015610c455784840389528151610c268582610bc5565b9450610c3183610bd8565b925060208a01995050600181019050610c0d565b50829750879550505050505092915050565b5f6020820190508181035f830152610c6f8184610be4565b905092915050565b610c8081610b73565b8114610c8a575f80fd5b50565b5f81359050610c9b81610c77565b92915050565b5f60208284031215610cb657610cb561095f565b5b5f610cc384828501610c8d565b91505092915050565b5f73ffffffffffffffffffffffffffffffffffffffff82169050919050565b5f610cf582610ccc565b9050919050565b610d0581610ceb565b8114610d0f575f80fd5b50565b5f81359050610d2081610cfc565b92915050565b5f60208284031215610d3b57610d3a61095f565b5b5f610d4884828501610d12565b91505092915050565b5f8115159050919050565b610d6581610d51565b82525050565b5f602082019050610d7e5f830184610d5c565b92915050565b5f82825260208201905092915050565b5f610d9e82610b13565b610da88185610d84565b9350610db8818560208601610b2d565b610dc18161096f565b840191505092915050565b610dd581610b73565b82525050565b5f6040820190508181035f830152610df38185610d94565b9050610e026020830184610dcc565b9392505050565b610e1281610ceb565b82525050565b5f602082019050610e2b5f830184610e09565b92915050565b5f602082019050610e445f830184610dcc565b92915050565b7f536f6c6f20656c2070726f706965746172696f20707565646520656a656375745f8201527f617220657374612066756e63696f6e2e00000000000000000000000000000000602082015250565b5f610ea4603083610d84565b9150610eaf82610e4a565b604082019050919050565b5f6020820190508181035f830152610ed181610e98565b9050919050565b7f4e487b71000000000000000000000000000000000000000000000000000000005f52602260045260245ffd5b5f6002820490506001821680610f1c57607f821691505b602082108103610f2f57610f2e610ed8565b5b50919050565b5f819050815f5260205f209050919050565b5f6020601f8301049050919050565b5f82821b905092915050565b5f60088302610f917fffffffffffffffffffffffffffffffffffffffffffffffffffffffffffffffff82610f56565b610f9b8683610f56565b95508019841693508086168417925050509392505050565b5f819050919050565b5f610fd6610fd1610fcc84610b73565b610fb3565b610b73565b9050919050565b5f819050919050565b610fef83610fbc565b611003610ffb82610fdd565b848454610f62565b825550505050565b5f90565b61101761100b565b611022818484610fe6565b505050565b5b818110156110455761103a5f8261100f565b600181019050611028565b5050565b601f82111561108a5761105b81610f35565b61106484610f47565b81016020851015611073578190505b61108761107f85610f47565b830182611027565b50505b505050565b5f82821c905092915050565b5f6110aa5f198460080261108f565b1980831691505092915050565b5f6110c2838361109b565b9150826002028217905092915050565b6110db82610b13565b67ffffffffffffffff8111156110f4576110f361097f565b5b6110fe8254610f05565b611109828285611049565b5f60209050601f83116001811461113a575f8415611128578287015190505b61113285826110b7565b865550611199565b601f19841661114886610f35565b5f5b8281101561116f5784890151825560018201915060208501945060208101905061114a565b8683101561118c5784890151611188601f89168261109b565b8355505b6001600288020188555050505b505050505050565b7f4e487b71000000000000000000000000000000000000000000000000000000005f52603260045260245ffd5b7f536f6c6f206c617320706572736f6e6173206175746f72697a616461732070755f8201527f6564656e20766f7461722e000000000000000000000000000000000000000000602082015250565b5f611228602b83610d84565b9150611233826111ce565b604082019050919050565b5f6020820190508181035f8301526112558161121c565b9050919050565b7f456c20706572696f646f20646520766f746163696f6e2068612066696e616c695f8201527f7a61646f2e000000000000000000000000000000000000000000000000000000602082015250565b5f6112b6602583610d84565b91506112c18261125c565b604082019050919050565b5f6020820190508181035f8301526112e3816112aa565b9050919050565b7f557374656420796120766f746f2e0000000000000000000000000000000000005f82015250565b5f61131e600e83610d84565b9150611329826112ea565b602082019050919050565b5f6020820190508181035f83015261134b81611312565b9050919050565b7f4e487b71000000000000000000000000000000000000000000000000000000005f52601160045260245ffd5b5f61138982610b73565b915061139483610b73565b92508282019050808211156113ac576113ab611352565b5b9291505056fea2646970667358221220a742670bc76a64340eaa618dda2e98369d74a661b5a943f402a7ef2bfc30bc4d64736f6c634300081a0033",
					"opcodes": "PUSH1 0x80 PUSH1 0x40 MSTORE CALLVALUE DUP1 ISZERO PUSH2 0xF JUMPI PUSH0 DUP1 REVERT JUMPDEST POP PUSH1 0x40 MLOAD PUSH2 0x158F CODESIZE SUB DUP1 PUSH2 0x158F DUP4 CODECOPY DUP2 DUP2 ADD PUSH1 0x40 MSTORE DUP2 ADD SWAP1 PUSH2 0x31 SWAP2 SWAP1 PUSH2 0xCE JUMP JUMPDEST CALLER PUSH1 0x1 PUSH0 PUSH2 0x100 EXP DUP2 SLOAD DUP2 PUSH20 0xFFFFFFFFFFFFFFFFFFFFFFFFFFFFFFFFFFFFFFFF MUL NOT AND SWAP1 DUP4 PUSH20 0xFFFFFFFFFFFFFFFFFFFFFFFFFFFFFFFFFFFFFFFF AND MUL OR SWAP1 SSTORE POP PUSH3 0x15180 DUP2 PUSH2 0x80 SWAP2 SWAP1 PUSH2 0x126 JUMP JUMPDEST TIMESTAMP PUSH2 0x8B SWAP2 SWAP1 PUSH2 0x167 JUMP JUMPDEST PUSH1 0x4 DUP2 SWAP1 SSTORE POP POP PUSH2 0x19A JUMP JUMPDEST PUSH0 DUP1 REVERT JUMPDEST PUSH0 DUP2 SWAP1 POP SWAP2 SWAP1 POP JUMP JUMPDEST PUSH2 0xAD DUP2 PUSH2 0x9B JUMP JUMPDEST DUP2 EQ PUSH2 0xB7 JUMPI PUSH0 DUP1 REVERT JUMPDEST POP JUMP JUMPDEST PUSH0 DUP2 MLOAD SWAP1 POP PUSH2 0xC8 DUP2 PUSH2 0xA4 JUMP JUMPDEST SWAP3 SWAP2 POP POP JUMP JUMPDEST PUSH0 PUSH1 0x20 DUP3 DUP5 SUB SLT ISZERO PUSH2 0xE3 JUMPI PUSH2 0xE2 PUSH2 0x97 JUMP JUMPDEST JUMPDEST PUSH0 PUSH2 0xF0 DUP5 DUP3 DUP6 ADD PUSH2 0xBA JUMP JUMPDEST SWAP2 POP POP SWAP3 SWAP2 POP POP JUMP JUMPDEST PUSH32 0x4E487B7100000000000000000000000000000000000000000000000000000000 PUSH0 MSTORE PUSH1 0x11 PUSH1 0x4 MSTORE PUSH1 0x24 PUSH0 REVERT JUMPDEST PUSH0 PUSH2 0x130 DUP3 PUSH2 0x9B JUMP JUMPDEST SWAP2 POP PUSH2 0x13B DUP4 PUSH2 0x9B JUMP JUMPDEST SWAP3 POP DUP3 DUP3 MUL PUSH2 0x149 DUP2 PUSH2 0x9B JUMP JUMPDEST SWAP2 POP DUP3 DUP3 DIV DUP5 EQ DUP4 ISZERO OR PUSH2 0x160 JUMPI PUSH2 0x15F PUSH2 0xF9 JUMP JUMPDEST JUMPDEST POP SWAP3 SWAP2 POP POP JUMP JUMPDEST PUSH0 PUSH2 0x171 DUP3 PUSH2 0x9B JUMP JUMPDEST SWAP2 POP PUSH2 0x17C DUP4 PUSH2 0x9B JUMP JUMPDEST SWAP3 POP DUP3 DUP3 ADD SWAP1 POP DUP1 DUP3 GT ISZERO PUSH2 0x194 JUMPI PUSH2 0x193 PUSH2 0xF9 JUMP JUMPDEST JUMPDEST SWAP3 SWAP2 POP POP JUMP JUMPDEST PUSH2 0x13E8 DUP1 PUSH2 0x1A7 PUSH0 CODECOPY PUSH0 RETURN INVALID PUSH1 0x80 PUSH1 0x40 MSTORE CALLVALUE DUP1 ISZERO PUSH2 0xF JUMPI PUSH0 DUP1 REVERT JUMPDEST POP PUSH1 0x4 CALLDATASIZE LT PUSH2 0xA7 JUMPI PUSH0 CALLDATALOAD PUSH1 0xE0 SHR DUP1 PUSH4 0x372C12B1 GT PUSH2 0x6F JUMPI DUP1 PUSH4 0x372C12B1 EQ PUSH2 0x162 JUMPI DUP1 PUSH4 0x3C4F81CD EQ PUSH2 0x192 JUMPI DUP1 PUSH4 0x406F12CB EQ PUSH2 0x1B0 JUMPI DUP1 PUSH4 0x6097E216 EQ PUSH2 0x1CC JUMPI DUP1 PUSH4 0x7334151B EQ PUSH2 0x1FD JUMPI DUP1 PUSH4 0xC60BB713 EQ PUSH2 0x21B JUMPI PUSH2 0xA7 JUMP JUMPDEST DUP1 PUSH4 0xA401942 EQ PUSH2 0xAB JUMPI DUP1 PUSH4 0x1608D15F EQ PUSH2 0xC7 JUMPI DUP1 PUSH4 0x21606831 EQ PUSH2 0xE5 JUMPI DUP1 PUSH4 0x27073C4C EQ PUSH2 0x101 JUMPI DUP1 PUSH4 0x2759F38E EQ PUSH2 0x131 JUMPI JUMPDEST PUSH0 DUP1 REVERT JUMPDEST PUSH2 0xC5 PUSH1 0x4 DUP1 CALLDATASIZE SUB DUP2 ADD SWAP1 PUSH2 0xC0 SWAP2 SWAP1 PUSH2 0xAA3 JUMP JUMPDEST PUSH2 0x239 JUMP JUMPDEST STOP JUMPDEST PUSH2 0xCF PUSH2 0x327 JUMP JUMPDEST PUSH1 0x40 MLOAD PUSH2 0xDC SWAP2 SWAP1 PUSH2 0xC57 JUMP JUMPDEST PUSH1 0x40 MLOAD DUP1 SWAP2 SUB SWAP1 RETURN JUMPDEST PUSH2 0xFF PUSH1 0x4 DUP1 CALLDATASIZE SUB DUP2 ADD SWAP1 PUSH2 0xFA SWAP2 SWAP1 PUSH2 0xCA1 JUMP JUMPDEST PUSH2 0x488 JUMP JUMPDEST STOP JUMPDEST PUSH2 0x11B PUSH1 0x4 DUP1 CALLDATASIZE SUB DUP2 ADD SWAP1 PUSH2 0x116 SWAP2 SWAP1 PUSH2 0xD26 JUMP JUMPDEST PUSH2 0x671 JUMP JUMPDEST PUSH1 0x40 MLOAD PUSH2 0x128 SWAP2 SWAP1 PUSH2 0xD6B JUMP JUMPDEST PUSH1 0x40 MLOAD DUP1 SWAP2 SUB SWAP1 RETURN JUMPDEST PUSH2 0x14B PUSH1 0x4 DUP1 CALLDATASIZE SUB DUP2 ADD SWAP1 PUSH2 0x146 SWAP2 SWAP1 PUSH2 0xCA1 JUMP JUMPDEST PUSH2 0x68E JUMP JUMPDEST PUSH1 0x40 MLOAD PUSH2 0x159 SWAP3 SWAP2 SWAP1 PUSH2 0xDDB JUMP JUMPDEST PUSH1 0x40 MLOAD DUP1 SWAP2 SUB SWAP1 RETURN JUMPDEST PUSH2 0x17C PUSH1 0x4 DUP1 CALLDATASIZE SUB DUP2 ADD SWAP1 PUSH2 0x177 SWAP2 SWAP1 PUSH2 0xD26 JUMP JUMPDEST PUSH2 0x74F JUMP JUMPDEST PUSH1 0x40 MLOAD PUSH2 0x189 SWAP2 SWAP1 PUSH2 0xD6B JUMP JUMPDEST PUSH1 0x40 MLOAD DUP1 SWAP2 SUB SWAP1 RETURN JUMPDEST PUSH2 0x19A PUSH2 0x76C JUMP JUMPDEST PUSH1 0x40 MLOAD PUSH2 0x1A7 SWAP2 SWAP1 PUSH2 0xE18 JUMP JUMPDEST PUSH1 0x40 MLOAD DUP1 SWAP2 SUB SWAP1 RETURN JUMPDEST PUSH2 0x1CA PUSH1 0x4 DUP1 CALLDATASIZE SUB DUP2 ADD SWAP1 PUSH2 0x1C5 SWAP2 SWAP1 PUSH2 0xD26 JUMP JUMPDEST PUSH2 0x791 JUMP JUMPDEST STOP JUMPDEST PUSH2 0x1E6 PUSH1 0x4 DUP1 CALLDATASIZE SUB DUP2 ADD SWAP1 PUSH2 0x1E1 SWAP2 SWAP1 PUSH2 0xCA1 JUMP JUMPDEST PUSH2 0x878 JUMP JUMPDEST PUSH1 0x40 MLOAD PUSH2 0x1F4 SWAP3 SWAP2 SWAP1 PUSH2 0xDDB JUMP JUMPDEST PUSH1 0x40 MLOAD DUP1 SWAP2 SUB SWAP1 RETURN JUMPDEST PUSH2 0x205 PUSH2 0x92C JUMP JUMPDEST PUSH1 0x40 MLOAD PUSH2 0x212 SWAP2 SWAP1 PUSH2 0xE31 JUMP JUMPDEST PUSH1 0x40 MLOAD DUP1 SWAP2 SUB SWAP1 RETURN JUMPDEST PUSH2 0x223 PUSH2 0x932 JUMP JUMPDEST PUSH1 0x40 MLOAD PUSH2 0x230 SWAP2 SWAP1 PUSH2 0xE31 JUMP JUMPDEST PUSH1 0x40 MLOAD DUP1 SWAP2 SUB SWAP1 RETURN JUMPDEST PUSH1 0x1 PUSH0 SWAP1 SLOAD SWAP1 PUSH2 0x100 EXP SWAP1 DIV PUSH20 0xFFFFFFFFFFFFFFFFFFFFFFFFFFFFFFFFFFFFFFFF AND PUSH20 0xFFFFFFFFFFFFFFFFFFFFFFFFFFFFFFFFFFFFFFFF AND CALLER PUSH20 0xFFFFFFFFFFFFFFFFFFFFFFFFFFFFFFFFFFFFFFFF AND EQ PUSH2 0x2C8 JUMPI PUSH1 0x40 MLOAD PUSH32 0x8C379A000000000000000000000000000000000000000000000000000000000 DUP2 MSTORE PUSH1 0x4 ADD PUSH2 0x2BF SWAP1 PUSH2 0xEBA JUMP JUMPDEST PUSH1 0x40 MLOAD DUP1 SWAP2 SUB SWAP1 REVERT JUMPDEST PUSH0 PUSH1 0x40 MLOAD DUP1 PUSH1 0x40 ADD PUSH1 0x40 MSTORE DUP1 DUP4 DUP2 MSTORE PUSH1 0x20 ADD PUSH0 DUP2 MSTORE POP SWAP1 DUP1 PUSH1 0x1 DUP2 SLOAD ADD DUP1 DUP3 SSTORE DUP1 SWAP2 POP POP PUSH1 0x1 SWAP1 SUB SWAP1 PUSH0 MSTORE PUSH1 0x20 PUSH0 KECCAK256 SWAP1 PUSH1 0x2 MUL ADD PUSH0 SWAP1 SWAP2 SWAP1 SWAP2 SWAP1 SWAP2 POP PUSH0 DUP3 ADD MLOAD DUP2 PUSH0 ADD SWAP1 DUP2 PUSH2 0x317 SWAP2 SWAP1 PUSH2 0x10D2 JUMP JUMPDEST POP PUSH1 0x20 DUP3 ADD MLOAD DUP2 PUSH1 0x1 ADD SSTORE POP POP POP JUMP JUMPDEST PUSH1 0x60 PUSH0 DUP1 DUP1 SLOAD SWAP1 POP PUSH8 0xFFFFFFFFFFFFFFFF DUP2 GT ISZERO PUSH2 0x348 JUMPI PUSH2 0x347 PUSH2 0x97F JUMP JUMPDEST JUMPDEST PUSH1 0x40 MLOAD SWAP1 DUP1 DUP3 MSTORE DUP1 PUSH1 0x20 MUL PUSH1 0x20 ADD DUP3 ADD PUSH1 0x40 MSTORE DUP1 ISZERO PUSH2 0x381 JUMPI DUP2 PUSH1 0x20 ADD JUMPDEST PUSH2 0x36E PUSH2 0x93D JUMP JUMPDEST DUP2 MSTORE PUSH1 0x20 ADD SWAP1 PUSH1 0x1 SWAP1 SUB SWAP1 DUP2 PUSH2 0x366 JUMPI SWAP1 POP JUMPDEST POP SWAP1 POP PUSH0 JUMPDEST PUSH0 DUP1 SLOAD SWAP1 POP DUP2 LT ISZERO PUSH2 0x480 JUMPI PUSH0 DUP2 DUP2 SLOAD DUP2 LT PUSH2 0x3A5 JUMPI PUSH2 0x3A4 PUSH2 0x11A1 JUMP JUMPDEST JUMPDEST SWAP1 PUSH0 MSTORE PUSH1 0x20 PUSH0 KECCAK256 SWAP1 PUSH1 0x2 MUL ADD PUSH1 0x40 MLOAD DUP1 PUSH1 0x40 ADD PUSH1 0x40 MSTORE SWAP1 DUP2 PUSH0 DUP3 ADD DUP1 SLOAD PUSH2 0x3CB SWAP1 PUSH2 0xF05 JUMP JUMPDEST DUP1 PUSH1 0x1F ADD PUSH1 0x20 DUP1 SWAP2 DIV MUL PUSH1 0x20 ADD PUSH1 0x40 MLOAD SWAP1 DUP2 ADD PUSH1 0x40 MSTORE DUP1 SWAP3 SWAP2 SWAP1 DUP2 DUP2 MSTORE PUSH1 0x20 ADD DUP3 DUP1 SLOAD PUSH2 0x3F7 SWAP1 PUSH2 0xF05 JUMP JUMPDEST DUP1 ISZERO PUSH2 0x442 JUMPI DUP1 PUSH1 0x1F LT PUSH2 0x419 JUMPI PUSH2 0x100 DUP1 DUP4 SLOAD DIV MUL DUP4 MSTORE SWAP2 PUSH1 0x20 ADD SWAP2 PUSH2 0x442 JUMP JUMPDEST DUP3 ADD SWAP2 SWAP1 PUSH0 MSTORE PUSH1 0x20 PUSH0 KECCAK256 SWAP1 JUMPDEST DUP2 SLOAD DUP2 MSTORE SWAP1 PUSH1 0x1 ADD SWAP1 PUSH1 0x20 ADD DUP1 DUP4 GT PUSH2 0x425 JUMPI DUP3 SWAP1 SUB PUSH1 0x1F AND DUP3 ADD SWAP2 JUMPDEST POP POP POP POP POP DUP2 MSTORE PUSH1 0x20 ADD PUSH1 0x1 DUP3 ADD SLOAD DUP2 MSTORE POP POP DUP3 DUP3 DUP2 MLOAD DUP2 LT PUSH2 0x468 JUMPI PUSH2 0x467 PUSH2 0x11A1 JUMP JUMPDEST JUMPDEST PUSH1 0x20 MUL PUSH1 0x20 ADD ADD DUP2 SWAP1 MSTORE POP DUP1 DUP1 PUSH1 0x1 ADD SWAP2 POP POP PUSH2 0x386 JUMP JUMPDEST POP DUP1 SWAP2 POP POP SWAP1 JUMP JUMPDEST PUSH1 0x2 PUSH0 CALLER PUSH20 0xFFFFFFFFFFFFFFFFFFFFFFFFFFFFFFFFFFFFFFFF AND PUSH20 0xFFFFFFFFFFFFFFFFFFFFFFFFFFFFFFFFFFFFFFFF AND DUP2 MSTORE PUSH1 0x20 ADD SWAP1 DUP2 MSTORE PUSH1 0x20 ADD PUSH0 KECCAK256 PUSH0 SWAP1 SLOAD SWAP1 PUSH2 0x100 EXP SWAP1 DIV PUSH1 0xFF AND PUSH2 0x511 JUMPI PUSH1 0x40 MLOAD PUSH32 0x8C379A000000000000000000000000000000000000000000000000000000000 DUP2 MSTORE PUSH1 0x4 ADD PUSH2 0x508 SWAP1 PUSH2 0x123E JUMP JUMPDEST PUSH1 0x40 MLOAD DUP1 SWAP2 SUB SWAP1 REVERT JUMPDEST PUSH1 0x4 SLOAD TIMESTAMP GT ISZERO PUSH2 0x556 JUMPI PUSH1 0x40 MLOAD PUSH32 0x8C379A000000000000000000000000000000000000000000000000000000000 DUP2 MSTORE PUSH1 0x4 ADD PUSH2 0x54D SWAP1 PUSH2 0x12CC JUMP JUMPDEST PUSH1 0x40 MLOAD DUP1 SWAP2 SUB SWAP1 REVERT JUMPDEST PUSH1 0x3 PUSH0 CALLER PUSH20 0xFFFFFFFFFFFFFFFFFFFFFFFFFFFFFFFFFFFFFFFF AND PUSH20 0xFFFFFFFFFFFFFFFFFFFFFFFFFFFFFFFFFFFFFFFF AND DUP2 MSTORE PUSH1 0x20 ADD SWAP1 DUP2 MSTORE PUSH1 0x20 ADD PUSH0 KECCAK256 PUSH0 SWAP1 SLOAD SWAP1 PUSH2 0x100 EXP SWAP1 DIV PUSH1 0xFF AND ISZERO PUSH2 0x5E0 JUMPI PUSH1 0x40 MLOAD PUSH32 0x8C379A000000000000000000000000000000000000000000000000000000000 DUP2 MSTORE PUSH1 0x4 ADD PUSH2 0x5D7 SWAP1 PUSH2 0x1334 JUMP JUMPDEST PUSH1 0x40 MLOAD DUP1 SWAP2 SUB SWAP1 REVERT JUMPDEST PUSH1 0x1 PUSH0 DUP3 DUP2 SLOAD DUP2 LT PUSH2 0x5F5 JUMPI PUSH2 0x5F4 PUSH2 0x11A1 JUMP JUMPDEST JUMPDEST SWAP1 PUSH0 MSTORE PUSH1 0x20 PUSH0 KECCAK256 SWAP1 PUSH1 0x2 MUL ADD PUSH1 0x1 ADD PUSH0 DUP3 DUP3 SLOAD PUSH2 0x612 SWAP2 SWAP1 PUSH2 0x137F JUMP JUMPDEST SWAP3 POP POP DUP2 SWAP1 SSTORE POP PUSH1 0x1 PUSH1 0x3 PUSH0 CALLER PUSH20 0xFFFFFFFFFFFFFFFFFFFFFFFFFFFFFFFFFFFFFFFF AND PUSH20 0xFFFFFFFFFFFFFFFFFFFFFFFFFFFFFFFFFFFFFFFF AND DUP2 MSTORE PUSH1 0x20 ADD SWAP1 DUP2 MSTORE PUSH1 0x20 ADD PUSH0 KECCAK256 PUSH0 PUSH2 0x100 EXP DUP2 SLOAD DUP2 PUSH1 0xFF MUL NOT AND SWAP1 DUP4 ISZERO ISZERO MUL OR SWAP1 SSTORE POP POP JUMP JUMPDEST PUSH1 0x3 PUSH1 0x20 MSTORE DUP1 PUSH0 MSTORE PUSH1 0x40 PUSH0 KECCAK256 PUSH0 SWAP2 POP SLOAD SWAP1 PUSH2 0x100 EXP SWAP1 DIV PUSH1 0xFF AND DUP2 JUMP JUMPDEST PUSH1 0x60 PUSH0 DUP1 PUSH0 DUP5 DUP2 SLOAD DUP2 LT PUSH2 0x6A5 JUMPI PUSH2 0x6A4 PUSH2 0x11A1 JUMP JUMPDEST JUMPDEST SWAP1 PUSH0 MSTORE PUSH1 0x20 PUSH0 KECCAK256 SWAP1 PUSH1 0x2 MUL ADD SWAP1 POP DUP1 PUSH0 ADD DUP2 PUSH1 0x1 ADD SLOAD DUP2 DUP1 SLOAD PUSH2 0x6C7 SWAP1 PUSH2 0xF05 JUMP JUMPDEST DUP1 PUSH1 0x1F ADD PUSH1 0x20 DUP1 SWAP2 DIV MUL PUSH1 0x20 ADD PUSH1 0x40 MLOAD SWAP1 DUP2 ADD PUSH1 0x40 MSTORE DUP1 SWAP3 SWAP2 SWAP1 DUP2 DUP2 MSTORE PUSH1 0x20 ADD DUP3 DUP1 SLOAD PUSH2 0x6F3 SWAP1 PUSH2 0xF05 JUMP JUMPDEST DUP1 ISZERO PUSH2 0x73E JUMPI DUP1 PUSH1 0x1F LT PUSH2 0x715 JUMPI PUSH2 0x100 DUP1 DUP4 SLOAD DIV MUL DUP4 MSTORE SWAP2 PUSH1 0x20 ADD SWAP2 PUSH2 0x73E JUMP JUMPDEST DUP3 ADD SWAP2 SWAP1 PUSH0 MSTORE PUSH1 0x20 PUSH0 KECCAK256 SWAP1 JUMPDEST DUP2 SLOAD DUP2 MSTORE SWAP1 PUSH1 0x1 ADD SWAP1 PUSH1 0x20 ADD DUP1 DUP4 GT PUSH2 0x721 JUMPI DUP3 SWAP1 SUB PUSH1 0x1F AND DUP3 ADD SWAP2 JUMPDEST POP POP POP POP POP SWAP2 POP SWAP3 POP SWAP3 POP POP SWAP2 POP SWAP2 JUMP JUMPDEST PUSH1 0x2 PUSH1 0x20 MSTORE DUP1 PUSH0 MSTORE PUSH1 0x40 PUSH0 KECCAK256 PUSH0 SWAP2 POP SLOAD SWAP1 PUSH2 0x100 EXP SWAP1 DIV PUSH1 0xFF AND DUP2 JUMP JUMPDEST PUSH1 0x1 PUSH0 SWAP1 SLOAD SWAP1 PUSH2 0x100 EXP SWAP1 DIV PUSH20 0xFFFFFFFFFFFFFFFFFFFFFFFFFFFFFFFFFFFFFFFF AND DUP2 JUMP JUMPDEST PUSH1 0x1 PUSH0 SWAP1 SLOAD SWAP1 PUSH2 0x100 EXP SWAP1 DIV PUSH20 0xFFFFFFFFFFFFFFFFFFFFFFFFFFFFFFFFFFFFFFFF AND PUSH20 0xFFFFFFFFFFFFFFFFFFFFFFFFFFFFFFFFFFFFFFFF AND CALLER PUSH20 0xFFFFFFFFFFFFFFFFFFFFFFFFFFFFFFFFFFFFFFFF AND EQ PUSH2 0x820 JUMPI PUSH1 0x40 MLOAD PUSH32 0x8C379A000000000000000000000000000000000000000000000000000000000 DUP2 MSTORE PUSH1 0x4 ADD PUSH2 0x817 SWAP1 PUSH2 0xEBA JUMP JUMPDEST PUSH1 0x40 MLOAD DUP1 SWAP2 SUB SWAP1 REVERT JUMPDEST PUSH1 0x1 PUSH1 0x2 PUSH0 DUP4 PUSH20 0xFFFFFFFFFFFFFFFFFFFFFFFFFFFFFFFFFFFFFFFF AND PUSH20 0xFFFFFFFFFFFFFFFFFFFFFFFFFFFFFFFFFFFFFFFF AND DUP2 MSTORE PUSH1 0x20 ADD SWAP1 DUP2 MSTORE PUSH1 0x20 ADD PUSH0 KECCAK256 PUSH0 PUSH2 0x100 EXP DUP2 SLOAD DUP2 PUSH1 0xFF MUL NOT AND SWAP1 DUP4 ISZERO ISZERO MUL OR SWAP1 SSTORE POP POP JUMP JUMPDEST PUSH0 DUP2 DUP2 SLOAD DUP2 LT PUSH2 0x886 JUMPI PUSH0 DUP1 REVERT JUMPDEST SWAP1 PUSH0 MSTORE PUSH1 0x20 PUSH0 KECCAK256 SWAP1 PUSH1 0x2 MUL ADD PUSH0 SWAP2 POP SWAP1 POP DUP1 PUSH0 ADD DUP1 SLOAD PUSH2 0x8A5 SWAP1 PUSH2 0xF05 JUMP JUMPDEST DUP1 PUSH1 0x1F ADD PUSH1 0x20 DUP1 SWAP2 DIV MUL PUSH1 0x20 ADD PUSH1 0x40 MLOAD SWAP1 DUP2 ADD PUSH1 0x40 MSTORE DUP1 SWAP3 SWAP2 SWAP1 DUP2 DUP2 MSTORE PUSH1 0x20 ADD DUP3 DUP1 SLOAD PUSH2 0x8D1 SWAP1 PUSH2 0xF05 JUMP JUMPDEST DUP1 ISZERO PUSH2 0x91C JUMPI DUP1 PUSH1 0x1F LT PUSH2 0x8F3 JUMPI PUSH2 0x100 DUP1 DUP4 SLOAD DIV MUL DUP4 MSTORE SWAP2 PUSH1 0x20 ADD SWAP2 PUSH2 0x91C JUMP JUMPDEST DUP3 ADD SWAP2 SWAP1 PUSH0 MSTORE PUSH1 0x20 PUSH0 KECCAK256 SWAP1 JUMPDEST DUP2 SLOAD DUP2 MSTORE SWAP1 PUSH1 0x1 ADD SWAP1 PUSH1 0x20 ADD DUP1 DUP4 GT PUSH2 0x8FF JUMPI DUP3 SWAP1 SUB PUSH1 0x1F AND DUP3 ADD SWAP2 JUMPDEST POP POP POP POP POP SWAP1 DUP1 PUSH1 0x1 ADD SLOAD SWAP1 POP DUP3 JUMP JUMPDEST PUSH1 0x4 SLOAD DUP2 JUMP JUMPDEST PUSH0 DUP1 DUP1 SLOAD SWAP1 POP SWAP1 POP SWAP1 JUMP JUMPDEST PUSH1 0x40 MLOAD DUP1 PUSH1 0x40 ADD PUSH1 0x40 MSTORE DUP1 PUSH1 0x60 DUP2 MSTORE PUSH1 0x20 ADD PUSH0 DUP2 MSTORE POP SWAP1 JUMP JUMPDEST PUSH0 PUSH1 0x40 MLOAD SWAP1 POP SWAP1 JUMP JUMPDEST PUSH0 DUP1 REVERT JUMPDEST PUSH0 DUP1 REVERT JUMPDEST PUSH0 DUP1 REVERT JUMPDEST PUSH0 DUP1 REVERT JUMPDEST PUSH0 PUSH1 0x1F NOT PUSH1 0x1F DUP4 ADD AND SWAP1 POP SWAP2 SWAP1 POP JUMP JUMPDEST PUSH32 0x4E487B7100000000000000000000000000000000000000000000000000000000 PUSH0 MSTORE PUSH1 0x41 PUSH1 0x4 MSTORE PUSH1 0x24 PUSH0 REVERT JUMPDEST PUSH2 0x9B5 DUP3 PUSH2 0x96F JUMP JUMPDEST DUP2 ADD DUP2 DUP2 LT PUSH8 0xFFFFFFFFFFFFFFFF DUP3 GT OR ISZERO PUSH2 0x9D4 JUMPI PUSH2 0x9D3 PUSH2 0x97F JUMP JUMPDEST JUMPDEST DUP1 PUSH1 0x40 MSTORE POP POP POP JUMP JUMPDEST PUSH0 PUSH2 0x9E6 PUSH2 0x956 JUMP JUMPDEST SWAP1 POP PUSH2 0x9F2 DUP3 DUP3 PUSH2 0x9AC JUMP JUMPDEST SWAP2 SWAP1 POP JUMP JUMPDEST PUSH0 PUSH8 0xFFFFFFFFFFFFFFFF DUP3 GT ISZERO PUSH2 0xA11 JUMPI PUSH2 0xA10 PUSH2 0x97F JUMP JUMPDEST JUMPDEST PUSH2 0xA1A DUP3 PUSH2 0x96F JUMP JUMPDEST SWAP1 POP PUSH1 0x20 DUP2 ADD SWAP1 POP SWAP2 SWAP1 POP JUMP JUMPDEST DUP3 DUP2 DUP4 CALLDATACOPY PUSH0 DUP4 DUP4 ADD MSTORE POP POP POP JUMP JUMPDEST PUSH0 PUSH2 0xA47 PUSH2 0xA42 DUP5 PUSH2 0x9F7 JUMP JUMPDEST PUSH2 0x9DD JUMP JUMPDEST SWAP1 POP DUP3 DUP2 MSTORE PUSH1 0x20 DUP2 ADD DUP5 DUP5 DUP5 ADD GT ISZERO PUSH2 0xA63 JUMPI PUSH2 0xA62 PUSH2 0x96B JUMP JUMPDEST JUMPDEST PUSH2 0xA6E DUP5 DUP3 DUP6 PUSH2 0xA27 JUMP JUMPDEST POP SWAP4 SWAP3 POP POP POP JUMP JUMPDEST PUSH0 DUP3 PUSH1 0x1F DUP4 ADD SLT PUSH2 0xA8A JUMPI PUSH2 0xA89 PUSH2 0x967 JUMP JUMPDEST JUMPDEST DUP2 CALLDATALOAD PUSH2 0xA9A DUP5 DUP3 PUSH1 0x20 DUP7 ADD PUSH2 0xA35 JUMP JUMPDEST SWAP2 POP POP SWAP3 SWAP2 POP POP JUMP JUMPDEST PUSH0 PUSH1 0x20 DUP3 DUP5 SUB SLT ISZERO PUSH2 0xAB8 JUMPI PUSH2 0xAB7 PUSH2 0x95F JUMP JUMPDEST JUMPDEST PUSH0 DUP3 ADD CALLDATALOAD PUSH8 0xFFFFFFFFFFFFFFFF DUP2 GT ISZERO PUSH2 0xAD5 JUMPI PUSH2 0xAD4 PUSH2 0x963 JUMP JUMPDEST JUMPDEST PUSH2 0xAE1 DUP5 DUP3 DUP6 ADD PUSH2 0xA76 JUMP JUMPDEST SWAP2 POP POP SWAP3 SWAP2 POP POP JUMP JUMPDEST PUSH0 DUP2 MLOAD SWAP1 POP SWAP2 SWAP1 POP JUMP JUMPDEST PUSH0 DUP3 DUP3 MSTORE PUSH1 0x20 DUP3 ADD SWAP1 POP SWAP3 SWAP2 POP POP JUMP JUMPDEST PUSH0 DUP2 SWAP1 POP PUSH1 0x20 DUP3 ADD SWAP1 POP SWAP2 SWAP1 POP JUMP JUMPDEST PUSH0 DUP2 MLOAD SWAP1 POP SWAP2 SWAP1 POP JUMP JUMPDEST PUSH0 DUP3 DUP3 MSTORE PUSH1 0x20 DUP3 ADD SWAP1 POP SWAP3 SWAP2 POP POP JUMP JUMPDEST DUP3 DUP2 DUP4 MCOPY PUSH0 DUP4 DUP4 ADD MSTORE POP POP POP JUMP JUMPDEST PUSH0 PUSH2 0xB45 DUP3 PUSH2 0xB13 JUMP JUMPDEST PUSH2 0xB4F DUP2 DUP6 PUSH2 0xB1D JUMP JUMPDEST SWAP4 POP PUSH2 0xB5F DUP2 DUP6 PUSH1 0x20 DUP7 ADD PUSH2 0xB2D JUMP JUMPDEST PUSH2 0xB68 DUP2 PUSH2 0x96F JUMP JUMPDEST DUP5 ADD SWAP2 POP POP SWAP3 SWAP2 POP POP JUMP JUMPDEST PUSH0 DUP2 SWAP1 POP SWAP2 SWAP1 POP JUMP JUMPDEST PUSH2 0xB85 DUP2 PUSH2 0xB73 JUMP JUMPDEST DUP3 MSTORE POP POP JUMP JUMPDEST PUSH0 PUSH1 0x40 DUP4 ADD PUSH0 DUP4 ADD MLOAD DUP5 DUP3 SUB PUSH0 DUP7 ADD MSTORE PUSH2 0xBA5 DUP3 DUP3 PUSH2 0xB3B JUMP JUMPDEST SWAP2 POP POP PUSH1 0x20 DUP4 ADD MLOAD PUSH2 0xBBA PUSH1 0x20 DUP7 ADD DUP3 PUSH2 0xB7C JUMP JUMPDEST POP DUP1 SWAP2 POP POP SWAP3 SWAP2 POP POP JUMP JUMPDEST PUSH0 PUSH2 0xBD0 DUP4 DUP4 PUSH2 0xB8B JUMP JUMPDEST SWAP1 POP SWAP3 SWAP2 POP POP JUMP JUMPDEST PUSH0 PUSH1 0x20 DUP3 ADD SWAP1 POP SWAP2 SWAP1 POP JUMP JUMPDEST PUSH0 PUSH2 0xBEE DUP3 PUSH2 0xAEA JUMP JUMPDEST PUSH2 0xBF8 DUP2 DUP6 PUSH2 0xAF4 JUMP JUMPDEST SWAP4 POP DUP4 PUSH1 0x20 DUP3 MUL DUP6 ADD PUSH2 0xC0A DUP6 PUSH2 0xB04 JUMP JUMPDEST DUP1 PUSH0 JUMPDEST DUP6 DUP2 LT ISZERO PUSH2 0xC45 JUMPI DUP5 DUP5 SUB DUP10 MSTORE DUP2 MLOAD PUSH2 0xC26 DUP6 DUP3 PUSH2 0xBC5 JUMP JUMPDEST SWAP5 POP PUSH2 0xC31 DUP4 PUSH2 0xBD8 JUMP JUMPDEST SWAP3 POP PUSH1 0x20 DUP11 ADD SWAP10 POP POP PUSH1 0x1 DUP2 ADD SWAP1 POP PUSH2 0xC0D JUMP JUMPDEST POP DUP3 SWAP8 POP DUP8 SWAP6 POP POP POP POP POP POP SWAP3 SWAP2 POP POP JUMP JUMPDEST PUSH0 PUSH1 0x20 DUP3 ADD SWAP1 POP DUP2 DUP2 SUB PUSH0 DUP4 ADD MSTORE PUSH2 0xC6F DUP2 DUP5 PUSH2 0xBE4 JUMP JUMPDEST SWAP1 POP SWAP3 SWAP2 POP POP JUMP JUMPDEST PUSH2 0xC80 DUP2 PUSH2 0xB73 JUMP JUMPDEST DUP2 EQ PUSH2 0xC8A JUMPI PUSH0 DUP1 REVERT JUMPDEST POP JUMP JUMPDEST PUSH0 DUP2 CALLDATALOAD SWAP1 POP PUSH2 0xC9B DUP2 PUSH2 0xC77 JUMP JUMPDEST SWAP3 SWAP2 POP POP JUMP JUMPDEST PUSH0 PUSH1 0x20 DUP3 DUP5 SUB SLT ISZERO PUSH2 0xCB6 JUMPI PUSH2 0xCB5 PUSH2 0x95F JUMP JUMPDEST JUMPDEST PUSH0 PUSH2 0xCC3 DUP5 DUP3 DUP6 ADD PUSH2 0xC8D JUMP JUMPDEST SWAP2 POP POP SWAP3 SWAP2 POP POP JUMP JUMPDEST PUSH0 PUSH20 0xFFFFFFFFFFFFFFFFFFFFFFFFFFFFFFFFFFFFFFFF DUP3 AND SWAP1 POP SWAP2 SWAP1 POP JUMP JUMPDEST PUSH0 PUSH2 0xCF5 DUP3 PUSH2 0xCCC JUMP JUMPDEST SWAP1 POP SWAP2 SWAP1 POP JUMP JUMPDEST PUSH2 0xD05 DUP2 PUSH2 0xCEB JUMP JUMPDEST DUP2 EQ PUSH2 0xD0F JUMPI PUSH0 DUP1 REVERT JUMPDEST POP JUMP JUMPDEST PUSH0 DUP2 CALLDATALOAD SWAP1 POP PUSH2 0xD20 DUP2 PUSH2 0xCFC JUMP JUMPDEST SWAP3 SWAP2 POP POP JUMP JUMPDEST PUSH0 PUSH1 0x20 DUP3 DUP5 SUB SLT ISZERO PUSH2 0xD3B JUMPI PUSH2 0xD3A PUSH2 0x95F JUMP JUMPDEST JUMPDEST PUSH0 PUSH2 0xD48 DUP5 DUP3 DUP6 ADD PUSH2 0xD12 JUMP JUMPDEST SWAP2 POP POP SWAP3 SWAP2 POP POP JUMP JUMPDEST PUSH0 DUP2 ISZERO ISZERO SWAP1 POP SWAP2 SWAP1 POP JUMP JUMPDEST PUSH2 0xD65 DUP2 PUSH2 0xD51 JUMP JUMPDEST DUP3 MSTORE POP POP JUMP JUMPDEST PUSH0 PUSH1 0x20 DUP3 ADD SWAP1 POP PUSH2 0xD7E PUSH0 DUP4 ADD DUP5 PUSH2 0xD5C JUMP JUMPDEST SWAP3 SWAP2 POP POP JUMP JUMPDEST PUSH0 DUP3 DUP3 MSTORE PUSH1 0x20 DUP3 ADD SWAP1 POP SWAP3 SWAP2 POP POP JUMP JUMPDEST PUSH0 PUSH2 0xD9E DUP3 PUSH2 0xB13 JUMP JUMPDEST PUSH2 0xDA8 DUP2 DUP6 PUSH2 0xD84 JUMP JUMPDEST SWAP4 POP PUSH2 0xDB8 DUP2 DUP6 PUSH1 0x20 DUP7 ADD PUSH2 0xB2D JUMP JUMPDEST PUSH2 0xDC1 DUP2 PUSH2 0x96F JUMP JUMPDEST DUP5 ADD SWAP2 POP POP SWAP3 SWAP2 POP POP JUMP JUMPDEST PUSH2 0xDD5 DUP2 PUSH2 0xB73 JUMP JUMPDEST DUP3 MSTORE POP POP JUMP JUMPDEST PUSH0 PUSH1 0x40 DUP3 ADD SWAP1 POP DUP2 DUP2 SUB PUSH0 DUP4 ADD MSTORE PUSH2 0xDF3 DUP2 DUP6 PUSH2 0xD94 JUMP JUMPDEST SWAP1 POP PUSH2 0xE02 PUSH1 0x20 DUP4 ADD DUP5 PUSH2 0xDCC JUMP JUMPDEST SWAP4 SWAP3 POP POP POP JUMP JUMPDEST PUSH2 0xE12 DUP2 PUSH2 0xCEB JUMP JUMPDEST DUP3 MSTORE POP POP JUMP JUMPDEST PUSH0 PUSH1 0x20 DUP3 ADD SWAP1 POP PUSH2 0xE2B PUSH0 DUP4 ADD DUP5 PUSH2 0xE09 JUMP JUMPDEST SWAP3 SWAP2 POP POP JUMP JUMPDEST PUSH0 PUSH1 0x20 DUP3 ADD SWAP1 POP PUSH2 0xE44 PUSH0 DUP4 ADD DUP5 PUSH2 0xDCC JUMP JUMPDEST SWAP3 SWAP2 POP POP JUMP JUMPDEST PUSH32 0x536F6C6F20656C2070726F706965746172696F20707565646520656A65637574 PUSH0 DUP3 ADD MSTORE PUSH32 0x617220657374612066756E63696F6E2E00000000000000000000000000000000 PUSH1 0x20 DUP3 ADD MSTORE POP JUMP JUMPDEST PUSH0 PUSH2 0xEA4 PUSH1 0x30 DUP4 PUSH2 0xD84 JUMP JUMPDEST SWAP2 POP PUSH2 0xEAF DUP3 PUSH2 0xE4A JUMP JUMPDEST PUSH1 0x40 DUP3 ADD SWAP1 POP SWAP2 SWAP1 POP JUMP JUMPDEST PUSH0 PUSH1 0x20 DUP3 ADD SWAP1 POP DUP2 DUP2 SUB PUSH0 DUP4 ADD MSTORE PUSH2 0xED1 DUP2 PUSH2 0xE98 JUMP JUMPDEST SWAP1 POP SWAP2 SWAP1 POP JUMP JUMPDEST PUSH32 0x4E487B7100000000000000000000000000000000000000000000000000000000 PUSH0 MSTORE PUSH1 0x22 PUSH1 0x4 MSTORE PUSH1 0x24 PUSH0 REVERT JUMPDEST PUSH0 PUSH1 0x2 DUP3 DIV SWAP1 POP PUSH1 0x1 DUP3 AND DUP1 PUSH2 0xF1C JUMPI PUSH1 0x7F DUP3 AND SWAP2 POP JUMPDEST PUSH1 0x20 DUP3 LT DUP2 SUB PUSH2 0xF2F JUMPI PUSH2 0xF2E PUSH2 0xED8 JUMP JUMPDEST JUMPDEST POP SWAP2 SWAP1 POP JUMP JUMPDEST PUSH0 DUP2 SWAP1 POP DUP2 PUSH0 MSTORE PUSH1 0x20 PUSH0 KECCAK256 SWAP1 POP SWAP2 SWAP1 POP JUMP JUMPDEST PUSH0 PUSH1 0x20 PUSH1 0x1F DUP4 ADD DIV SWAP1 POP SWAP2 SWAP1 POP JUMP JUMPDEST PUSH0 DUP3 DUP3 SHL SWAP1 POP SWAP3 SWAP2 POP POP JUMP JUMPDEST PUSH0 PUSH1 0x8 DUP4 MUL PUSH2 0xF91 PUSH32 0xFFFFFFFFFFFFFFFFFFFFFFFFFFFFFFFFFFFFFFFFFFFFFFFFFFFFFFFFFFFFFFFF DUP3 PUSH2 0xF56 JUMP JUMPDEST PUSH2 0xF9B DUP7 DUP4 PUSH2 0xF56 JUMP JUMPDEST SWAP6 POP DUP1 NOT DUP5 AND SWAP4 POP DUP1 DUP7 AND DUP5 OR SWAP3 POP POP POP SWAP4 SWAP3 POP POP POP JUMP JUMPDEST PUSH0 DUP2 SWAP1 POP SWAP2 SWAP1 POP JUMP JUMPDEST PUSH0 PUSH2 0xFD6 PUSH2 0xFD1 PUSH2 0xFCC DUP5 PUSH2 0xB73 JUMP JUMPDEST PUSH2 0xFB3 JUMP JUMPDEST PUSH2 0xB73 JUMP JUMPDEST SWAP1 POP SWAP2 SWAP1 POP JUMP JUMPDEST PUSH0 DUP2 SWAP1 POP SWAP2 SWAP1 POP JUMP JUMPDEST PUSH2 0xFEF DUP4 PUSH2 0xFBC JUMP JUMPDEST PUSH2 0x1003 PUSH2 0xFFB DUP3 PUSH2 0xFDD JUMP JUMPDEST DUP5 DUP5 SLOAD PUSH2 0xF62 JUMP JUMPDEST DUP3 SSTORE POP POP POP POP JUMP JUMPDEST PUSH0 SWAP1 JUMP JUMPDEST PUSH2 0x1017 PUSH2 0x100B JUMP JUMPDEST PUSH2 0x1022 DUP2 DUP5 DUP5 PUSH2 0xFE6 JUMP JUMPDEST POP POP POP JUMP JUMPDEST JUMPDEST DUP2 DUP2 LT ISZERO PUSH2 0x1045 JUMPI PUSH2 0x103A PUSH0 DUP3 PUSH2 0x100F JUMP JUMPDEST PUSH1 0x1 DUP2 ADD SWAP1 POP PUSH2 0x1028 JUMP JUMPDEST POP POP JUMP JUMPDEST PUSH1 0x1F DUP3 GT ISZERO PUSH2 0x108A JUMPI PUSH2 0x105B DUP2 PUSH2 0xF35 JUMP JUMPDEST PUSH2 0x1064 DUP5 PUSH2 0xF47 JUMP JUMPDEST DUP2 ADD PUSH1 0x20 DUP6 LT ISZERO PUSH2 0x1073 JUMPI DUP2 SWAP1 POP JUMPDEST PUSH2 0x1087 PUSH2 0x107F DUP6 PUSH2 0xF47 JUMP JUMPDEST DUP4 ADD DUP3 PUSH2 0x1027 JUMP JUMPDEST POP POP JUMPDEST POP POP POP JUMP JUMPDEST PUSH0 DUP3 DUP3 SHR SWAP1 POP SWAP3 SWAP2 POP POP JUMP JUMPDEST PUSH0 PUSH2 0x10AA PUSH0 NOT DUP5 PUSH1 0x8 MUL PUSH2 0x108F JUMP JUMPDEST NOT DUP1 DUP4 AND SWAP2 POP POP SWAP3 SWAP2 POP POP JUMP JUMPDEST PUSH0 PUSH2 0x10C2 DUP4 DUP4 PUSH2 0x109B JUMP JUMPDEST SWAP2 POP DUP3 PUSH1 0x2 MUL DUP3 OR SWAP1 POP SWAP3 SWAP2 POP POP JUMP JUMPDEST PUSH2 0x10DB DUP3 PUSH2 0xB13 JUMP JUMPDEST PUSH8 0xFFFFFFFFFFFFFFFF DUP2 GT ISZERO PUSH2 0x10F4 JUMPI PUSH2 0x10F3 PUSH2 0x97F JUMP JUMPDEST JUMPDEST PUSH2 0x10FE DUP3 SLOAD PUSH2 0xF05 JUMP JUMPDEST PUSH2 0x1109 DUP3 DUP3 DUP6 PUSH2 0x1049 JUMP JUMPDEST PUSH0 PUSH1 0x20 SWAP1 POP PUSH1 0x1F DUP4 GT PUSH1 0x1 DUP2 EQ PUSH2 0x113A JUMPI PUSH0 DUP5 ISZERO PUSH2 0x1128 JUMPI DUP3 DUP8 ADD MLOAD SWAP1 POP JUMPDEST PUSH2 0x1132 DUP6 DUP3 PUSH2 0x10B7 JUMP JUMPDEST DUP7 SSTORE POP PUSH2 0x1199 JUMP JUMPDEST PUSH1 0x1F NOT DUP5 AND PUSH2 0x1148 DUP7 PUSH2 0xF35 JUMP JUMPDEST PUSH0 JUMPDEST DUP3 DUP2 LT ISZERO PUSH2 0x116F JUMPI DUP5 DUP10 ADD MLOAD DUP3 SSTORE PUSH1 0x1 DUP3 ADD SWAP2 POP PUSH1 0x20 DUP6 ADD SWAP5 POP PUSH1 0x20 DUP2 ADD SWAP1 POP PUSH2 0x114A JUMP JUMPDEST DUP7 DUP4 LT ISZERO PUSH2 0x118C JUMPI DUP5 DUP10 ADD MLOAD PUSH2 0x1188 PUSH1 0x1F DUP10 AND DUP3 PUSH2 0x109B JUMP JUMPDEST DUP4 SSTORE POP JUMPDEST PUSH1 0x1 PUSH1 0x2 DUP9 MUL ADD DUP9 SSTORE POP POP POP JUMPDEST POP POP POP POP POP POP JUMP JUMPDEST PUSH32 0x4E487B7100000000000000000000000000000000000000000000000000000000 PUSH0 MSTORE PUSH1 0x32 PUSH1 0x4 MSTORE PUSH1 0x24 PUSH0 REVERT JUMPDEST PUSH32 0x536F6C6F206C617320706572736F6E6173206175746F72697A61646173207075 PUSH0 DUP3 ADD MSTORE PUSH32 0x6564656E20766F7461722E000000000000000000000000000000000000000000 PUSH1 0x20 DUP3 ADD MSTORE POP JUMP JUMPDEST PUSH0 PUSH2 0x1228 PUSH1 0x2B DUP4 PUSH2 0xD84 JUMP JUMPDEST SWAP2 POP PUSH2 0x1233 DUP3 PUSH2 0x11CE JUMP JUMPDEST PUSH1 0x40 DUP3 ADD SWAP1 POP SWAP2 SWAP1 POP JUMP JUMPDEST PUSH0 PUSH1 0x20 DUP3 ADD SWAP1 POP DUP2 DUP2 SUB PUSH0 DUP4 ADD MSTORE PUSH2 0x1255 DUP2 PUSH2 0x121C JUMP JUMPDEST SWAP1 POP SWAP2 SWAP1 POP JUMP JUMPDEST PUSH32 0x456C20706572696F646F20646520766F746163696F6E2068612066696E616C69 PUSH0 DUP3 ADD MSTORE PUSH32 0x7A61646F2E000000000000000000000000000000000000000000000000000000 PUSH1 0x20 DUP3 ADD MSTORE POP JUMP JUMPDEST PUSH0 PUSH2 0x12B6 PUSH1 0x25 DUP4 PUSH2 0xD84 JUMP JUMPDEST SWAP2 POP PUSH2 0x12C1 DUP3 PUSH2 0x125C JUMP JUMPDEST PUSH1 0x40 DUP3 ADD SWAP1 POP SWAP2 SWAP1 POP JUMP JUMPDEST PUSH0 PUSH1 0x20 DUP3 ADD SWAP1 POP DUP2 DUP2 SUB PUSH0 DUP4 ADD MSTORE PUSH2 0x12E3 DUP2 PUSH2 0x12AA JUMP JUMPDEST SWAP1 POP SWAP2 SWAP1 POP JUMP JUMPDEST PUSH32 0x557374656420796120766F746F2E000000000000000000000000000000000000 PUSH0 DUP3 ADD MSTORE POP JUMP JUMPDEST PUSH0 PUSH2 0x131E PUSH1 0xE DUP4 PUSH2 0xD84 JUMP JUMPDEST SWAP2 POP PUSH2 0x1329 DUP3 PUSH2 0x12EA JUMP JUMPDEST PUSH1 0x20 DUP3 ADD SWAP1 POP SWAP2 SWAP1 POP JUMP JUMPDEST PUSH0 PUSH1 0x20 DUP3 ADD SWAP1 POP DUP2 DUP2 SUB PUSH0 DUP4 ADD MSTORE PUSH2 0x134B DUP2 PUSH2 0x1312 JUMP JUMPDEST SWAP1 POP SWAP2 SWAP1 POP JUMP JUMPDEST PUSH32 0x4E487B7100000000000000000000000000000000000000000000000000000000 PUSH0 MSTORE PUSH1 0x11 PUSH1 0x4 MSTORE PUSH1 0x24 PUSH0 REVERT JUMPDEST PUSH0 PUSH2 0x1389 DUP3 PUSH2 0xB73 JUMP JUMPDEST SWAP2 POP PUSH2 0x1394 DUP4 PUSH2 0xB73 JUMP JUMPDEST SWAP3 POP DUP3 DUP3 ADD SWAP1 POP DUP1 DUP3 GT ISZERO PUSH2 0x13AC JUMPI PUSH2 0x13AB PUSH2 0x1352 JUMP JUMPDEST JUMPDEST SWAP3 SWAP2 POP POP JUMP INVALID LOG2 PUSH5 0x6970667358 0x22 SLT KECCAK256 0xA7 TIMESTAMP PUSH8 0xBC76A64340EAA61 DUP14 0xDA 0x2E SWAP9 CALLDATASIZE SWAP14 PUSH21 0xA661B5A943F402A7EF2BFC30BC4D64736F6C634300 ADDMOD BYTE STOP CALLER "
				},
				"gasEstimates": {
					"creation": {
						"codeDepositCost": "1019200",
						"executionCost": "infinite",
						"totalCost": "infinite"
					},
					"external": {
						"adicionarDireccion(address)": "27016",
						"adicionarPropuesta(string)": "infinite",
						"propietario()": "2530",
						"propuestas(uint256)": "infinite",
						"retornarCuantasPropuestas()": "2550",
						"retornarPropuesta(uint256)": "infinite",
						"retornarPropuestas()": "infinite",
						"sufragantes(address)": "2900",
						"tiempoVotacion()": "2513",
						"votar(uint256)": "infinite",
						"whiteList(address)": "2833"
					}
				},
				"methodIdentifiers": {
					"adicionarDireccion(address)": "406f12cb",
					"adicionarPropuesta(string)": "0a401942",
					"propietario()": "3c4f81cd",
					"propuestas(uint256)": "6097e216",
					"retornarCuantasPropuestas()": "c60bb713",
					"retornarPropuesta(uint256)": "2759f38e",
					"retornarPropuestas()": "1608d15f",
					"sufragantes(address)": "27073c4c",
					"tiempoVotacion()": "7334151b",
					"votar(uint256)": "21606831",
					"whiteList(address)": "372c12b1"
				}
			},
			"storageLayout": {
				"storage": [
					{
						"astId": 11,
						"contract": "1_Votacion_descentralizada.sol:Votacion",
						"label": "propuestas",
						"offset": 0,
						"slot": "0",
						"type": "t_array(t_struct(Propuesta)7_storage)dyn_storage"
					},
					{
						"astId": 13,
						"contract": "1_Votacion_descentralizada.sol:Votacion",
						"label": "propietario",
						"offset": 0,
						"slot": "1",
						"type": "t_address"
					},
					{
						"astId": 17,
						"contract": "1_Votacion_descentralizada.sol:Votacion",
						"label": "whiteList",
						"offset": 0,
						"slot": "2",
						"type": "t_mapping(t_address,t_bool)"
					},
					{
						"astId": 21,
						"contract": "1_Votacion_descentralizada.sol:Votacion",
						"label": "sufragantes",
						"offset": 0,
						"slot": "3",
						"type": "t_mapping(t_address,t_bool)"
					},
					{
						"astId": 23,
						"contract": "1_Votacion_descentralizada.sol:Votacion",
						"label": "tiempoVotacion",
						"offset": 0,
						"slot": "4",
						"type": "t_uint256"
					}
				],
				"types": {
					"t_address": {
						"encoding": "inplace",
						"label": "address",
						"numberOfBytes": "20"
					},
					"t_array(t_struct(Propuesta)7_storage)dyn_storage": {
						"base": "t_struct(Propuesta)7_storage",
						"encoding": "dynamic_array",
						"label": "struct Votacion.Propuesta[]",
						"numberOfBytes": "32"
					},
					"t_bool": {
						"encoding": "inplace",
						"label": "bool",
						"numberOfBytes": "1"
					},
					"t_mapping(t_address,t_bool)": {
						"encoding": "mapping",
						"key": "t_address",
						"label": "mapping(address => bool)",
						"numberOfBytes": "32",
						"value": "t_bool"
					},
					"t_string_storage": {
						"encoding": "bytes",
						"label": "string",
						"numberOfBytes": "32"
					},
					"t_struct(Propuesta)7_storage": {
						"encoding": "inplace",
						"label": "struct Votacion.Propuesta",
						"members": [
							{
								"astId": 4,
								"contract": "1_Votacion_descentralizada.sol:Votacion",
								"label": "nombre",
								"offset": 0,
								"slot": "0",
								"type": "t_string_storage"
							},
							{
								"astId": 6,
								"contract": "1_Votacion_descentralizada.sol:Votacion",
								"label": "votosTotales",
								"offset": 0,
								"slot": "1",
								"type": "t_uint256"
							}
						],
						"numberOfBytes": "64"
					},
					"t_uint256": {
						"encoding": "inplace",
						"label": "uint256",
						"numberOfBytes": "32"
					}
				}
			},
			"userdoc": {
				"kind": "user",
				"methods": {},
				"version": 1
			}
		}
	}
}