{
	"1_Votacion_descentralizada.sol": {
		"Votacion": {
			"abi": [
				{
					"inputs": [
						{
							"internalType": "uint256",
							"name": "duraccionContrato",
							"type": "uint256"
						}
					],
					"stateMutability": "nonpayable",
					"type": "constructor"
				},
				{
					"inputs": [
						{
							"internalType": "address",
							"name": "sufra",
							"type": "address"
						}
					],
					"name": "adicionarDireccion",
					"outputs": [],
					"stateMutability": "nonpayable",
					"type": "function"
				},
				{
					"inputs": [
						{
							"internalType": "string",
							"name": "propu",
							"type": "string"
						}
					],
					"name": "adicionarPropuesta",
					"outputs": [],
					"stateMutability": "nonpayable",
					"type": "function"
				},
				{
					"inputs": [],
					"name": "propietario",
					"outputs": [
						{
							"internalType": "address",
							"name": "",
							"type": "address"
						}
					],
					"stateMutability": "view",
					"type": "function"
				},
				{
					"inputs": [
						{
							"internalType": "uint256",
							"name": "",
							"type": "uint256"
						}
					],
					"name": "propuestas",
					"outputs": [
						{
							"internalType": "string",
							"name": "nombre",
							"type": "string"
						},
						{
							"internalType": "uint256",
							"name": "votosTotales",
							"type": "uint256"
						}
					],
					"stateMutability": "view",
					"type": "function"
				},
				{
					"inputs": [
						{
							"internalType": "address",
							"name": "",
							"type": "address"
						}
					],
					"name": "sufragantes",
					"outputs": [
						{
							"internalType": "bool",
							"name": "",
							"type": "bool"
						}
					],
					"stateMutability": "view",
					"type": "function"
				},
				{
					"inputs": [],
					"name": "tiempoVotacion",
					"outputs": [
						{
							"internalType": "uint256",
							"name": "",
							"type": "uint256"
						}
					],
					"stateMutability": "view",
					"type": "function"
				},
				{
					"inputs": [
						{
							"internalType": "uint256",
							"name": "indicePropu",
							"type": "uint256"
						}
					],
					"name": "votar",
					"outputs": [],
					"stateMutability": "nonpayable",
					"type": "function"
				},
				{
					"inputs": [
						{
							"internalType": "address",
							"name": "",
							"type": "address"
						}
					],
					"name": "whiteList",
					"outputs": [
						{
							"internalType": "bool",
							"name": "",
							"type": "bool"
						}
					],
					"stateMutability": "view",
					"type": "function"
				}
			],
			"devdoc": {
				"kind": "dev",
				"methods": {},
				"title": "Votacion (Descentralizada)",
				"version": 1
			},
			"evm": {
				"assembly": "    /* \"1_Votacion_descentralizada.sol\":190:2678  contract Votacion {... */\n  mstore(0x40, 0x80)\n    /* \"1_Votacion_descentralizada.sol\":998:1154  constructor(uint256 duraccionContrato) {... */\n  callvalue\n  dup1\n  iszero\n  tag_1\n  jumpi\n  0x00\n  dup1\n  revert\ntag_1:\n  pop\n  mload(0x40)\n  sub(codesize, bytecodeSize)\n  dup1\n  bytecodeSize\n  dup4\n  codecopy\n  dup2\n  dup2\n  add\n  0x40\n  mstore\n  dup2\n  add\n  swap1\n  tag_2\n  swap2\n  swap1\n  tag_3\n  jump\t// in\ntag_2:\n    /* \"1_Votacion_descentralizada.sol\":1062:1072  msg.sender */\n  caller\n    /* \"1_Votacion_descentralizada.sol\":1048:1059  propietario */\n  0x01\n  0x00\n    /* \"1_Votacion_descentralizada.sol\":1048:1072  propietario = msg.sender */\n  0x0100\n  exp\n  dup2\n  sload\n  dup2\n  0xffffffffffffffffffffffffffffffffffffffff\n  mul\n  not\n  and\n  swap1\n  dup4\n  0xffffffffffffffffffffffffffffffffffffffff\n  and\n  mul\n  or\n  swap1\n  sstore\n  pop\n    /* \"1_Votacion_descentralizada.sol\":1139:1145  1 days */\n  0x015180\n    /* \"1_Votacion_descentralizada.sol\":1119:1136  duraccionContrato */\n  dup2\n    /* \"1_Votacion_descentralizada.sol\":1119:1145  duraccionContrato * 1 days */\n  tag_6\n  swap2\n  swap1\n  tag_7\n  jump\t// in\ntag_6:\n    /* \"1_Votacion_descentralizada.sol\":1100:1115  block.timestamp */\n  timestamp\n    /* \"1_Votacion_descentralizada.sol\":1100:1146  block.timestamp + (duraccionContrato * 1 days) */\n  tag_8\n  swap2\n  swap1\n  tag_9\n  jump\t// in\ntag_8:\n    /* \"1_Votacion_descentralizada.sol\":1083:1097  tiempoVotacion */\n  0x04\n    /* \"1_Votacion_descentralizada.sol\":1083:1146  tiempoVotacion = block.timestamp + (duraccionContrato * 1 days) */\n  dup2\n  swap1\n  sstore\n  pop\n    /* \"1_Votacion_descentralizada.sol\":998:1154  constructor(uint256 duraccionContrato) {... */\n  pop\n    /* \"1_Votacion_descentralizada.sol\":190:2678  contract Votacion {... */\n  jump(tag_10)\n    /* \"#utility.yul\":88:205   */\ntag_12:\n    /* \"#utility.yul\":197:198   */\n  0x00\n    /* \"#utility.yul\":194:195   */\n  dup1\n    /* \"#utility.yul\":187:199   */\n  revert\n    /* \"#utility.yul\":334:411   */\ntag_14:\n    /* \"#utility.yul\":371:378   */\n  0x00\n    /* \"#utility.yul\":400:405   */\n  dup2\n    /* \"#utility.yul\":389:405   */\n  swap1\n  pop\n    /* \"#utility.yul\":334:411   */\n  swap2\n  swap1\n  pop\n  jump\t// out\n    /* \"#utility.yul\":417:539   */\ntag_15:\n    /* \"#utility.yul\":490:514   */\n  tag_24\n    /* \"#utility.yul\":508:513   */\n  dup2\n    /* \"#utility.yul\":490:514   */\n  tag_14\n  jump\t// in\ntag_24:\n    /* \"#utility.yul\":483:488   */\n  dup2\n    /* \"#utility.yul\":480:515   */\n  eq\n    /* \"#utility.yul\":470:533   */\n  tag_25\n  jumpi\n    /* \"#utility.yul\":529:530   */\n  0x00\n    /* \"#utility.yul\":526:527   */\n  dup1\n    /* \"#utility.yul\":519:531   */\n  revert\n    /* \"#utility.yul\":470:533   */\ntag_25:\n    /* \"#utility.yul\":417:539   */\n  pop\n  jump\t// out\n    /* \"#utility.yul\":545:688   */\ntag_16:\n    /* \"#utility.yul\":602:607   */\n  0x00\n    /* \"#utility.yul\":633:639   */\n  dup2\n    /* \"#utility.yul\":627:640   */\n  mload\n    /* \"#utility.yul\":618:640   */\n  swap1\n  pop\n    /* \"#utility.yul\":649:682   */\n  tag_27\n    /* \"#utility.yul\":676:681   */\n  dup2\n    /* \"#utility.yul\":649:682   */\n  tag_15\n  jump\t// in\ntag_27:\n    /* \"#utility.yul\":545:688   */\n  swap3\n  swap2\n  pop\n  pop\n  jump\t// out\n    /* \"#utility.yul\":694:1045   */\ntag_3:\n    /* \"#utility.yul\":764:770   */\n  0x00\n    /* \"#utility.yul\":813:815   */\n  0x20\n    /* \"#utility.yul\":801:810   */\n  dup3\n    /* \"#utility.yul\":792:799   */\n  dup5\n    /* \"#utility.yul\":788:811   */\n  sub\n    /* \"#utility.yul\":784:816   */\n  slt\n    /* \"#utility.yul\":781:900   */\n  iszero\n  tag_29\n  jumpi\n    /* \"#utility.yul\":819:898   */\n  tag_30\n  tag_12\n  jump\t// in\ntag_30:\n    /* \"#utility.yul\":781:900   */\ntag_29:\n    /* \"#utility.yul\":939:940   */\n  0x00\n    /* \"#utility.yul\":964:1028   */\n  tag_31\n    /* \"#utility.yul\":1020:1027   */\n  dup5\n    /* \"#utility.yul\":1011:1017   */\n  dup3\n    /* \"#utility.yul\":1000:1009   */\n  dup6\n    /* \"#utility.yul\":996:1018   */\n  add\n    /* \"#utility.yul\":964:1028   */\n  tag_16\n  jump\t// in\ntag_31:\n    /* \"#utility.yul\":954:1028   */\n  swap2\n  pop\n    /* \"#utility.yul\":910:1038   */\n  pop\n    /* \"#utility.yul\":694:1045   */\n  swap3\n  swap2\n  pop\n  pop\n  jump\t// out\n    /* \"#utility.yul\":1051:1231   */\ntag_17:\n    /* \"#utility.yul\":1099:1176   */\n  0x4e487b7100000000000000000000000000000000000000000000000000000000\n    /* \"#utility.yul\":1096:1097   */\n  0x00\n    /* \"#utility.yul\":1089:1177   */\n  mstore\n    /* \"#utility.yul\":1196:1200   */\n  0x11\n    /* \"#utility.yul\":1193:1194   */\n  0x04\n    /* \"#utility.yul\":1186:1201   */\n  mstore\n    /* \"#utility.yul\":1220:1224   */\n  0x24\n    /* \"#utility.yul\":1217:1218   */\n  0x00\n    /* \"#utility.yul\":1210:1225   */\n  revert\n    /* \"#utility.yul\":1237:1647   */\ntag_7:\n    /* \"#utility.yul\":1277:1284   */\n  0x00\n    /* \"#utility.yul\":1300:1320   */\n  tag_34\n    /* \"#utility.yul\":1318:1319   */\n  dup3\n    /* \"#utility.yul\":1300:1320   */\n  tag_14\n  jump\t// in\ntag_34:\n    /* \"#utility.yul\":1295:1320   */\n  swap2\n  pop\n    /* \"#utility.yul\":1334:1354   */\n  tag_35\n    /* \"#utility.yul\":1352:1353   */\n  dup4\n    /* \"#utility.yul\":1334:1354   */\n  tag_14\n  jump\t// in\ntag_35:\n    /* \"#utility.yul\":1329:1354   */\n  swap3\n  pop\n    /* \"#utility.yul\":1389:1390   */\n  dup3\n    /* \"#utility.yul\":1386:1387   */\n  dup3\n    /* \"#utility.yul\":1382:1391   */\n  mul\n    /* \"#utility.yul\":1411:1441   */\n  tag_36\n    /* \"#utility.yul\":1429:1440   */\n  dup2\n    /* \"#utility.yul\":1411:1441   */\n  tag_14\n  jump\t// in\ntag_36:\n    /* \"#utility.yul\":1400:1441   */\n  swap2\n  pop\n    /* \"#utility.yul\":1590:1591   */\n  dup3\n    /* \"#utility.yul\":1581:1588   */\n  dup3\n    /* \"#utility.yul\":1577:1592   */\n  div\n    /* \"#utility.yul\":1574:1575   */\n  dup5\n    /* \"#utility.yul\":1571:1593   */\n  eq\n    /* \"#utility.yul\":1551:1552   */\n  dup4\n    /* \"#utility.yul\":1544:1553   */\n  iszero\n    /* \"#utility.yul\":1524:1607   */\n  or\n    /* \"#utility.yul\":1501:1640   */\n  tag_37\n  jumpi\n    /* \"#utility.yul\":1620:1638   */\n  tag_38\n  tag_17\n  jump\t// in\ntag_38:\n    /* \"#utility.yul\":1501:1640   */\ntag_37:\n    /* \"#utility.yul\":1285:1647   */\n  pop\n    /* \"#utility.yul\":1237:1647   */\n  swap3\n  swap2\n  pop\n  pop\n  jump\t// out\n    /* \"#utility.yul\":1653:1844   */\ntag_9:\n    /* \"#utility.yul\":1693:1696   */\n  0x00\n    /* \"#utility.yul\":1712:1732   */\n  tag_40\n    /* \"#utility.yul\":1730:1731   */\n  dup3\n    /* \"#utility.yul\":1712:1732   */\n  tag_14\n  jump\t// in\ntag_40:\n    /* \"#utility.yul\":1707:1732   */\n  swap2\n  pop\n    /* \"#utility.yul\":1746:1766   */\n  tag_41\n    /* \"#utility.yul\":1764:1765   */\n  dup4\n    /* \"#utility.yul\":1746:1766   */\n  tag_14\n  jump\t// in\ntag_41:\n    /* \"#utility.yul\":1741:1766   */\n  swap3\n  pop\n    /* \"#utility.yul\":1789:1790   */\n  dup3\n    /* \"#utility.yul\":1786:1787   */\n  dup3\n    /* \"#utility.yul\":1782:1791   */\n  add\n    /* \"#utility.yul\":1775:1791   */\n  swap1\n  pop\n    /* \"#utility.yul\":1810:1813   */\n  dup1\n    /* \"#utility.yul\":1807:1808   */\n  dup3\n    /* \"#utility.yul\":1804:1814   */\n  gt\n    /* \"#utility.yul\":1801:1837   */\n  iszero\n  tag_42\n  jumpi\n    /* \"#utility.yul\":1817:1835   */\n  tag_43\n  tag_17\n  jump\t// in\ntag_43:\n    /* \"#utility.yul\":1801:1837   */\ntag_42:\n    /* \"#utility.yul\":1653:1844   */\n  swap3\n  swap2\n  pop\n  pop\n  jump\t// out\n    /* \"1_Votacion_descentralizada.sol\":190:2678  contract Votacion {... */\ntag_10:\n  dataSize(sub_0)\n  dup1\n  dataOffset(sub_0)\n  0x00\n  codecopy\n  0x00\n  return\nstop\n\nsub_0: assembly {\n        /* \"1_Votacion_descentralizada.sol\":190:2678  contract Votacion {... */\n      mstore(0x40, 0x80)\n      callvalue\n      dup1\n      iszero\n      tag_1\n      jumpi\n      0x00\n      dup1\n      revert\n    tag_1:\n      pop\n      jumpi(tag_2, lt(calldatasize, 0x04))\n      shr(0xe0, calldataload(0x00))\n      dup1\n      0x3c4f81cd\n      gt\n      tag_11\n      jumpi\n      dup1\n      0x3c4f81cd\n      eq\n      tag_7\n      jumpi\n      dup1\n      0x406f12cb\n      eq\n      tag_8\n      jumpi\n      dup1\n      0x6097e216\n      eq\n      tag_9\n      jumpi\n      dup1\n      0x7334151b\n      eq\n      tag_10\n      jumpi\n      jump(tag_2)\n    tag_11:\n      dup1\n      0x0a401942\n      eq\n      tag_3\n      jumpi\n      dup1\n      0x21606831\n      eq\n      tag_4\n      jumpi\n      dup1\n      0x27073c4c\n      eq\n      tag_5\n      jumpi\n      dup1\n      0x372c12b1\n      eq\n      tag_6\n      jumpi\n    tag_2:\n      0x00\n      dup1\n      revert\n        /* \"1_Votacion_descentralizada.sol\":2304:2452  function adicionarPropuesta(string memory propu) public soloPropietario {... */\n    tag_3:\n      tag_12\n      0x04\n      dup1\n      calldatasize\n      sub\n      dup2\n      add\n      swap1\n      tag_13\n      swap2\n      swap1\n      tag_14\n      jump\t// in\n    tag_13:\n      tag_15\n      jump\t// in\n    tag_12:\n      stop\n        /* \"1_Votacion_descentralizada.sol\":2488:2673  function votar(uint256 indicePropu) public soloWhitelist soloDuranteVotacion yaVoto {... */\n    tag_4:\n      tag_16\n      0x04\n      dup1\n      calldatasize\n      sub\n      dup2\n      add\n      swap1\n      tag_17\n      swap2\n      swap1\n      tag_18\n      jump\t// in\n    tag_17:\n      tag_19\n      jump\t// in\n    tag_16:\n      stop\n        /* \"1_Votacion_descentralizada.sol\":842:885  mapping(address => bool) public sufragantes */\n    tag_5:\n      tag_20\n      0x04\n      dup1\n      calldatasize\n      sub\n      dup2\n      add\n      swap1\n      tag_21\n      swap2\n      swap1\n      tag_22\n      jump\t// in\n    tag_21:\n      tag_23\n      jump\t// in\n    tag_20:\n      mload(0x40)\n      tag_24\n      swap2\n      swap1\n      tag_25\n      jump\t// in\n    tag_24:\n      mload(0x40)\n      dup1\n      swap2\n      sub\n      swap1\n      return\n        /* \"1_Votacion_descentralizada.sol\":737:778  mapping(address => bool) public whiteList */\n    tag_6:\n      tag_26\n      0x04\n      dup1\n      calldatasize\n      sub\n      dup2\n      add\n      swap1\n      tag_27\n      swap2\n      swap1\n      tag_22\n      jump\t// in\n    tag_27:\n      tag_28\n      jump\t// in\n    tag_26:\n      mload(0x40)\n      tag_29\n      swap2\n      swap1\n      tag_25\n      jump\t// in\n    tag_29:\n      mload(0x40)\n      dup1\n      swap2\n      sub\n      swap1\n      return\n        /* \"1_Votacion_descentralizada.sol\":685:711  address public propietario */\n    tag_7:\n      tag_30\n      tag_31\n      jump\t// in\n    tag_30:\n      mload(0x40)\n      tag_32\n      swap2\n      swap1\n      tag_33\n      jump\t// in\n    tag_32:\n      mload(0x40)\n      dup1\n      swap2\n      sub\n      swap1\n      return\n        /* \"1_Votacion_descentralizada.sol\":2149:2257  function adicionarDireccion(address sufra) public soloPropietario {... */\n    tag_8:\n      tag_34\n      0x04\n      dup1\n      calldatasize\n      sub\n      dup2\n      add\n      swap1\n      tag_35\n      swap2\n      swap1\n      tag_22\n      jump\t// in\n    tag_35:\n      tag_36\n      jump\t// in\n    tag_34:\n      stop\n        /* \"1_Votacion_descentralizada.sol\":506:535  Propuesta[] public propuestas */\n    tag_9:\n      tag_37\n      0x04\n      dup1\n      calldatasize\n      sub\n      dup2\n      add\n      swap1\n      tag_38\n      swap2\n      swap1\n      tag_18\n      jump\t// in\n    tag_38:\n      tag_39\n      jump\t// in\n    tag_37:\n      mload(0x40)\n      tag_40\n      swap3\n      swap2\n      swap1\n      tag_41\n      jump\t// in\n    tag_40:\n      mload(0x40)\n      dup1\n      swap2\n      sub\n      swap1\n      return\n        /* \"1_Votacion_descentralizada.sol\":941:970  uint256 public tiempoVotacion */\n    tag_10:\n      tag_42\n      tag_43\n      jump\t// in\n    tag_42:\n      mload(0x40)\n      tag_44\n      swap2\n      swap1\n      tag_45\n      jump\t// in\n    tag_44:\n      mload(0x40)\n      dup1\n      swap2\n      sub\n      swap1\n      return\n        /* \"1_Votacion_descentralizada.sol\":2304:2452  function adicionarPropuesta(string memory propu) public soloPropietario {... */\n    tag_15:\n        /* \"1_Votacion_descentralizada.sol\":1336:1347  propietario */\n      0x01\n      0x00\n      swap1\n      sload\n      swap1\n      0x0100\n      exp\n      swap1\n      div\n      0xffffffffffffffffffffffffffffffffffffffff\n      and\n        /* \"1_Votacion_descentralizada.sol\":1322:1347  msg.sender == propietario */\n      0xffffffffffffffffffffffffffffffffffffffff\n      and\n        /* \"1_Votacion_descentralizada.sol\":1322:1332  msg.sender */\n      caller\n        /* \"1_Votacion_descentralizada.sol\":1322:1347  msg.sender == propietario */\n      0xffffffffffffffffffffffffffffffffffffffff\n      and\n      eq\n        /* \"1_Votacion_descentralizada.sol\":1314:1400  require(msg.sender == propietario, \"Solo el propietario puede ejecutar esta funcion.\") */\n      tag_47\n      jumpi\n      mload(0x40)\n      0x08c379a000000000000000000000000000000000000000000000000000000000\n      dup2\n      mstore\n      0x04\n      add\n      tag_48\n      swap1\n      tag_49\n      jump\t// in\n    tag_48:\n      mload(0x40)\n      dup1\n      swap2\n      sub\n      swap1\n      revert\n    tag_47:\n        /* \"1_Votacion_descentralizada.sol\":2387:2397  propuestas */\n      0x00\n        /* \"1_Votacion_descentralizada.sol\":2403:2443  Propuesta({nombre:propu,votosTotales:0}) */\n      mload(0x40)\n      dup1\n      0x40\n      add\n      0x40\n      mstore\n      dup1\n        /* \"1_Votacion_descentralizada.sol\":2421:2426  propu */\n      dup4\n        /* \"1_Votacion_descentralizada.sol\":2403:2443  Propuesta({nombre:propu,votosTotales:0}) */\n      dup2\n      mstore\n      0x20\n      add\n        /* \"1_Votacion_descentralizada.sol\":2440:2441  0 */\n      0x00\n        /* \"1_Votacion_descentralizada.sol\":2403:2443  Propuesta({nombre:propu,votosTotales:0}) */\n      dup2\n      mstore\n      pop\n        /* \"1_Votacion_descentralizada.sol\":2387:2444  propuestas.push(Propuesta({nombre:propu,votosTotales:0})) */\n      swap1\n      dup1\n      0x01\n      dup2\n      sload\n      add\n      dup1\n      dup3\n      sstore\n      dup1\n      swap2\n      pop\n      pop\n      0x01\n      swap1\n      sub\n      swap1\n      0x00\n      mstore\n      keccak256(0x00, 0x20)\n      swap1\n      0x02\n      mul\n      add\n      0x00\n      swap1\n      swap2\n      swap1\n      swap2\n      swap1\n      swap2\n      pop\n      0x00\n      dup3\n      add\n      mload\n      dup2\n      0x00\n      add\n      swap1\n      dup2\n      tag_52\n      swap2\n      swap1\n      tag_53\n      jump\t// in\n    tag_52:\n      pop\n      0x20\n      dup3\n      add\n      mload\n      dup2\n      0x01\n      add\n      sstore\n      pop\n      pop\n        /* \"1_Votacion_descentralizada.sol\":2304:2452  function adicionarPropuesta(string memory propu) public soloPropietario {... */\n      pop\n      jump\t// out\n        /* \"1_Votacion_descentralizada.sol\":2488:2673  function votar(uint256 indicePropu) public soloWhitelist soloDuranteVotacion yaVoto {... */\n    tag_19:\n        /* \"1_Votacion_descentralizada.sol\":1549:1558  whiteList */\n      0x02\n        /* \"1_Votacion_descentralizada.sol\":1549:1570  whiteList[msg.sender] */\n      0x00\n        /* \"1_Votacion_descentralizada.sol\":1559:1569  msg.sender */\n      caller\n        /* \"1_Votacion_descentralizada.sol\":1549:1570  whiteList[msg.sender] */\n      0xffffffffffffffffffffffffffffffffffffffff\n      and\n      0xffffffffffffffffffffffffffffffffffffffff\n      and\n      dup2\n      mstore\n      0x20\n      add\n      swap1\n      dup2\n      mstore\n      0x20\n      add\n      0x00\n      keccak256\n      0x00\n      swap1\n      sload\n      swap1\n      0x0100\n      exp\n      swap1\n      div\n      0xff\n      and\n        /* \"1_Votacion_descentralizada.sol\":1541:1618  require(whiteList[msg.sender], \"Solo las personas autorizadas pueden votar.\") */\n      tag_55\n      jumpi\n      mload(0x40)\n      0x08c379a000000000000000000000000000000000000000000000000000000000\n      dup2\n      mstore\n      0x04\n      add\n      tag_56\n      swap1\n      tag_57\n      jump\t// in\n    tag_56:\n      mload(0x40)\n      dup1\n      swap2\n      sub\n      swap1\n      revert\n    tag_55:\n        /* \"1_Votacion_descentralizada.sol\":2021:2035  tiempoVotacion */\n      sload(0x04)\n        /* \"1_Votacion_descentralizada.sol\":2002:2017  block.timestamp */\n      timestamp\n        /* \"1_Votacion_descentralizada.sol\":2002:2035  block.timestamp <= tiempoVotacion */\n      gt\n      iszero\n        /* \"1_Votacion_descentralizada.sol\":1994:2077  require(block.timestamp <= tiempoVotacion, \"El periodo de votacion ha finalizado.\") */\n      tag_59\n      jumpi\n      mload(0x40)\n      0x08c379a000000000000000000000000000000000000000000000000000000000\n      dup2\n      mstore\n      0x04\n      add\n      tag_60\n      swap1\n      tag_61\n      jump\t// in\n    tag_60:\n      mload(0x40)\n      dup1\n      swap2\n      sub\n      swap1\n      revert\n    tag_59:\n        /* \"1_Votacion_descentralizada.sol\":1775:1786  sufragantes */\n      0x03\n        /* \"1_Votacion_descentralizada.sol\":1775:1798  sufragantes[msg.sender] */\n      0x00\n        /* \"1_Votacion_descentralizada.sol\":1787:1797  msg.sender */\n      caller\n        /* \"1_Votacion_descentralizada.sol\":1775:1798  sufragantes[msg.sender] */\n      0xffffffffffffffffffffffffffffffffffffffff\n      and\n      0xffffffffffffffffffffffffffffffffffffffff\n      and\n      dup2\n      mstore\n      0x20\n      add\n      swap1\n      dup2\n      mstore\n      0x20\n      add\n      0x00\n      keccak256\n      0x00\n      swap1\n      sload\n      swap1\n      0x0100\n      exp\n      swap1\n      div\n      0xff\n      and\n        /* \"1_Votacion_descentralizada.sol\":1774:1798  !sufragantes[msg.sender] */\n      iszero\n        /* \"1_Votacion_descentralizada.sol\":1766:1817  require(!sufragantes[msg.sender], \"Usted ya voto.\") */\n      tag_63\n      jumpi\n      mload(0x40)\n      0x08c379a000000000000000000000000000000000000000000000000000000000\n      dup2\n      mstore\n      0x04\n      add\n      tag_64\n      swap1\n      tag_65\n      jump\t// in\n    tag_64:\n      mload(0x40)\n      dup1\n      swap2\n      sub\n      swap1\n      revert\n    tag_63:\n        /* \"1_Votacion_descentralizada.sol\":2623:2624  1 */\n      0x01\n        /* \"1_Votacion_descentralizada.sol\":2583:2593  propuestas */\n      0x00\n        /* \"1_Votacion_descentralizada.sol\":2594:2605  indicePropu */\n      dup3\n        /* \"1_Votacion_descentralizada.sol\":2583:2606  propuestas[indicePropu] */\n      dup2\n      sload\n      dup2\n      lt\n      tag_67\n      jumpi\n      tag_68\n      tag_69\n      jump\t// in\n    tag_68:\n    tag_67:\n      swap1\n      0x00\n      mstore\n      keccak256(0x00, 0x20)\n      swap1\n      0x02\n      mul\n      add\n        /* \"1_Votacion_descentralizada.sol\":2583:2619  propuestas[indicePropu].votosTotales */\n      0x01\n      add\n      0x00\n        /* \"1_Votacion_descentralizada.sol\":2583:2624  propuestas[indicePropu].votosTotales += 1 */\n      dup3\n      dup3\n      sload\n      tag_71\n      swap2\n      swap1\n      tag_72\n      jump\t// in\n    tag_71:\n      swap3\n      pop\n      pop\n      dup2\n      swap1\n      sstore\n      pop\n        /* \"1_Votacion_descentralizada.sol\":2661:2665  true */\n      0x01\n        /* \"1_Votacion_descentralizada.sol\":2635:2646  sufragantes */\n      0x03\n        /* \"1_Votacion_descentralizada.sol\":2635:2658  sufragantes[msg.sender] */\n      0x00\n        /* \"1_Votacion_descentralizada.sol\":2647:2657  msg.sender */\n      caller\n        /* \"1_Votacion_descentralizada.sol\":2635:2658  sufragantes[msg.sender] */\n      0xffffffffffffffffffffffffffffffffffffffff\n      and\n      0xffffffffffffffffffffffffffffffffffffffff\n      and\n      dup2\n      mstore\n      0x20\n      add\n      swap1\n      dup2\n      mstore\n      0x20\n      add\n      0x00\n      keccak256\n      0x00\n        /* \"1_Votacion_descentralizada.sol\":2635:2665  sufragantes[msg.sender] = true */\n      0x0100\n      exp\n      dup2\n      sload\n      dup2\n      0xff\n      mul\n      not\n      and\n      swap1\n      dup4\n      iszero\n      iszero\n      mul\n      or\n      swap1\n      sstore\n      pop\n        /* \"1_Votacion_descentralizada.sol\":2488:2673  function votar(uint256 indicePropu) public soloWhitelist soloDuranteVotacion yaVoto {... */\n      pop\n      jump\t// out\n        /* \"1_Votacion_descentralizada.sol\":842:885  mapping(address => bool) public sufragantes */\n    tag_23:\n      mstore(0x20, 0x03)\n      dup1\n      0x00\n      mstore\n      keccak256(0x00, 0x40)\n      0x00\n      swap2\n      pop\n      sload\n      swap1\n      0x0100\n      exp\n      swap1\n      div\n      0xff\n      and\n      dup2\n      jump\t// out\n        /* \"1_Votacion_descentralizada.sol\":737:778  mapping(address => bool) public whiteList */\n    tag_28:\n      mstore(0x20, 0x02)\n      dup1\n      0x00\n      mstore\n      keccak256(0x00, 0x40)\n      0x00\n      swap2\n      pop\n      sload\n      swap1\n      0x0100\n      exp\n      swap1\n      div\n      0xff\n      and\n      dup2\n      jump\t// out\n        /* \"1_Votacion_descentralizada.sol\":685:711  address public propietario */\n    tag_31:\n      0x01\n      0x00\n      swap1\n      sload\n      swap1\n      0x0100\n      exp\n      swap1\n      div\n      0xffffffffffffffffffffffffffffffffffffffff\n      and\n      dup2\n      jump\t// out\n        /* \"1_Votacion_descentralizada.sol\":2149:2257  function adicionarDireccion(address sufra) public soloPropietario {... */\n    tag_36:\n        /* \"1_Votacion_descentralizada.sol\":1336:1347  propietario */\n      0x01\n      0x00\n      swap1\n      sload\n      swap1\n      0x0100\n      exp\n      swap1\n      div\n      0xffffffffffffffffffffffffffffffffffffffff\n      and\n        /* \"1_Votacion_descentralizada.sol\":1322:1347  msg.sender == propietario */\n      0xffffffffffffffffffffffffffffffffffffffff\n      and\n        /* \"1_Votacion_descentralizada.sol\":1322:1332  msg.sender */\n      caller\n        /* \"1_Votacion_descentralizada.sol\":1322:1347  msg.sender == propietario */\n      0xffffffffffffffffffffffffffffffffffffffff\n      and\n      eq\n        /* \"1_Votacion_descentralizada.sol\":1314:1400  require(msg.sender == propietario, \"Solo el propietario puede ejecutar esta funcion.\") */\n      tag_74\n      jumpi\n      mload(0x40)\n      0x08c379a000000000000000000000000000000000000000000000000000000000\n      dup2\n      mstore\n      0x04\n      add\n      tag_75\n      swap1\n      tag_49\n      jump\t// in\n    tag_75:\n      mload(0x40)\n      dup1\n      swap2\n      sub\n      swap1\n      revert\n    tag_74:\n        /* \"1_Votacion_descentralizada.sol\":2245:2249  true */\n      0x01\n        /* \"1_Votacion_descentralizada.sol\":2226:2235  whiteList */\n      0x02\n        /* \"1_Votacion_descentralizada.sol\":2226:2242  whiteList[sufra] */\n      0x00\n        /* \"1_Votacion_descentralizada.sol\":2236:2241  sufra */\n      dup4\n        /* \"1_Votacion_descentralizada.sol\":2226:2242  whiteList[sufra] */\n      0xffffffffffffffffffffffffffffffffffffffff\n      and\n      0xffffffffffffffffffffffffffffffffffffffff\n      and\n      dup2\n      mstore\n      0x20\n      add\n      swap1\n      dup2\n      mstore\n      0x20\n      add\n      0x00\n      keccak256\n      0x00\n        /* \"1_Votacion_descentralizada.sol\":2226:2249  whiteList[sufra] = true */\n      0x0100\n      exp\n      dup2\n      sload\n      dup2\n      0xff\n      mul\n      not\n      and\n      swap1\n      dup4\n      iszero\n      iszero\n      mul\n      or\n      swap1\n      sstore\n      pop\n        /* \"1_Votacion_descentralizada.sol\":2149:2257  function adicionarDireccion(address sufra) public soloPropietario {... */\n      pop\n      jump\t// out\n        /* \"1_Votacion_descentralizada.sol\":506:535  Propuesta[] public propuestas */\n    tag_39:\n      0x00\n      dup2\n      dup2\n      sload\n      dup2\n      lt\n      tag_77\n      jumpi\n      0x00\n      dup1\n      revert\n    tag_77:\n      swap1\n      0x00\n      mstore\n      keccak256(0x00, 0x20)\n      swap1\n      0x02\n      mul\n      add\n      0x00\n      swap2\n      pop\n      swap1\n      pop\n      dup1\n      0x00\n      add\n      dup1\n      sload\n      tag_79\n      swap1\n      tag_80\n      jump\t// in\n    tag_79:\n      dup1\n      0x1f\n      add\n      0x20\n      dup1\n      swap2\n      div\n      mul\n      0x20\n      add\n      mload(0x40)\n      swap1\n      dup2\n      add\n      0x40\n      mstore\n      dup1\n      swap3\n      swap2\n      swap1\n      dup2\n      dup2\n      mstore\n      0x20\n      add\n      dup3\n      dup1\n      sload\n      tag_81\n      swap1\n      tag_80\n      jump\t// in\n    tag_81:\n      dup1\n      iszero\n      tag_82\n      jumpi\n      dup1\n      0x1f\n      lt\n      tag_83\n      jumpi\n      0x0100\n      dup1\n      dup4\n      sload\n      div\n      mul\n      dup4\n      mstore\n      swap2\n      0x20\n      add\n      swap2\n      jump(tag_82)\n    tag_83:\n      dup3\n      add\n      swap2\n      swap1\n      0x00\n      mstore\n      keccak256(0x00, 0x20)\n      swap1\n    tag_84:\n      dup2\n      sload\n      dup2\n      mstore\n      swap1\n      0x01\n      add\n      swap1\n      0x20\n      add\n      dup1\n      dup4\n      gt\n      tag_84\n      jumpi\n      dup3\n      swap1\n      sub\n      0x1f\n      and\n      dup3\n      add\n      swap2\n    tag_82:\n      pop\n      pop\n      pop\n      pop\n      pop\n      swap1\n      dup1\n      0x01\n      add\n      sload\n      swap1\n      pop\n      dup3\n      jump\t// out\n        /* \"1_Votacion_descentralizada.sol\":941:970  uint256 public tiempoVotacion */\n    tag_43:\n      sload(0x04)\n      dup2\n      jump\t// out\n        /* \"#utility.yul\":7:82   */\n    tag_85:\n        /* \"#utility.yul\":40:46   */\n      0x00\n        /* \"#utility.yul\":73:75   */\n      0x40\n        /* \"#utility.yul\":67:76   */\n      mload\n        /* \"#utility.yul\":57:76   */\n      swap1\n      pop\n        /* \"#utility.yul\":7:82   */\n      swap1\n      jump\t// out\n        /* \"#utility.yul\":88:205   */\n    tag_86:\n        /* \"#utility.yul\":197:198   */\n      0x00\n        /* \"#utility.yul\":194:195   */\n      dup1\n        /* \"#utility.yul\":187:199   */\n      revert\n        /* \"#utility.yul\":211:328   */\n    tag_87:\n        /* \"#utility.yul\":320:321   */\n      0x00\n        /* \"#utility.yul\":317:318   */\n      dup1\n        /* \"#utility.yul\":310:322   */\n      revert\n        /* \"#utility.yul\":334:451   */\n    tag_88:\n        /* \"#utility.yul\":443:444   */\n      0x00\n        /* \"#utility.yul\":440:441   */\n      dup1\n        /* \"#utility.yul\":433:445   */\n      revert\n        /* \"#utility.yul\":457:574   */\n    tag_89:\n        /* \"#utility.yul\":566:567   */\n      0x00\n        /* \"#utility.yul\":563:564   */\n      dup1\n        /* \"#utility.yul\":556:568   */\n      revert\n        /* \"#utility.yul\":580:682   */\n    tag_90:\n        /* \"#utility.yul\":621:627   */\n      0x00\n        /* \"#utility.yul\":672:674   */\n      0x1f\n        /* \"#utility.yul\":668:675   */\n      not\n        /* \"#utility.yul\":663:665   */\n      0x1f\n        /* \"#utility.yul\":656:661   */\n      dup4\n        /* \"#utility.yul\":652:666   */\n      add\n        /* \"#utility.yul\":648:676   */\n      and\n        /* \"#utility.yul\":638:676   */\n      swap1\n      pop\n        /* \"#utility.yul\":580:682   */\n      swap2\n      swap1\n      pop\n      jump\t// out\n        /* \"#utility.yul\":688:868   */\n    tag_91:\n        /* \"#utility.yul\":736:813   */\n      0x4e487b7100000000000000000000000000000000000000000000000000000000\n        /* \"#utility.yul\":733:734   */\n      0x00\n        /* \"#utility.yul\":726:814   */\n      mstore\n        /* \"#utility.yul\":833:837   */\n      0x41\n        /* \"#utility.yul\":830:831   */\n      0x04\n        /* \"#utility.yul\":823:838   */\n      mstore\n        /* \"#utility.yul\":857:861   */\n      0x24\n        /* \"#utility.yul\":854:855   */\n      0x00\n        /* \"#utility.yul\":847:862   */\n      revert\n        /* \"#utility.yul\":874:1155   */\n    tag_92:\n        /* \"#utility.yul\":957:984   */\n      tag_147\n        /* \"#utility.yul\":979:983   */\n      dup3\n        /* \"#utility.yul\":957:984   */\n      tag_90\n      jump\t// in\n    tag_147:\n        /* \"#utility.yul\":949:955   */\n      dup2\n        /* \"#utility.yul\":945:985   */\n      add\n        /* \"#utility.yul\":1087:1093   */\n      dup2\n        /* \"#utility.yul\":1075:1085   */\n      dup2\n        /* \"#utility.yul\":1072:1094   */\n      lt\n        /* \"#utility.yul\":1051:1069   */\n      0xffffffffffffffff\n        /* \"#utility.yul\":1039:1049   */\n      dup3\n        /* \"#utility.yul\":1036:1070   */\n      gt\n        /* \"#utility.yul\":1033:1095   */\n      or\n        /* \"#utility.yul\":1030:1118   */\n      iszero\n      tag_148\n      jumpi\n        /* \"#utility.yul\":1098:1116   */\n      tag_149\n      tag_91\n      jump\t// in\n    tag_149:\n        /* \"#utility.yul\":1030:1118   */\n    tag_148:\n        /* \"#utility.yul\":1138:1148   */\n      dup1\n        /* \"#utility.yul\":1134:1136   */\n      0x40\n        /* \"#utility.yul\":1127:1149   */\n      mstore\n        /* \"#utility.yul\":917:1155   */\n      pop\n        /* \"#utility.yul\":874:1155   */\n      pop\n      pop\n      jump\t// out\n        /* \"#utility.yul\":1161:1290   */\n    tag_93:\n        /* \"#utility.yul\":1195:1201   */\n      0x00\n        /* \"#utility.yul\":1222:1242   */\n      tag_151\n      tag_85\n      jump\t// in\n    tag_151:\n        /* \"#utility.yul\":1212:1242   */\n      swap1\n      pop\n        /* \"#utility.yul\":1251:1284   */\n      tag_152\n        /* \"#utility.yul\":1279:1283   */\n      dup3\n        /* \"#utility.yul\":1271:1277   */\n      dup3\n        /* \"#utility.yul\":1251:1284   */\n      tag_92\n      jump\t// in\n    tag_152:\n        /* \"#utility.yul\":1161:1290   */\n      swap2\n      swap1\n      pop\n      jump\t// out\n        /* \"#utility.yul\":1296:1604   */\n    tag_94:\n        /* \"#utility.yul\":1358:1362   */\n      0x00\n        /* \"#utility.yul\":1448:1466   */\n      0xffffffffffffffff\n        /* \"#utility.yul\":1440:1446   */\n      dup3\n        /* \"#utility.yul\":1437:1467   */\n      gt\n        /* \"#utility.yul\":1434:1490   */\n      iszero\n      tag_154\n      jumpi\n        /* \"#utility.yul\":1470:1488   */\n      tag_155\n      tag_91\n      jump\t// in\n    tag_155:\n        /* \"#utility.yul\":1434:1490   */\n    tag_154:\n        /* \"#utility.yul\":1508:1537   */\n      tag_156\n        /* \"#utility.yul\":1530:1536   */\n      dup3\n        /* \"#utility.yul\":1508:1537   */\n      tag_90\n      jump\t// in\n    tag_156:\n        /* \"#utility.yul\":1500:1537   */\n      swap1\n      pop\n        /* \"#utility.yul\":1592:1596   */\n      0x20\n        /* \"#utility.yul\":1586:1590   */\n      dup2\n        /* \"#utility.yul\":1582:1597   */\n      add\n        /* \"#utility.yul\":1574:1597   */\n      swap1\n      pop\n        /* \"#utility.yul\":1296:1604   */\n      swap2\n      swap1\n      pop\n      jump\t// out\n        /* \"#utility.yul\":1610:1758   */\n    tag_95:\n        /* \"#utility.yul\":1708:1714   */\n      dup3\n        /* \"#utility.yul\":1703:1706   */\n      dup2\n        /* \"#utility.yul\":1698:1701   */\n      dup4\n        /* \"#utility.yul\":1685:1715   */\n      calldatacopy\n        /* \"#utility.yul\":1749:1750   */\n      0x00\n        /* \"#utility.yul\":1740:1746   */\n      dup4\n        /* \"#utility.yul\":1735:1738   */\n      dup4\n        /* \"#utility.yul\":1731:1747   */\n      add\n        /* \"#utility.yul\":1724:1751   */\n      mstore\n        /* \"#utility.yul\":1610:1758   */\n      pop\n      pop\n      pop\n      jump\t// out\n        /* \"#utility.yul\":1764:2189   */\n    tag_96:\n        /* \"#utility.yul\":1842:1847   */\n      0x00\n        /* \"#utility.yul\":1867:1933   */\n      tag_159\n        /* \"#utility.yul\":1883:1932   */\n      tag_160\n        /* \"#utility.yul\":1925:1931   */\n      dup5\n        /* \"#utility.yul\":1883:1932   */\n      tag_94\n      jump\t// in\n    tag_160:\n        /* \"#utility.yul\":1867:1933   */\n      tag_93\n      jump\t// in\n    tag_159:\n        /* \"#utility.yul\":1858:1933   */\n      swap1\n      pop\n        /* \"#utility.yul\":1956:1962   */\n      dup3\n        /* \"#utility.yul\":1949:1954   */\n      dup2\n        /* \"#utility.yul\":1942:1963   */\n      mstore\n        /* \"#utility.yul\":1994:1998   */\n      0x20\n        /* \"#utility.yul\":1987:1992   */\n      dup2\n        /* \"#utility.yul\":1983:1999   */\n      add\n        /* \"#utility.yul\":2032:2035   */\n      dup5\n        /* \"#utility.yul\":2023:2029   */\n      dup5\n        /* \"#utility.yul\":2018:2021   */\n      dup5\n        /* \"#utility.yul\":2014:2030   */\n      add\n        /* \"#utility.yul\":2011:2036   */\n      gt\n        /* \"#utility.yul\":2008:2120   */\n      iszero\n      tag_161\n      jumpi\n        /* \"#utility.yul\":2039:2118   */\n      tag_162\n      tag_89\n      jump\t// in\n    tag_162:\n        /* \"#utility.yul\":2008:2120   */\n    tag_161:\n        /* \"#utility.yul\":2129:2183   */\n      tag_163\n        /* \"#utility.yul\":2176:2182   */\n      dup5\n        /* \"#utility.yul\":2171:2174   */\n      dup3\n        /* \"#utility.yul\":2166:2169   */\n      dup6\n        /* \"#utility.yul\":2129:2183   */\n      tag_95\n      jump\t// in\n    tag_163:\n        /* \"#utility.yul\":1848:2189   */\n      pop\n        /* \"#utility.yul\":1764:2189   */\n      swap4\n      swap3\n      pop\n      pop\n      pop\n      jump\t// out\n        /* \"#utility.yul\":2209:2549   */\n    tag_97:\n        /* \"#utility.yul\":2265:2270   */\n      0x00\n        /* \"#utility.yul\":2314:2317   */\n      dup3\n        /* \"#utility.yul\":2307:2311   */\n      0x1f\n        /* \"#utility.yul\":2299:2305   */\n      dup4\n        /* \"#utility.yul\":2295:2312   */\n      add\n        /* \"#utility.yul\":2291:2318   */\n      slt\n        /* \"#utility.yul\":2281:2403   */\n      tag_165\n      jumpi\n        /* \"#utility.yul\":2322:2401   */\n      tag_166\n      tag_88\n      jump\t// in\n    tag_166:\n        /* \"#utility.yul\":2281:2403   */\n    tag_165:\n        /* \"#utility.yul\":2439:2445   */\n      dup2\n        /* \"#utility.yul\":2426:2446   */\n      calldataload\n        /* \"#utility.yul\":2464:2543   */\n      tag_167\n        /* \"#utility.yul\":2539:2542   */\n      dup5\n        /* \"#utility.yul\":2531:2537   */\n      dup3\n        /* \"#utility.yul\":2524:2528   */\n      0x20\n        /* \"#utility.yul\":2516:2522   */\n      dup7\n        /* \"#utility.yul\":2512:2529   */\n      add\n        /* \"#utility.yul\":2464:2543   */\n      tag_96\n      jump\t// in\n    tag_167:\n        /* \"#utility.yul\":2455:2543   */\n      swap2\n      pop\n        /* \"#utility.yul\":2271:2549   */\n      pop\n        /* \"#utility.yul\":2209:2549   */\n      swap3\n      swap2\n      pop\n      pop\n      jump\t// out\n        /* \"#utility.yul\":2555:3064   */\n    tag_14:\n        /* \"#utility.yul\":2624:2630   */\n      0x00\n        /* \"#utility.yul\":2673:2675   */\n      0x20\n        /* \"#utility.yul\":2661:2670   */\n      dup3\n        /* \"#utility.yul\":2652:2659   */\n      dup5\n        /* \"#utility.yul\":2648:2671   */\n      sub\n        /* \"#utility.yul\":2644:2676   */\n      slt\n        /* \"#utility.yul\":2641:2760   */\n      iszero\n      tag_169\n      jumpi\n        /* \"#utility.yul\":2679:2758   */\n      tag_170\n      tag_86\n      jump\t// in\n    tag_170:\n        /* \"#utility.yul\":2641:2760   */\n    tag_169:\n        /* \"#utility.yul\":2827:2828   */\n      0x00\n        /* \"#utility.yul\":2816:2825   */\n      dup3\n        /* \"#utility.yul\":2812:2829   */\n      add\n        /* \"#utility.yul\":2799:2830   */\n      calldataload\n        /* \"#utility.yul\":2857:2875   */\n      0xffffffffffffffff\n        /* \"#utility.yul\":2849:2855   */\n      dup2\n        /* \"#utility.yul\":2846:2876   */\n      gt\n        /* \"#utility.yul\":2843:2960   */\n      iszero\n      tag_171\n      jumpi\n        /* \"#utility.yul\":2879:2958   */\n      tag_172\n      tag_87\n      jump\t// in\n    tag_172:\n        /* \"#utility.yul\":2843:2960   */\n    tag_171:\n        /* \"#utility.yul\":2984:3047   */\n      tag_173\n        /* \"#utility.yul\":3039:3046   */\n      dup5\n        /* \"#utility.yul\":3030:3036   */\n      dup3\n        /* \"#utility.yul\":3019:3028   */\n      dup6\n        /* \"#utility.yul\":3015:3037   */\n      add\n        /* \"#utility.yul\":2984:3047   */\n      tag_97\n      jump\t// in\n    tag_173:\n        /* \"#utility.yul\":2974:3047   */\n      swap2\n      pop\n        /* \"#utility.yul\":2770:3057   */\n      pop\n        /* \"#utility.yul\":2555:3064   */\n      swap3\n      swap2\n      pop\n      pop\n      jump\t// out\n        /* \"#utility.yul\":3070:3147   */\n    tag_98:\n        /* \"#utility.yul\":3107:3114   */\n      0x00\n        /* \"#utility.yul\":3136:3141   */\n      dup2\n        /* \"#utility.yul\":3125:3141   */\n      swap1\n      pop\n        /* \"#utility.yul\":3070:3147   */\n      swap2\n      swap1\n      pop\n      jump\t// out\n        /* \"#utility.yul\":3153:3275   */\n    tag_99:\n        /* \"#utility.yul\":3226:3250   */\n      tag_176\n        /* \"#utility.yul\":3244:3249   */\n      dup2\n        /* \"#utility.yul\":3226:3250   */\n      tag_98\n      jump\t// in\n    tag_176:\n        /* \"#utility.yul\":3219:3224   */\n      dup2\n        /* \"#utility.yul\":3216:3251   */\n      eq\n        /* \"#utility.yul\":3206:3269   */\n      tag_177\n      jumpi\n        /* \"#utility.yul\":3265:3266   */\n      0x00\n        /* \"#utility.yul\":3262:3263   */\n      dup1\n        /* \"#utility.yul\":3255:3267   */\n      revert\n        /* \"#utility.yul\":3206:3269   */\n    tag_177:\n        /* \"#utility.yul\":3153:3275   */\n      pop\n      jump\t// out\n        /* \"#utility.yul\":3281:3420   */\n    tag_100:\n        /* \"#utility.yul\":3327:3332   */\n      0x00\n        /* \"#utility.yul\":3365:3371   */\n      dup2\n        /* \"#utility.yul\":3352:3372   */\n      calldataload\n        /* \"#utility.yul\":3343:3372   */\n      swap1\n      pop\n        /* \"#utility.yul\":3381:3414   */\n      tag_179\n        /* \"#utility.yul\":3408:3413   */\n      dup2\n        /* \"#utility.yul\":3381:3414   */\n      tag_99\n      jump\t// in\n    tag_179:\n        /* \"#utility.yul\":3281:3420   */\n      swap3\n      swap2\n      pop\n      pop\n      jump\t// out\n        /* \"#utility.yul\":3426:3755   */\n    tag_18:\n        /* \"#utility.yul\":3485:3491   */\n      0x00\n        /* \"#utility.yul\":3534:3536   */\n      0x20\n        /* \"#utility.yul\":3522:3531   */\n      dup3\n        /* \"#utility.yul\":3513:3520   */\n      dup5\n        /* \"#utility.yul\":3509:3532   */\n      sub\n        /* \"#utility.yul\":3505:3537   */\n      slt\n        /* \"#utility.yul\":3502:3621   */\n      iszero\n      tag_181\n      jumpi\n        /* \"#utility.yul\":3540:3619   */\n      tag_182\n      tag_86\n      jump\t// in\n    tag_182:\n        /* \"#utility.yul\":3502:3621   */\n    tag_181:\n        /* \"#utility.yul\":3660:3661   */\n      0x00\n        /* \"#utility.yul\":3685:3738   */\n      tag_183\n        /* \"#utility.yul\":3730:3737   */\n      dup5\n        /* \"#utility.yul\":3721:3727   */\n      dup3\n        /* \"#utility.yul\":3710:3719   */\n      dup6\n        /* \"#utility.yul\":3706:3728   */\n      add\n        /* \"#utility.yul\":3685:3738   */\n      tag_100\n      jump\t// in\n    tag_183:\n        /* \"#utility.yul\":3675:3738   */\n      swap2\n      pop\n        /* \"#utility.yul\":3631:3748   */\n      pop\n        /* \"#utility.yul\":3426:3755   */\n      swap3\n      swap2\n      pop\n      pop\n      jump\t// out\n        /* \"#utility.yul\":3761:3887   */\n    tag_101:\n        /* \"#utility.yul\":3798:3805   */\n      0x00\n        /* \"#utility.yul\":3838:3880   */\n      0xffffffffffffffffffffffffffffffffffffffff\n        /* \"#utility.yul\":3831:3836   */\n      dup3\n        /* \"#utility.yul\":3827:3881   */\n      and\n        /* \"#utility.yul\":3816:3881   */\n      swap1\n      pop\n        /* \"#utility.yul\":3761:3887   */\n      swap2\n      swap1\n      pop\n      jump\t// out\n        /* \"#utility.yul\":3893:3989   */\n    tag_102:\n        /* \"#utility.yul\":3930:3937   */\n      0x00\n        /* \"#utility.yul\":3959:3983   */\n      tag_186\n        /* \"#utility.yul\":3977:3982   */\n      dup3\n        /* \"#utility.yul\":3959:3983   */\n      tag_101\n      jump\t// in\n    tag_186:\n        /* \"#utility.yul\":3948:3983   */\n      swap1\n      pop\n        /* \"#utility.yul\":3893:3989   */\n      swap2\n      swap1\n      pop\n      jump\t// out\n        /* \"#utility.yul\":3995:4117   */\n    tag_103:\n        /* \"#utility.yul\":4068:4092   */\n      tag_188\n        /* \"#utility.yul\":4086:4091   */\n      dup2\n        /* \"#utility.yul\":4068:4092   */\n      tag_102\n      jump\t// in\n    tag_188:\n        /* \"#utility.yul\":4061:4066   */\n      dup2\n        /* \"#utility.yul\":4058:4093   */\n      eq\n        /* \"#utility.yul\":4048:4111   */\n      tag_189\n      jumpi\n        /* \"#utility.yul\":4107:4108   */\n      0x00\n        /* \"#utility.yul\":4104:4105   */\n      dup1\n        /* \"#utility.yul\":4097:4109   */\n      revert\n        /* \"#utility.yul\":4048:4111   */\n    tag_189:\n        /* \"#utility.yul\":3995:4117   */\n      pop\n      jump\t// out\n        /* \"#utility.yul\":4123:4262   */\n    tag_104:\n        /* \"#utility.yul\":4169:4174   */\n      0x00\n        /* \"#utility.yul\":4207:4213   */\n      dup2\n        /* \"#utility.yul\":4194:4214   */\n      calldataload\n        /* \"#utility.yul\":4185:4214   */\n      swap1\n      pop\n        /* \"#utility.yul\":4223:4256   */\n      tag_191\n        /* \"#utility.yul\":4250:4255   */\n      dup2\n        /* \"#utility.yul\":4223:4256   */\n      tag_103\n      jump\t// in\n    tag_191:\n        /* \"#utility.yul\":4123:4262   */\n      swap3\n      swap2\n      pop\n      pop\n      jump\t// out\n        /* \"#utility.yul\":4268:4597   */\n    tag_22:\n        /* \"#utility.yul\":4327:4333   */\n      0x00\n        /* \"#utility.yul\":4376:4378   */\n      0x20\n        /* \"#utility.yul\":4364:4373   */\n      dup3\n        /* \"#utility.yul\":4355:4362   */\n      dup5\n        /* \"#utility.yul\":4351:4374   */\n      sub\n        /* \"#utility.yul\":4347:4379   */\n      slt\n        /* \"#utility.yul\":4344:4463   */\n      iszero\n      tag_193\n      jumpi\n        /* \"#utility.yul\":4382:4461   */\n      tag_194\n      tag_86\n      jump\t// in\n    tag_194:\n        /* \"#utility.yul\":4344:4463   */\n    tag_193:\n        /* \"#utility.yul\":4502:4503   */\n      0x00\n        /* \"#utility.yul\":4527:4580   */\n      tag_195\n        /* \"#utility.yul\":4572:4579   */\n      dup5\n        /* \"#utility.yul\":4563:4569   */\n      dup3\n        /* \"#utility.yul\":4552:4561   */\n      dup6\n        /* \"#utility.yul\":4548:4570   */\n      add\n        /* \"#utility.yul\":4527:4580   */\n      tag_104\n      jump\t// in\n    tag_195:\n        /* \"#utility.yul\":4517:4580   */\n      swap2\n      pop\n        /* \"#utility.yul\":4473:4590   */\n      pop\n        /* \"#utility.yul\":4268:4597   */\n      swap3\n      swap2\n      pop\n      pop\n      jump\t// out\n        /* \"#utility.yul\":4603:4693   */\n    tag_105:\n        /* \"#utility.yul\":4637:4644   */\n      0x00\n        /* \"#utility.yul\":4680:4685   */\n      dup2\n        /* \"#utility.yul\":4673:4686   */\n      iszero\n        /* \"#utility.yul\":4666:4687   */\n      iszero\n        /* \"#utility.yul\":4655:4687   */\n      swap1\n      pop\n        /* \"#utility.yul\":4603:4693   */\n      swap2\n      swap1\n      pop\n      jump\t// out\n        /* \"#utility.yul\":4699:4808   */\n    tag_106:\n        /* \"#utility.yul\":4780:4801   */\n      tag_198\n        /* \"#utility.yul\":4795:4800   */\n      dup2\n        /* \"#utility.yul\":4780:4801   */\n      tag_105\n      jump\t// in\n    tag_198:\n        /* \"#utility.yul\":4775:4778   */\n      dup3\n        /* \"#utility.yul\":4768:4802   */\n      mstore\n        /* \"#utility.yul\":4699:4808   */\n      pop\n      pop\n      jump\t// out\n        /* \"#utility.yul\":4814:5024   */\n    tag_25:\n        /* \"#utility.yul\":4901:4905   */\n      0x00\n        /* \"#utility.yul\":4939:4941   */\n      0x20\n        /* \"#utility.yul\":4928:4937   */\n      dup3\n        /* \"#utility.yul\":4924:4942   */\n      add\n        /* \"#utility.yul\":4916:4942   */\n      swap1\n      pop\n        /* \"#utility.yul\":4952:5017   */\n      tag_200\n        /* \"#utility.yul\":5014:5015   */\n      0x00\n        /* \"#utility.yul\":5003:5012   */\n      dup4\n        /* \"#utility.yul\":4999:5016   */\n      add\n        /* \"#utility.yul\":4990:4996   */\n      dup5\n        /* \"#utility.yul\":4952:5017   */\n      tag_106\n      jump\t// in\n    tag_200:\n        /* \"#utility.yul\":4814:5024   */\n      swap3\n      swap2\n      pop\n      pop\n      jump\t// out\n        /* \"#utility.yul\":5030:5148   */\n    tag_107:\n        /* \"#utility.yul\":5117:5141   */\n      tag_202\n        /* \"#utility.yul\":5135:5140   */\n      dup2\n        /* \"#utility.yul\":5117:5141   */\n      tag_102\n      jump\t// in\n    tag_202:\n        /* \"#utility.yul\":5112:5115   */\n      dup3\n        /* \"#utility.yul\":5105:5142   */\n      mstore\n        /* \"#utility.yul\":5030:5148   */\n      pop\n      pop\n      jump\t// out\n        /* \"#utility.yul\":5154:5376   */\n    tag_33:\n        /* \"#utility.yul\":5247:5251   */\n      0x00\n        /* \"#utility.yul\":5285:5287   */\n      0x20\n        /* \"#utility.yul\":5274:5283   */\n      dup3\n        /* \"#utility.yul\":5270:5288   */\n      add\n        /* \"#utility.yul\":5262:5288   */\n      swap1\n      pop\n        /* \"#utility.yul\":5298:5369   */\n      tag_204\n        /* \"#utility.yul\":5366:5367   */\n      0x00\n        /* \"#utility.yul\":5355:5364   */\n      dup4\n        /* \"#utility.yul\":5351:5368   */\n      add\n        /* \"#utility.yul\":5342:5348   */\n      dup5\n        /* \"#utility.yul\":5298:5369   */\n      tag_107\n      jump\t// in\n    tag_204:\n        /* \"#utility.yul\":5154:5376   */\n      swap3\n      swap2\n      pop\n      pop\n      jump\t// out\n        /* \"#utility.yul\":5382:5481   */\n    tag_108:\n        /* \"#utility.yul\":5434:5440   */\n      0x00\n        /* \"#utility.yul\":5468:5473   */\n      dup2\n        /* \"#utility.yul\":5462:5474   */\n      mload\n        /* \"#utility.yul\":5452:5474   */\n      swap1\n      pop\n        /* \"#utility.yul\":5382:5481   */\n      swap2\n      swap1\n      pop\n      jump\t// out\n        /* \"#utility.yul\":5487:5656   */\n    tag_109:\n        /* \"#utility.yul\":5571:5582   */\n      0x00\n        /* \"#utility.yul\":5605:5611   */\n      dup3\n        /* \"#utility.yul\":5600:5603   */\n      dup3\n        /* \"#utility.yul\":5593:5612   */\n      mstore\n        /* \"#utility.yul\":5645:5649   */\n      0x20\n        /* \"#utility.yul\":5640:5643   */\n      dup3\n        /* \"#utility.yul\":5636:5650   */\n      add\n        /* \"#utility.yul\":5621:5650   */\n      swap1\n      pop\n        /* \"#utility.yul\":5487:5656   */\n      swap3\n      swap2\n      pop\n      pop\n      jump\t// out\n        /* \"#utility.yul\":5662:5801   */\n    tag_110:\n        /* \"#utility.yul\":5751:5757   */\n      dup3\n        /* \"#utility.yul\":5746:5749   */\n      dup2\n        /* \"#utility.yul\":5741:5744   */\n      dup4\n        /* \"#utility.yul\":5735:5758   */\n      mcopy\n        /* \"#utility.yul\":5792:5793   */\n      0x00\n        /* \"#utility.yul\":5783:5789   */\n      dup4\n        /* \"#utility.yul\":5778:5781   */\n      dup4\n        /* \"#utility.yul\":5774:5790   */\n      add\n        /* \"#utility.yul\":5767:5794   */\n      mstore\n        /* \"#utility.yul\":5662:5801   */\n      pop\n      pop\n      pop\n      jump\t// out\n        /* \"#utility.yul\":5807:6184   */\n    tag_111:\n        /* \"#utility.yul\":5895:5898   */\n      0x00\n        /* \"#utility.yul\":5923:5962   */\n      tag_209\n        /* \"#utility.yul\":5956:5961   */\n      dup3\n        /* \"#utility.yul\":5923:5962   */\n      tag_108\n      jump\t// in\n    tag_209:\n        /* \"#utility.yul\":5978:6049   */\n      tag_210\n        /* \"#utility.yul\":6042:6048   */\n      dup2\n        /* \"#utility.yul\":6037:6040   */\n      dup6\n        /* \"#utility.yul\":5978:6049   */\n      tag_109\n      jump\t// in\n    tag_210:\n        /* \"#utility.yul\":5971:6049   */\n      swap4\n      pop\n        /* \"#utility.yul\":6058:6123   */\n      tag_211\n        /* \"#utility.yul\":6116:6122   */\n      dup2\n        /* \"#utility.yul\":6111:6114   */\n      dup6\n        /* \"#utility.yul\":6104:6108   */\n      0x20\n        /* \"#utility.yul\":6097:6102   */\n      dup7\n        /* \"#utility.yul\":6093:6109   */\n      add\n        /* \"#utility.yul\":6058:6123   */\n      tag_110\n      jump\t// in\n    tag_211:\n        /* \"#utility.yul\":6148:6177   */\n      tag_212\n        /* \"#utility.yul\":6170:6176   */\n      dup2\n        /* \"#utility.yul\":6148:6177   */\n      tag_90\n      jump\t// in\n    tag_212:\n        /* \"#utility.yul\":6143:6146   */\n      dup5\n        /* \"#utility.yul\":6139:6178   */\n      add\n        /* \"#utility.yul\":6132:6178   */\n      swap2\n      pop\n        /* \"#utility.yul\":5899:6184   */\n      pop\n        /* \"#utility.yul\":5807:6184   */\n      swap3\n      swap2\n      pop\n      pop\n      jump\t// out\n        /* \"#utility.yul\":6190:6308   */\n    tag_112:\n        /* \"#utility.yul\":6277:6301   */\n      tag_214\n        /* \"#utility.yul\":6295:6300   */\n      dup2\n        /* \"#utility.yul\":6277:6301   */\n      tag_98\n      jump\t// in\n    tag_214:\n        /* \"#utility.yul\":6272:6275   */\n      dup3\n        /* \"#utility.yul\":6265:6302   */\n      mstore\n        /* \"#utility.yul\":6190:6308   */\n      pop\n      pop\n      jump\t// out\n        /* \"#utility.yul\":6314:6737   */\n    tag_41:\n        /* \"#utility.yul\":6455:6459   */\n      0x00\n        /* \"#utility.yul\":6493:6495   */\n      0x40\n        /* \"#utility.yul\":6482:6491   */\n      dup3\n        /* \"#utility.yul\":6478:6496   */\n      add\n        /* \"#utility.yul\":6470:6496   */\n      swap1\n      pop\n        /* \"#utility.yul\":6542:6551   */\n      dup2\n        /* \"#utility.yul\":6536:6540   */\n      dup2\n        /* \"#utility.yul\":6532:6552   */\n      sub\n        /* \"#utility.yul\":6528:6529   */\n      0x00\n        /* \"#utility.yul\":6517:6526   */\n      dup4\n        /* \"#utility.yul\":6513:6530   */\n      add\n        /* \"#utility.yul\":6506:6553   */\n      mstore\n        /* \"#utility.yul\":6570:6648   */\n      tag_216\n        /* \"#utility.yul\":6643:6647   */\n      dup2\n        /* \"#utility.yul\":6634:6640   */\n      dup6\n        /* \"#utility.yul\":6570:6648   */\n      tag_111\n      jump\t// in\n    tag_216:\n        /* \"#utility.yul\":6562:6648   */\n      swap1\n      pop\n        /* \"#utility.yul\":6658:6730   */\n      tag_217\n        /* \"#utility.yul\":6726:6728   */\n      0x20\n        /* \"#utility.yul\":6715:6724   */\n      dup4\n        /* \"#utility.yul\":6711:6729   */\n      add\n        /* \"#utility.yul\":6702:6708   */\n      dup5\n        /* \"#utility.yul\":6658:6730   */\n      tag_112\n      jump\t// in\n    tag_217:\n        /* \"#utility.yul\":6314:6737   */\n      swap4\n      swap3\n      pop\n      pop\n      pop\n      jump\t// out\n        /* \"#utility.yul\":6743:6965   */\n    tag_45:\n        /* \"#utility.yul\":6836:6840   */\n      0x00\n        /* \"#utility.yul\":6874:6876   */\n      0x20\n        /* \"#utility.yul\":6863:6872   */\n      dup3\n        /* \"#utility.yul\":6859:6877   */\n      add\n        /* \"#utility.yul\":6851:6877   */\n      swap1\n      pop\n        /* \"#utility.yul\":6887:6958   */\n      tag_219\n        /* \"#utility.yul\":6955:6956   */\n      0x00\n        /* \"#utility.yul\":6944:6953   */\n      dup4\n        /* \"#utility.yul\":6940:6957   */\n      add\n        /* \"#utility.yul\":6931:6937   */\n      dup5\n        /* \"#utility.yul\":6887:6958   */\n      tag_112\n      jump\t// in\n    tag_219:\n        /* \"#utility.yul\":6743:6965   */\n      swap3\n      swap2\n      pop\n      pop\n      jump\t// out\n        /* \"#utility.yul\":6971:7206   */\n    tag_113:\n        /* \"#utility.yul\":7111:7145   */\n      0x536f6c6f20656c2070726f706965746172696f20707565646520656a65637574\n        /* \"#utility.yul\":7107:7108   */\n      0x00\n        /* \"#utility.yul\":7099:7105   */\n      dup3\n        /* \"#utility.yul\":7095:7109   */\n      add\n        /* \"#utility.yul\":7088:7146   */\n      mstore\n        /* \"#utility.yul\":7180:7198   */\n      0x617220657374612066756e63696f6e2e00000000000000000000000000000000\n        /* \"#utility.yul\":7175:7177   */\n      0x20\n        /* \"#utility.yul\":7167:7173   */\n      dup3\n        /* \"#utility.yul\":7163:7178   */\n      add\n        /* \"#utility.yul\":7156:7199   */\n      mstore\n        /* \"#utility.yul\":6971:7206   */\n      pop\n      jump\t// out\n        /* \"#utility.yul\":7212:7578   */\n    tag_114:\n        /* \"#utility.yul\":7354:7357   */\n      0x00\n        /* \"#utility.yul\":7375:7442   */\n      tag_222\n        /* \"#utility.yul\":7439:7441   */\n      0x30\n        /* \"#utility.yul\":7434:7437   */\n      dup4\n        /* \"#utility.yul\":7375:7442   */\n      tag_109\n      jump\t// in\n    tag_222:\n        /* \"#utility.yul\":7368:7442   */\n      swap2\n      pop\n        /* \"#utility.yul\":7451:7544   */\n      tag_223\n        /* \"#utility.yul\":7540:7543   */\n      dup3\n        /* \"#utility.yul\":7451:7544   */\n      tag_113\n      jump\t// in\n    tag_223:\n        /* \"#utility.yul\":7569:7571   */\n      0x40\n        /* \"#utility.yul\":7564:7567   */\n      dup3\n        /* \"#utility.yul\":7560:7572   */\n      add\n        /* \"#utility.yul\":7553:7572   */\n      swap1\n      pop\n        /* \"#utility.yul\":7212:7578   */\n      swap2\n      swap1\n      pop\n      jump\t// out\n        /* \"#utility.yul\":7584:8003   */\n    tag_49:\n        /* \"#utility.yul\":7750:7754   */\n      0x00\n        /* \"#utility.yul\":7788:7790   */\n      0x20\n        /* \"#utility.yul\":7777:7786   */\n      dup3\n        /* \"#utility.yul\":7773:7791   */\n      add\n        /* \"#utility.yul\":7765:7791   */\n      swap1\n      pop\n        /* \"#utility.yul\":7837:7846   */\n      dup2\n        /* \"#utility.yul\":7831:7835   */\n      dup2\n        /* \"#utility.yul\":7827:7847   */\n      sub\n        /* \"#utility.yul\":7823:7824   */\n      0x00\n        /* \"#utility.yul\":7812:7821   */\n      dup4\n        /* \"#utility.yul\":7808:7825   */\n      add\n        /* \"#utility.yul\":7801:7848   */\n      mstore\n        /* \"#utility.yul\":7865:7996   */\n      tag_225\n        /* \"#utility.yul\":7991:7995   */\n      dup2\n        /* \"#utility.yul\":7865:7996   */\n      tag_114\n      jump\t// in\n    tag_225:\n        /* \"#utility.yul\":7857:7996   */\n      swap1\n      pop\n        /* \"#utility.yul\":7584:8003   */\n      swap2\n      swap1\n      pop\n      jump\t// out\n        /* \"#utility.yul\":8009:8189   */\n    tag_115:\n        /* \"#utility.yul\":8057:8134   */\n      0x4e487b7100000000000000000000000000000000000000000000000000000000\n        /* \"#utility.yul\":8054:8055   */\n      0x00\n        /* \"#utility.yul\":8047:8135   */\n      mstore\n        /* \"#utility.yul\":8154:8158   */\n      0x22\n        /* \"#utility.yul\":8151:8152   */\n      0x04\n        /* \"#utility.yul\":8144:8159   */\n      mstore\n        /* \"#utility.yul\":8178:8182   */\n      0x24\n        /* \"#utility.yul\":8175:8176   */\n      0x00\n        /* \"#utility.yul\":8168:8183   */\n      revert\n        /* \"#utility.yul\":8195:8515   */\n    tag_80:\n        /* \"#utility.yul\":8239:8245   */\n      0x00\n        /* \"#utility.yul\":8276:8277   */\n      0x02\n        /* \"#utility.yul\":8270:8274   */\n      dup3\n        /* \"#utility.yul\":8266:8278   */\n      div\n        /* \"#utility.yul\":8256:8278   */\n      swap1\n      pop\n        /* \"#utility.yul\":8323:8324   */\n      0x01\n        /* \"#utility.yul\":8317:8321   */\n      dup3\n        /* \"#utility.yul\":8313:8325   */\n      and\n        /* \"#utility.yul\":8344:8362   */\n      dup1\n        /* \"#utility.yul\":8334:8415   */\n      tag_228\n      jumpi\n        /* \"#utility.yul\":8400:8404   */\n      0x7f\n        /* \"#utility.yul\":8392:8398   */\n      dup3\n        /* \"#utility.yul\":8388:8405   */\n      and\n        /* \"#utility.yul\":8378:8405   */\n      swap2\n      pop\n        /* \"#utility.yul\":8334:8415   */\n    tag_228:\n        /* \"#utility.yul\":8462:8464   */\n      0x20\n        /* \"#utility.yul\":8454:8460   */\n      dup3\n        /* \"#utility.yul\":8451:8465   */\n      lt\n        /* \"#utility.yul\":8431:8449   */\n      dup2\n        /* \"#utility.yul\":8428:8466   */\n      sub\n        /* \"#utility.yul\":8425:8509   */\n      tag_229\n      jumpi\n        /* \"#utility.yul\":8481:8499   */\n      tag_230\n      tag_115\n      jump\t// in\n    tag_230:\n        /* \"#utility.yul\":8425:8509   */\n    tag_229:\n        /* \"#utility.yul\":8246:8515   */\n      pop\n        /* \"#utility.yul\":8195:8515   */\n      swap2\n      swap1\n      pop\n      jump\t// out\n        /* \"#utility.yul\":8521:8662   */\n    tag_116:\n        /* \"#utility.yul\":8570:8574   */\n      0x00\n        /* \"#utility.yul\":8593:8596   */\n      dup2\n        /* \"#utility.yul\":8585:8596   */\n      swap1\n      pop\n        /* \"#utility.yul\":8616:8619   */\n      dup2\n        /* \"#utility.yul\":8613:8614   */\n      0x00\n        /* \"#utility.yul\":8606:8620   */\n      mstore\n        /* \"#utility.yul\":8650:8654   */\n      0x20\n        /* \"#utility.yul\":8647:8648   */\n      0x00\n        /* \"#utility.yul\":8637:8655   */\n      keccak256\n        /* \"#utility.yul\":8629:8655   */\n      swap1\n      pop\n        /* \"#utility.yul\":8521:8662   */\n      swap2\n      swap1\n      pop\n      jump\t// out\n        /* \"#utility.yul\":8668:8761   */\n    tag_117:\n        /* \"#utility.yul\":8705:8711   */\n      0x00\n        /* \"#utility.yul\":8752:8754   */\n      0x20\n        /* \"#utility.yul\":8747:8749   */\n      0x1f\n        /* \"#utility.yul\":8740:8745   */\n      dup4\n        /* \"#utility.yul\":8736:8750   */\n      add\n        /* \"#utility.yul\":8732:8755   */\n      div\n        /* \"#utility.yul\":8722:8755   */\n      swap1\n      pop\n        /* \"#utility.yul\":8668:8761   */\n      swap2\n      swap1\n      pop\n      jump\t// out\n        /* \"#utility.yul\":8767:8874   */\n    tag_118:\n        /* \"#utility.yul\":8811:8819   */\n      0x00\n        /* \"#utility.yul\":8861:8866   */\n      dup3\n        /* \"#utility.yul\":8855:8859   */\n      dup3\n        /* \"#utility.yul\":8851:8867   */\n      shl\n        /* \"#utility.yul\":8830:8867   */\n      swap1\n      pop\n        /* \"#utility.yul\":8767:8874   */\n      swap3\n      swap2\n      pop\n      pop\n      jump\t// out\n        /* \"#utility.yul\":8880:9273   */\n    tag_119:\n        /* \"#utility.yul\":8949:8955   */\n      0x00\n        /* \"#utility.yul\":8999:9000   */\n      0x08\n        /* \"#utility.yul\":8987:8997   */\n      dup4\n        /* \"#utility.yul\":8983:9001   */\n      mul\n        /* \"#utility.yul\":9022:9119   */\n      tag_235\n        /* \"#utility.yul\":9052:9118   */\n      0xffffffffffffffffffffffffffffffffffffffffffffffffffffffffffffffff\n        /* \"#utility.yul\":9041:9050   */\n      dup3\n        /* \"#utility.yul\":9022:9119   */\n      tag_118\n      jump\t// in\n    tag_235:\n        /* \"#utility.yul\":9140:9179   */\n      tag_236\n        /* \"#utility.yul\":9170:9178   */\n      dup7\n        /* \"#utility.yul\":9159:9168   */\n      dup4\n        /* \"#utility.yul\":9140:9179   */\n      tag_118\n      jump\t// in\n    tag_236:\n        /* \"#utility.yul\":9128:9179   */\n      swap6\n      pop\n        /* \"#utility.yul\":9212:9216   */\n      dup1\n        /* \"#utility.yul\":9208:9217   */\n      not\n        /* \"#utility.yul\":9201:9206   */\n      dup5\n        /* \"#utility.yul\":9197:9218   */\n      and\n        /* \"#utility.yul\":9188:9218   */\n      swap4\n      pop\n        /* \"#utility.yul\":9261:9265   */\n      dup1\n        /* \"#utility.yul\":9251:9259   */\n      dup7\n        /* \"#utility.yul\":9247:9266   */\n      and\n        /* \"#utility.yul\":9240:9245   */\n      dup5\n        /* \"#utility.yul\":9237:9267   */\n      or\n        /* \"#utility.yul\":9227:9267   */\n      swap3\n      pop\n        /* \"#utility.yul\":8956:9273   */\n      pop\n      pop\n        /* \"#utility.yul\":8880:9273   */\n      swap4\n      swap3\n      pop\n      pop\n      pop\n      jump\t// out\n        /* \"#utility.yul\":9279:9339   */\n    tag_120:\n        /* \"#utility.yul\":9307:9310   */\n      0x00\n        /* \"#utility.yul\":9328:9333   */\n      dup2\n        /* \"#utility.yul\":9321:9333   */\n      swap1\n      pop\n        /* \"#utility.yul\":9279:9339   */\n      swap2\n      swap1\n      pop\n      jump\t// out\n        /* \"#utility.yul\":9345:9487   */\n    tag_121:\n        /* \"#utility.yul\":9395:9404   */\n      0x00\n        /* \"#utility.yul\":9428:9481   */\n      tag_239\n        /* \"#utility.yul\":9446:9480   */\n      tag_240\n        /* \"#utility.yul\":9455:9479   */\n      tag_241\n        /* \"#utility.yul\":9473:9478   */\n      dup5\n        /* \"#utility.yul\":9455:9479   */\n      tag_98\n      jump\t// in\n    tag_241:\n        /* \"#utility.yul\":9446:9480   */\n      tag_120\n      jump\t// in\n    tag_240:\n        /* \"#utility.yul\":9428:9481   */\n      tag_98\n      jump\t// in\n    tag_239:\n        /* \"#utility.yul\":9415:9481   */\n      swap1\n      pop\n        /* \"#utility.yul\":9345:9487   */\n      swap2\n      swap1\n      pop\n      jump\t// out\n        /* \"#utility.yul\":9493:9568   */\n    tag_122:\n        /* \"#utility.yul\":9536:9539   */\n      0x00\n        /* \"#utility.yul\":9557:9562   */\n      dup2\n        /* \"#utility.yul\":9550:9562   */\n      swap1\n      pop\n        /* \"#utility.yul\":9493:9568   */\n      swap2\n      swap1\n      pop\n      jump\t// out\n        /* \"#utility.yul\":9574:9843   */\n    tag_123:\n        /* \"#utility.yul\":9684:9723   */\n      tag_244\n        /* \"#utility.yul\":9715:9722   */\n      dup4\n        /* \"#utility.yul\":9684:9723   */\n      tag_121\n      jump\t// in\n    tag_244:\n        /* \"#utility.yul\":9745:9836   */\n      tag_245\n        /* \"#utility.yul\":9794:9835   */\n      tag_246\n        /* \"#utility.yul\":9818:9834   */\n      dup3\n        /* \"#utility.yul\":9794:9835   */\n      tag_122\n      jump\t// in\n    tag_246:\n        /* \"#utility.yul\":9786:9792   */\n      dup5\n        /* \"#utility.yul\":9779:9783   */\n      dup5\n        /* \"#utility.yul\":9773:9784   */\n      sload\n        /* \"#utility.yul\":9745:9836   */\n      tag_119\n      jump\t// in\n    tag_245:\n        /* \"#utility.yul\":9739:9743   */\n      dup3\n        /* \"#utility.yul\":9732:9837   */\n      sstore\n        /* \"#utility.yul\":9650:9843   */\n      pop\n        /* \"#utility.yul\":9574:9843   */\n      pop\n      pop\n      pop\n      jump\t// out\n        /* \"#utility.yul\":9849:9922   */\n    tag_124:\n        /* \"#utility.yul\":9894:9897   */\n      0x00\n        /* \"#utility.yul\":9849:9922   */\n      swap1\n      jump\t// out\n        /* \"#utility.yul\":9928:10117   */\n    tag_125:\n        /* \"#utility.yul\":10005:10037   */\n      tag_249\n      tag_124\n      jump\t// in\n    tag_249:\n        /* \"#utility.yul\":10046:10111   */\n      tag_250\n        /* \"#utility.yul\":10104:10110   */\n      dup2\n        /* \"#utility.yul\":10096:10102   */\n      dup5\n        /* \"#utility.yul\":10090:10094   */\n      dup5\n        /* \"#utility.yul\":10046:10111   */\n      tag_123\n      jump\t// in\n    tag_250:\n        /* \"#utility.yul\":9981:10117   */\n      pop\n        /* \"#utility.yul\":9928:10117   */\n      pop\n      pop\n      jump\t// out\n        /* \"#utility.yul\":10123:10309   */\n    tag_126:\n        /* \"#utility.yul\":10183:10303   */\n    tag_252:\n        /* \"#utility.yul\":10200:10203   */\n      dup2\n        /* \"#utility.yul\":10193:10198   */\n      dup2\n        /* \"#utility.yul\":10190:10204   */\n      lt\n        /* \"#utility.yul\":10183:10303   */\n      iszero\n      tag_254\n      jumpi\n        /* \"#utility.yul\":10254:10293   */\n      tag_255\n        /* \"#utility.yul\":10291:10292   */\n      0x00\n        /* \"#utility.yul\":10284:10289   */\n      dup3\n        /* \"#utility.yul\":10254:10293   */\n      tag_125\n      jump\t// in\n    tag_255:\n        /* \"#utility.yul\":10227:10228   */\n      0x01\n        /* \"#utility.yul\":10220:10225   */\n      dup2\n        /* \"#utility.yul\":10216:10229   */\n      add\n        /* \"#utility.yul\":10207:10229   */\n      swap1\n      pop\n        /* \"#utility.yul\":10183:10303   */\n      jump(tag_252)\n    tag_254:\n        /* \"#utility.yul\":10123:10309   */\n      pop\n      pop\n      jump\t// out\n        /* \"#utility.yul\":10315:10858   */\n    tag_127:\n        /* \"#utility.yul\":10416:10418   */\n      0x1f\n        /* \"#utility.yul\":10411:10414   */\n      dup3\n        /* \"#utility.yul\":10408:10419   */\n      gt\n        /* \"#utility.yul\":10405:10851   */\n      iszero\n      tag_257\n      jumpi\n        /* \"#utility.yul\":10450:10488   */\n      tag_258\n        /* \"#utility.yul\":10482:10487   */\n      dup2\n        /* \"#utility.yul\":10450:10488   */\n      tag_116\n      jump\t// in\n    tag_258:\n        /* \"#utility.yul\":10534:10563   */\n      tag_259\n        /* \"#utility.yul\":10552:10562   */\n      dup5\n        /* \"#utility.yul\":10534:10563   */\n      tag_117\n      jump\t// in\n    tag_259:\n        /* \"#utility.yul\":10524:10532   */\n      dup2\n        /* \"#utility.yul\":10520:10564   */\n      add\n        /* \"#utility.yul\":10717:10719   */\n      0x20\n        /* \"#utility.yul\":10705:10715   */\n      dup6\n        /* \"#utility.yul\":10702:10720   */\n      lt\n        /* \"#utility.yul\":10699:10748   */\n      iszero\n      tag_260\n      jumpi\n        /* \"#utility.yul\":10738:10746   */\n      dup2\n        /* \"#utility.yul\":10723:10746   */\n      swap1\n      pop\n        /* \"#utility.yul\":10699:10748   */\n    tag_260:\n        /* \"#utility.yul\":10761:10841   */\n      tag_261\n        /* \"#utility.yul\":10817:10839   */\n      tag_262\n        /* \"#utility.yul\":10835:10838   */\n      dup6\n        /* \"#utility.yul\":10817:10839   */\n      tag_117\n      jump\t// in\n    tag_262:\n        /* \"#utility.yul\":10807:10815   */\n      dup4\n        /* \"#utility.yul\":10803:10840   */\n      add\n        /* \"#utility.yul\":10790:10801   */\n      dup3\n        /* \"#utility.yul\":10761:10841   */\n      tag_126\n      jump\t// in\n    tag_261:\n        /* \"#utility.yul\":10420:10851   */\n      pop\n      pop\n        /* \"#utility.yul\":10405:10851   */\n    tag_257:\n        /* \"#utility.yul\":10315:10858   */\n      pop\n      pop\n      pop\n      jump\t// out\n        /* \"#utility.yul\":10864:10981   */\n    tag_128:\n        /* \"#utility.yul\":10918:10926   */\n      0x00\n        /* \"#utility.yul\":10968:10973   */\n      dup3\n        /* \"#utility.yul\":10962:10966   */\n      dup3\n        /* \"#utility.yul\":10958:10974   */\n      shr\n        /* \"#utility.yul\":10937:10974   */\n      swap1\n      pop\n        /* \"#utility.yul\":10864:10981   */\n      swap3\n      swap2\n      pop\n      pop\n      jump\t// out\n        /* \"#utility.yul\":10987:11156   */\n    tag_129:\n        /* \"#utility.yul\":11031:11037   */\n      0x00\n        /* \"#utility.yul\":11064:11115   */\n      tag_265\n        /* \"#utility.yul\":11112:11113   */\n      0x00\n        /* \"#utility.yul\":11108:11114   */\n      not\n        /* \"#utility.yul\":11100:11105   */\n      dup5\n        /* \"#utility.yul\":11097:11098   */\n      0x08\n        /* \"#utility.yul\":11093:11106   */\n      mul\n        /* \"#utility.yul\":11064:11115   */\n      tag_128\n      jump\t// in\n    tag_265:\n        /* \"#utility.yul\":11060:11116   */\n      not\n        /* \"#utility.yul\":11145:11149   */\n      dup1\n        /* \"#utility.yul\":11139:11143   */\n      dup4\n        /* \"#utility.yul\":11135:11150   */\n      and\n        /* \"#utility.yul\":11125:11150   */\n      swap2\n      pop\n        /* \"#utility.yul\":11038:11156   */\n      pop\n        /* \"#utility.yul\":10987:11156   */\n      swap3\n      swap2\n      pop\n      pop\n      jump\t// out\n        /* \"#utility.yul\":11161:11456   */\n    tag_130:\n        /* \"#utility.yul\":11237:11241   */\n      0x00\n        /* \"#utility.yul\":11383:11412   */\n      tag_267\n        /* \"#utility.yul\":11408:11411   */\n      dup4\n        /* \"#utility.yul\":11402:11406   */\n      dup4\n        /* \"#utility.yul\":11383:11412   */\n      tag_129\n      jump\t// in\n    tag_267:\n        /* \"#utility.yul\":11375:11412   */\n      swap2\n      pop\n        /* \"#utility.yul\":11445:11448   */\n      dup3\n        /* \"#utility.yul\":11442:11443   */\n      0x02\n        /* \"#utility.yul\":11438:11449   */\n      mul\n        /* \"#utility.yul\":11432:11436   */\n      dup3\n        /* \"#utility.yul\":11429:11450   */\n      or\n        /* \"#utility.yul\":11421:11450   */\n      swap1\n      pop\n        /* \"#utility.yul\":11161:11456   */\n      swap3\n      swap2\n      pop\n      pop\n      jump\t// out\n        /* \"#utility.yul\":11461:12856   */\n    tag_53:\n        /* \"#utility.yul\":11578:11615   */\n      tag_269\n        /* \"#utility.yul\":11611:11614   */\n      dup3\n        /* \"#utility.yul\":11578:11615   */\n      tag_108\n      jump\t// in\n    tag_269:\n        /* \"#utility.yul\":11680:11698   */\n      0xffffffffffffffff\n        /* \"#utility.yul\":11672:11678   */\n      dup2\n        /* \"#utility.yul\":11669:11699   */\n      gt\n        /* \"#utility.yul\":11666:11722   */\n      iszero\n      tag_270\n      jumpi\n        /* \"#utility.yul\":11702:11720   */\n      tag_271\n      tag_91\n      jump\t// in\n    tag_271:\n        /* \"#utility.yul\":11666:11722   */\n    tag_270:\n        /* \"#utility.yul\":11746:11784   */\n      tag_272\n        /* \"#utility.yul\":11778:11782   */\n      dup3\n        /* \"#utility.yul\":11772:11783   */\n      sload\n        /* \"#utility.yul\":11746:11784   */\n      tag_80\n      jump\t// in\n    tag_272:\n        /* \"#utility.yul\":11831:11898   */\n      tag_273\n        /* \"#utility.yul\":11891:11897   */\n      dup3\n        /* \"#utility.yul\":11883:11889   */\n      dup3\n        /* \"#utility.yul\":11877:11881   */\n      dup6\n        /* \"#utility.yul\":11831:11898   */\n      tag_127\n      jump\t// in\n    tag_273:\n        /* \"#utility.yul\":11925:11926   */\n      0x00\n        /* \"#utility.yul\":11949:11953   */\n      0x20\n        /* \"#utility.yul\":11936:11953   */\n      swap1\n      pop\n        /* \"#utility.yul\":11981:11983   */\n      0x1f\n        /* \"#utility.yul\":11973:11979   */\n      dup4\n        /* \"#utility.yul\":11970:11984   */\n      gt\n        /* \"#utility.yul\":11998:11999   */\n      0x01\n        /* \"#utility.yul\":11993:12611   */\n      dup2\n      eq\n      tag_275\n      jumpi\n        /* \"#utility.yul\":12655:12656   */\n      0x00\n        /* \"#utility.yul\":12672:12678   */\n      dup5\n        /* \"#utility.yul\":12669:12746   */\n      iszero\n      tag_276\n      jumpi\n        /* \"#utility.yul\":12721:12730   */\n      dup3\n        /* \"#utility.yul\":12716:12719   */\n      dup8\n        /* \"#utility.yul\":12712:12731   */\n      add\n        /* \"#utility.yul\":12706:12732   */\n      mload\n        /* \"#utility.yul\":12697:12732   */\n      swap1\n      pop\n        /* \"#utility.yul\":12669:12746   */\n    tag_276:\n        /* \"#utility.yul\":12772:12839   */\n      tag_277\n        /* \"#utility.yul\":12832:12838   */\n      dup6\n        /* \"#utility.yul\":12825:12830   */\n      dup3\n        /* \"#utility.yul\":12772:12839   */\n      tag_130\n      jump\t// in\n    tag_277:\n        /* \"#utility.yul\":12766:12770   */\n      dup7\n        /* \"#utility.yul\":12759:12840   */\n      sstore\n        /* \"#utility.yul\":12628:12850   */\n      pop\n        /* \"#utility.yul\":11963:12850   */\n      jump(tag_274)\n        /* \"#utility.yul\":11993:12611   */\n    tag_275:\n        /* \"#utility.yul\":12045:12049   */\n      0x1f\n        /* \"#utility.yul\":12041:12050   */\n      not\n        /* \"#utility.yul\":12033:12039   */\n      dup5\n        /* \"#utility.yul\":12029:12051   */\n      and\n        /* \"#utility.yul\":12079:12116   */\n      tag_278\n        /* \"#utility.yul\":12111:12115   */\n      dup7\n        /* \"#utility.yul\":12079:12116   */\n      tag_116\n      jump\t// in\n    tag_278:\n        /* \"#utility.yul\":12138:12139   */\n      0x00\n        /* \"#utility.yul\":12152:12360   */\n    tag_279:\n        /* \"#utility.yul\":12166:12173   */\n      dup3\n        /* \"#utility.yul\":12163:12164   */\n      dup2\n        /* \"#utility.yul\":12160:12174   */\n      lt\n        /* \"#utility.yul\":12152:12360   */\n      iszero\n      tag_281\n      jumpi\n        /* \"#utility.yul\":12245:12254   */\n      dup5\n        /* \"#utility.yul\":12240:12243   */\n      dup10\n        /* \"#utility.yul\":12236:12255   */\n      add\n        /* \"#utility.yul\":12230:12256   */\n      mload\n        /* \"#utility.yul\":12222:12228   */\n      dup3\n        /* \"#utility.yul\":12215:12257   */\n      sstore\n        /* \"#utility.yul\":12296:12297   */\n      0x01\n        /* \"#utility.yul\":12288:12294   */\n      dup3\n        /* \"#utility.yul\":12284:12298   */\n      add\n        /* \"#utility.yul\":12274:12298   */\n      swap2\n      pop\n        /* \"#utility.yul\":12343:12345   */\n      0x20\n        /* \"#utility.yul\":12332:12341   */\n      dup6\n        /* \"#utility.yul\":12328:12346   */\n      add\n        /* \"#utility.yul\":12315:12346   */\n      swap5\n      pop\n        /* \"#utility.yul\":12189:12193   */\n      0x20\n        /* \"#utility.yul\":12186:12187   */\n      dup2\n        /* \"#utility.yul\":12182:12194   */\n      add\n        /* \"#utility.yul\":12177:12194   */\n      swap1\n      pop\n        /* \"#utility.yul\":12152:12360   */\n      jump(tag_279)\n    tag_281:\n        /* \"#utility.yul\":12388:12394   */\n      dup7\n        /* \"#utility.yul\":12379:12386   */\n      dup4\n        /* \"#utility.yul\":12376:12395   */\n      lt\n        /* \"#utility.yul\":12373:12552   */\n      iszero\n      tag_282\n      jumpi\n        /* \"#utility.yul\":12446:12455   */\n      dup5\n        /* \"#utility.yul\":12441:12444   */\n      dup10\n        /* \"#utility.yul\":12437:12456   */\n      add\n        /* \"#utility.yul\":12431:12457   */\n      mload\n        /* \"#utility.yul\":12489:12537   */\n      tag_283\n        /* \"#utility.yul\":12531:12535   */\n      0x1f\n        /* \"#utility.yul\":12523:12529   */\n      dup10\n        /* \"#utility.yul\":12519:12536   */\n      and\n        /* \"#utility.yul\":12508:12517   */\n      dup3\n        /* \"#utility.yul\":12489:12537   */\n      tag_129\n      jump\t// in\n    tag_283:\n        /* \"#utility.yul\":12481:12487   */\n      dup4\n        /* \"#utility.yul\":12474:12538   */\n      sstore\n        /* \"#utility.yul\":12396:12552   */\n      pop\n        /* \"#utility.yul\":12373:12552   */\n    tag_282:\n        /* \"#utility.yul\":12598:12599   */\n      0x01\n        /* \"#utility.yul\":12594:12595   */\n      0x02\n        /* \"#utility.yul\":12586:12592   */\n      dup9\n        /* \"#utility.yul\":12582:12596   */\n      mul\n        /* \"#utility.yul\":12578:12600   */\n      add\n        /* \"#utility.yul\":12572:12576   */\n      dup9\n        /* \"#utility.yul\":12565:12601   */\n      sstore\n        /* \"#utility.yul\":12000:12611   */\n      pop\n      pop\n      pop\n        /* \"#utility.yul\":11963:12850   */\n    tag_274:\n      pop\n        /* \"#utility.yul\":11553:12856   */\n      pop\n      pop\n      pop\n        /* \"#utility.yul\":11461:12856   */\n      pop\n      pop\n      jump\t// out\n        /* \"#utility.yul\":12862:13092   */\n    tag_131:\n        /* \"#utility.yul\":13002:13036   */\n      0x536f6c6f206c617320706572736f6e6173206175746f72697a61646173207075\n        /* \"#utility.yul\":12998:12999   */\n      0x00\n        /* \"#utility.yul\":12990:12996   */\n      dup3\n        /* \"#utility.yul\":12986:13000   */\n      add\n        /* \"#utility.yul\":12979:13037   */\n      mstore\n        /* \"#utility.yul\":13071:13084   */\n      0x6564656e20766f7461722e000000000000000000000000000000000000000000\n        /* \"#utility.yul\":13066:13068   */\n      0x20\n        /* \"#utility.yul\":13058:13064   */\n      dup3\n        /* \"#utility.yul\":13054:13069   */\n      add\n        /* \"#utility.yul\":13047:13085   */\n      mstore\n        /* \"#utility.yul\":12862:13092   */\n      pop\n      jump\t// out\n        /* \"#utility.yul\":13098:13464   */\n    tag_132:\n        /* \"#utility.yul\":13240:13243   */\n      0x00\n        /* \"#utility.yul\":13261:13328   */\n      tag_286\n        /* \"#utility.yul\":13325:13327   */\n      0x2b\n        /* \"#utility.yul\":13320:13323   */\n      dup4\n        /* \"#utility.yul\":13261:13328   */\n      tag_109\n      jump\t// in\n    tag_286:\n        /* \"#utility.yul\":13254:13328   */\n      swap2\n      pop\n        /* \"#utility.yul\":13337:13430   */\n      tag_287\n        /* \"#utility.yul\":13426:13429   */\n      dup3\n        /* \"#utility.yul\":13337:13430   */\n      tag_131\n      jump\t// in\n    tag_287:\n        /* \"#utility.yul\":13455:13457   */\n      0x40\n        /* \"#utility.yul\":13450:13453   */\n      dup3\n        /* \"#utility.yul\":13446:13458   */\n      add\n        /* \"#utility.yul\":13439:13458   */\n      swap1\n      pop\n        /* \"#utility.yul\":13098:13464   */\n      swap2\n      swap1\n      pop\n      jump\t// out\n        /* \"#utility.yul\":13470:13889   */\n    tag_57:\n        /* \"#utility.yul\":13636:13640   */\n      0x00\n        /* \"#utility.yul\":13674:13676   */\n      0x20\n        /* \"#utility.yul\":13663:13672   */\n      dup3\n        /* \"#utility.yul\":13659:13677   */\n      add\n        /* \"#utility.yul\":13651:13677   */\n      swap1\n      pop\n        /* \"#utility.yul\":13723:13732   */\n      dup2\n        /* \"#utility.yul\":13717:13721   */\n      dup2\n        /* \"#utility.yul\":13713:13733   */\n      sub\n        /* \"#utility.yul\":13709:13710   */\n      0x00\n        /* \"#utility.yul\":13698:13707   */\n      dup4\n        /* \"#utility.yul\":13694:13711   */\n      add\n        /* \"#utility.yul\":13687:13734   */\n      mstore\n        /* \"#utility.yul\":13751:13882   */\n      tag_289\n        /* \"#utility.yul\":13877:13881   */\n      dup2\n        /* \"#utility.yul\":13751:13882   */\n      tag_132\n      jump\t// in\n    tag_289:\n        /* \"#utility.yul\":13743:13882   */\n      swap1\n      pop\n        /* \"#utility.yul\":13470:13889   */\n      swap2\n      swap1\n      pop\n      jump\t// out\n        /* \"#utility.yul\":13895:14119   */\n    tag_133:\n        /* \"#utility.yul\":14035:14069   */\n      0x456c20706572696f646f20646520766f746163696f6e2068612066696e616c69\n        /* \"#utility.yul\":14031:14032   */\n      0x00\n        /* \"#utility.yul\":14023:14029   */\n      dup3\n        /* \"#utility.yul\":14019:14033   */\n      add\n        /* \"#utility.yul\":14012:14070   */\n      mstore\n        /* \"#utility.yul\":14104:14111   */\n      0x7a61646f2e000000000000000000000000000000000000000000000000000000\n        /* \"#utility.yul\":14099:14101   */\n      0x20\n        /* \"#utility.yul\":14091:14097   */\n      dup3\n        /* \"#utility.yul\":14087:14102   */\n      add\n        /* \"#utility.yul\":14080:14112   */\n      mstore\n        /* \"#utility.yul\":13895:14119   */\n      pop\n      jump\t// out\n        /* \"#utility.yul\":14125:14491   */\n    tag_134:\n        /* \"#utility.yul\":14267:14270   */\n      0x00\n        /* \"#utility.yul\":14288:14355   */\n      tag_292\n        /* \"#utility.yul\":14352:14354   */\n      0x25\n        /* \"#utility.yul\":14347:14350   */\n      dup4\n        /* \"#utility.yul\":14288:14355   */\n      tag_109\n      jump\t// in\n    tag_292:\n        /* \"#utility.yul\":14281:14355   */\n      swap2\n      pop\n        /* \"#utility.yul\":14364:14457   */\n      tag_293\n        /* \"#utility.yul\":14453:14456   */\n      dup3\n        /* \"#utility.yul\":14364:14457   */\n      tag_133\n      jump\t// in\n    tag_293:\n        /* \"#utility.yul\":14482:14484   */\n      0x40\n        /* \"#utility.yul\":14477:14480   */\n      dup3\n        /* \"#utility.yul\":14473:14485   */\n      add\n        /* \"#utility.yul\":14466:14485   */\n      swap1\n      pop\n        /* \"#utility.yul\":14125:14491   */\n      swap2\n      swap1\n      pop\n      jump\t// out\n        /* \"#utility.yul\":14497:14916   */\n    tag_61:\n        /* \"#utility.yul\":14663:14667   */\n      0x00\n        /* \"#utility.yul\":14701:14703   */\n      0x20\n        /* \"#utility.yul\":14690:14699   */\n      dup3\n        /* \"#utility.yul\":14686:14704   */\n      add\n        /* \"#utility.yul\":14678:14704   */\n      swap1\n      pop\n        /* \"#utility.yul\":14750:14759   */\n      dup2\n        /* \"#utility.yul\":14744:14748   */\n      dup2\n        /* \"#utility.yul\":14740:14760   */\n      sub\n        /* \"#utility.yul\":14736:14737   */\n      0x00\n        /* \"#utility.yul\":14725:14734   */\n      dup4\n        /* \"#utility.yul\":14721:14738   */\n      add\n        /* \"#utility.yul\":14714:14761   */\n      mstore\n        /* \"#utility.yul\":14778:14909   */\n      tag_295\n        /* \"#utility.yul\":14904:14908   */\n      dup2\n        /* \"#utility.yul\":14778:14909   */\n      tag_134\n      jump\t// in\n    tag_295:\n        /* \"#utility.yul\":14770:14909   */\n      swap1\n      pop\n        /* \"#utility.yul\":14497:14916   */\n      swap2\n      swap1\n      pop\n      jump\t// out\n        /* \"#utility.yul\":14922:15086   */\n    tag_135:\n        /* \"#utility.yul\":15062:15078   */\n      0x557374656420796120766f746f2e000000000000000000000000000000000000\n        /* \"#utility.yul\":15058:15059   */\n      0x00\n        /* \"#utility.yul\":15050:15056   */\n      dup3\n        /* \"#utility.yul\":15046:15060   */\n      add\n        /* \"#utility.yul\":15039:15079   */\n      mstore\n        /* \"#utility.yul\":14922:15086   */\n      pop\n      jump\t// out\n        /* \"#utility.yul\":15092:15458   */\n    tag_136:\n        /* \"#utility.yul\":15234:15237   */\n      0x00\n        /* \"#utility.yul\":15255:15322   */\n      tag_298\n        /* \"#utility.yul\":15319:15321   */\n      0x0e\n        /* \"#utility.yul\":15314:15317   */\n      dup4\n        /* \"#utility.yul\":15255:15322   */\n      tag_109\n      jump\t// in\n    tag_298:\n        /* \"#utility.yul\":15248:15322   */\n      swap2\n      pop\n        /* \"#utility.yul\":15331:15424   */\n      tag_299\n        /* \"#utility.yul\":15420:15423   */\n      dup3\n        /* \"#utility.yul\":15331:15424   */\n      tag_135\n      jump\t// in\n    tag_299:\n        /* \"#utility.yul\":15449:15451   */\n      0x20\n        /* \"#utility.yul\":15444:15447   */\n      dup3\n        /* \"#utility.yul\":15440:15452   */\n      add\n        /* \"#utility.yul\":15433:15452   */\n      swap1\n      pop\n        /* \"#utility.yul\":15092:15458   */\n      swap2\n      swap1\n      pop\n      jump\t// out\n        /* \"#utility.yul\":15464:15883   */\n    tag_65:\n        /* \"#utility.yul\":15630:15634   */\n      0x00\n        /* \"#utility.yul\":15668:15670   */\n      0x20\n        /* \"#utility.yul\":15657:15666   */\n      dup3\n        /* \"#utility.yul\":15653:15671   */\n      add\n        /* \"#utility.yul\":15645:15671   */\n      swap1\n      pop\n        /* \"#utility.yul\":15717:15726   */\n      dup2\n        /* \"#utility.yul\":15711:15715   */\n      dup2\n        /* \"#utility.yul\":15707:15727   */\n      sub\n        /* \"#utility.yul\":15703:15704   */\n      0x00\n        /* \"#utility.yul\":15692:15701   */\n      dup4\n        /* \"#utility.yul\":15688:15705   */\n      add\n        /* \"#utility.yul\":15681:15728   */\n      mstore\n        /* \"#utility.yul\":15745:15876   */\n      tag_301\n        /* \"#utility.yul\":15871:15875   */\n      dup2\n        /* \"#utility.yul\":15745:15876   */\n      tag_136\n      jump\t// in\n    tag_301:\n        /* \"#utility.yul\":15737:15876   */\n      swap1\n      pop\n        /* \"#utility.yul\":15464:15883   */\n      swap2\n      swap1\n      pop\n      jump\t// out\n        /* \"#utility.yul\":15889:16069   */\n    tag_69:\n        /* \"#utility.yul\":15937:16014   */\n      0x4e487b7100000000000000000000000000000000000000000000000000000000\n        /* \"#utility.yul\":15934:15935   */\n      0x00\n        /* \"#utility.yul\":15927:16015   */\n      mstore\n        /* \"#utility.yul\":16034:16038   */\n      0x32\n        /* \"#utility.yul\":16031:16032   */\n      0x04\n        /* \"#utility.yul\":16024:16039   */\n      mstore\n        /* \"#utility.yul\":16058:16062   */\n      0x24\n        /* \"#utility.yul\":16055:16056   */\n      0x00\n        /* \"#utility.yul\":16048:16063   */\n      revert\n        /* \"#utility.yul\":16075:16255   */\n    tag_137:\n        /* \"#utility.yul\":16123:16200   */\n      0x4e487b7100000000000000000000000000000000000000000000000000000000\n        /* \"#utility.yul\":16120:16121   */\n      0x00\n        /* \"#utility.yul\":16113:16201   */\n      mstore\n        /* \"#utility.yul\":16220:16224   */\n      0x11\n        /* \"#utility.yul\":16217:16218   */\n      0x04\n        /* \"#utility.yul\":16210:16225   */\n      mstore\n        /* \"#utility.yul\":16244:16248   */\n      0x24\n        /* \"#utility.yul\":16241:16242   */\n      0x00\n        /* \"#utility.yul\":16234:16249   */\n      revert\n        /* \"#utility.yul\":16261:16452   */\n    tag_72:\n        /* \"#utility.yul\":16301:16304   */\n      0x00\n        /* \"#utility.yul\":16320:16340   */\n      tag_305\n        /* \"#utility.yul\":16338:16339   */\n      dup3\n        /* \"#utility.yul\":16320:16340   */\n      tag_98\n      jump\t// in\n    tag_305:\n        /* \"#utility.yul\":16315:16340   */\n      swap2\n      pop\n        /* \"#utility.yul\":16354:16374   */\n      tag_306\n        /* \"#utility.yul\":16372:16373   */\n      dup4\n        /* \"#utility.yul\":16354:16374   */\n      tag_98\n      jump\t// in\n    tag_306:\n        /* \"#utility.yul\":16349:16374   */\n      swap3\n      pop\n        /* \"#utility.yul\":16397:16398   */\n      dup3\n        /* \"#utility.yul\":16394:16395   */\n      dup3\n        /* \"#utility.yul\":16390:16399   */\n      add\n        /* \"#utility.yul\":16383:16399   */\n      swap1\n      pop\n        /* \"#utility.yul\":16418:16421   */\n      dup1\n        /* \"#utility.yul\":16415:16416   */\n      dup3\n        /* \"#utility.yul\":16412:16422   */\n      gt\n        /* \"#utility.yul\":16409:16445   */\n      iszero\n      tag_307\n      jumpi\n        /* \"#utility.yul\":16425:16443   */\n      tag_308\n      tag_137\n      jump\t// in\n    tag_308:\n        /* \"#utility.yul\":16409:16445   */\n    tag_307:\n        /* \"#utility.yul\":16261:16452   */\n      swap3\n      swap2\n      pop\n      pop\n      jump\t// out\n\n    auxdata: 0xa2646970667358221220b2ba487c2f53030319750d03641f328f1e67511c359e8a77e9584d49379ea79f64736f6c634300081a0033\n}\n",
				"bytecode": {
					"linkReferences": {},
					"object": "608060405234801561000f575f80fd5b5060405161114f38038061114f833981810160405281019061003191906100ce565b3360015f6101000a81548173ffffffffffffffffffffffffffffffffffffffff021916908373ffffffffffffffffffffffffffffffffffffffff16021790555062015180816100809190610126565b4261008b9190610167565b6004819055505061019a565b5f80fd5b5f819050919050565b6100ad8161009b565b81146100b7575f80fd5b50565b5f815190506100c8816100a4565b92915050565b5f602082840312156100e3576100e2610097565b5b5f6100f0848285016100ba565b91505092915050565b7f4e487b71000000000000000000000000000000000000000000000000000000005f52601160045260245ffd5b5f6101308261009b565b915061013b8361009b565b92508282026101498161009b565b915082820484148315176101605761015f6100f9565b5b5092915050565b5f6101718261009b565b915061017c8361009b565b9250828201905080821115610194576101936100f9565b5b92915050565b610fa8806101a75f395ff3fe608060405234801561000f575f80fd5b5060043610610086575f3560e01c80633c4f81cd116100595780633c4f81cd14610122578063406f12cb146101405780636097e2161461015c5780637334151b1461018d57610086565b80630a4019421461008a57806321606831146100a657806327073c4c146100c2578063372c12b1146100f2575b5f80fd5b6100a4600480360381019061009f91906107cf565b6101ab565b005b6100c060048036038101906100bb9190610849565b610299565b005b6100dc60048036038101906100d791906108ce565b610482565b6040516100e99190610913565b60405180910390f35b61010c600480360381019061010791906108ce565b61049f565b6040516101199190610913565b60405180910390f35b61012a6104bc565b604051610137919061093b565b60405180910390f35b61015a600480360381019061015591906108ce565b6104e1565b005b61017660048036038101906101719190610849565b6105c8565b6040516101849291906109c3565b60405180910390f35b61019561067c565b6040516101a291906109f1565b60405180910390f35b60015f9054906101000a900473ffffffffffffffffffffffffffffffffffffffff1673ffffffffffffffffffffffffffffffffffffffff163373ffffffffffffffffffffffffffffffffffffffff161461023a576040517f08c379a000000000000000000000000000000000000000000000000000000000815260040161023190610a7a565b60405180910390fd5b5f60405180604001604052808381526020015f815250908060018154018082558091505060019003905f5260205f2090600202015f909190919091505f820151815f0190816102899190610c92565b5060208201518160010155505050565b60025f3373ffffffffffffffffffffffffffffffffffffffff1673ffffffffffffffffffffffffffffffffffffffff1681526020019081526020015f205f9054906101000a900460ff16610322576040517f08c379a000000000000000000000000000000000000000000000000000000000815260040161031990610dd1565b60405180910390fd5b600454421115610367576040517f08c379a000000000000000000000000000000000000000000000000000000000815260040161035e90610e5f565b60405180910390fd5b60035f3373ffffffffffffffffffffffffffffffffffffffff1673ffffffffffffffffffffffffffffffffffffffff1681526020019081526020015f205f9054906101000a900460ff16156103f1576040517f08c379a00000000000000000000000000000000000000000000000000000000081526004016103e890610ec7565b60405180910390fd5b60015f828154811061040657610405610ee5565b5b905f5260205f2090600202016001015f8282546104239190610f3f565b92505081905550600160035f3373ffffffffffffffffffffffffffffffffffffffff1673ffffffffffffffffffffffffffffffffffffffff1681526020019081526020015f205f6101000a81548160ff02191690831515021790555050565b6003602052805f5260405f205f915054906101000a900460ff1681565b6002602052805f5260405f205f915054906101000a900460ff1681565b60015f9054906101000a900473ffffffffffffffffffffffffffffffffffffffff1681565b60015f9054906101000a900473ffffffffffffffffffffffffffffffffffffffff1673ffffffffffffffffffffffffffffffffffffffff163373ffffffffffffffffffffffffffffffffffffffff1614610570576040517f08c379a000000000000000000000000000000000000000000000000000000000815260040161056790610a7a565b60405180910390fd5b600160025f8373ffffffffffffffffffffffffffffffffffffffff1673ffffffffffffffffffffffffffffffffffffffff1681526020019081526020015f205f6101000a81548160ff02191690831515021790555050565b5f81815481106105d6575f80fd5b905f5260205f2090600202015f91509050805f0180546105f590610ac5565b80601f016020809104026020016040519081016040528092919081815260200182805461062190610ac5565b801561066c5780601f106106435761010080835404028352916020019161066c565b820191905f5260205f20905b81548152906001019060200180831161064f57829003601f168201915b5050505050908060010154905082565b60045481565b5f604051905090565b5f80fd5b5f80fd5b5f80fd5b5f80fd5b5f601f19601f8301169050919050565b7f4e487b71000000000000000000000000000000000000000000000000000000005f52604160045260245ffd5b6106e18261069b565b810181811067ffffffffffffffff82111715610700576106ff6106ab565b5b80604052505050565b5f610712610682565b905061071e82826106d8565b919050565b5f67ffffffffffffffff82111561073d5761073c6106ab565b5b6107468261069b565b9050602081019050919050565b828183375f83830152505050565b5f61077361076e84610723565b610709565b90508281526020810184848401111561078f5761078e610697565b5b61079a848285610753565b509392505050565b5f82601f8301126107b6576107b5610693565b5b81356107c6848260208601610761565b91505092915050565b5f602082840312156107e4576107e361068b565b5b5f82013567ffffffffffffffff8111156108015761080061068f565b5b61080d848285016107a2565b91505092915050565b5f819050919050565b61082881610816565b8114610832575f80fd5b50565b5f813590506108438161081f565b92915050565b5f6020828403121561085e5761085d61068b565b5b5f61086b84828501610835565b91505092915050565b5f73ffffffffffffffffffffffffffffffffffffffff82169050919050565b5f61089d82610874565b9050919050565b6108ad81610893565b81146108b7575f80fd5b50565b5f813590506108c8816108a4565b92915050565b5f602082840312156108e3576108e261068b565b5b5f6108f0848285016108ba565b91505092915050565b5f8115159050919050565b61090d816108f9565b82525050565b5f6020820190506109265f830184610904565b92915050565b61093581610893565b82525050565b5f60208201905061094e5f83018461092c565b92915050565b5f81519050919050565b5f82825260208201905092915050565b8281835e5f83830152505050565b5f61098682610954565b610990818561095e565b93506109a081856020860161096e565b6109a98161069b565b840191505092915050565b6109bd81610816565b82525050565b5f6040820190508181035f8301526109db818561097c565b90506109ea60208301846109b4565b9392505050565b5f602082019050610a045f8301846109b4565b92915050565b7f536f6c6f20656c2070726f706965746172696f20707565646520656a656375745f8201527f617220657374612066756e63696f6e2e00000000000000000000000000000000602082015250565b5f610a6460308361095e565b9150610a6f82610a0a565b604082019050919050565b5f6020820190508181035f830152610a9181610a58565b9050919050565b7f4e487b71000000000000000000000000000000000000000000000000000000005f52602260045260245ffd5b5f6002820490506001821680610adc57607f821691505b602082108103610aef57610aee610a98565b5b50919050565b5f819050815f5260205f209050919050565b5f6020601f8301049050919050565b5f82821b905092915050565b5f60088302610b517fffffffffffffffffffffffffffffffffffffffffffffffffffffffffffffffff82610b16565b610b5b8683610b16565b95508019841693508086168417925050509392505050565b5f819050919050565b5f610b96610b91610b8c84610816565b610b73565b610816565b9050919050565b5f819050919050565b610baf83610b7c565b610bc3610bbb82610b9d565b848454610b22565b825550505050565b5f90565b610bd7610bcb565b610be2818484610ba6565b505050565b5b81811015610c0557610bfa5f82610bcf565b600181019050610be8565b5050565b601f821115610c4a57610c1b81610af5565b610c2484610b07565b81016020851015610c33578190505b610c47610c3f85610b07565b830182610be7565b50505b505050565b5f82821c905092915050565b5f610c6a5f1984600802610c4f565b1980831691505092915050565b5f610c828383610c5b565b9150826002028217905092915050565b610c9b82610954565b67ffffffffffffffff811115610cb457610cb36106ab565b5b610cbe8254610ac5565b610cc9828285610c09565b5f60209050601f831160018114610cfa575f8415610ce8578287015190505b610cf28582610c77565b865550610d59565b601f198416610d0886610af5565b5f5b82811015610d2f57848901518255600182019150602085019450602081019050610d0a565b86831015610d4c5784890151610d48601f891682610c5b565b8355505b6001600288020188555050505b505050505050565b7f536f6c6f206c617320706572736f6e6173206175746f72697a616461732070755f8201527f6564656e20766f7461722e000000000000000000000000000000000000000000602082015250565b5f610dbb602b8361095e565b9150610dc682610d61565b604082019050919050565b5f6020820190508181035f830152610de881610daf565b9050919050565b7f456c20706572696f646f20646520766f746163696f6e2068612066696e616c695f8201527f7a61646f2e000000000000000000000000000000000000000000000000000000602082015250565b5f610e4960258361095e565b9150610e5482610def565b604082019050919050565b5f6020820190508181035f830152610e7681610e3d565b9050919050565b7f557374656420796120766f746f2e0000000000000000000000000000000000005f82015250565b5f610eb1600e8361095e565b9150610ebc82610e7d565b602082019050919050565b5f6020820190508181035f830152610ede81610ea5565b9050919050565b7f4e487b71000000000000000000000000000000000000000000000000000000005f52603260045260245ffd5b7f4e487b71000000000000000000000000000000000000000000000000000000005f52601160045260245ffd5b5f610f4982610816565b9150610f5483610816565b9250828201905080821115610f6c57610f6b610f12565b5b9291505056fea2646970667358221220b2ba487c2f53030319750d03641f328f1e67511c359e8a77e9584d49379ea79f64736f6c634300081a0033",
					"opcodes": "PUSH1 0x80 PUSH1 0x40 MSTORE CALLVALUE DUP1 ISZERO PUSH2 0xF JUMPI PUSH0 DUP1 REVERT JUMPDEST POP PUSH1 0x40 MLOAD PUSH2 0x114F CODESIZE SUB DUP1 PUSH2 0x114F DUP4 CODECOPY DUP2 DUP2 ADD PUSH1 0x40 MSTORE DUP2 ADD SWAP1 PUSH2 0x31 SWAP2 SWAP1 PUSH2 0xCE JUMP JUMPDEST CALLER PUSH1 0x1 PUSH0 PUSH2 0x100 EXP DUP2 SLOAD DUP2 PUSH20 0xFFFFFFFFFFFFFFFFFFFFFFFFFFFFFFFFFFFFFFFF MUL NOT AND SWAP1 DUP4 PUSH20 0xFFFFFFFFFFFFFFFFFFFFFFFFFFFFFFFFFFFFFFFF AND MUL OR SWAP1 SSTORE POP PUSH3 0x15180 DUP2 PUSH2 0x80 SWAP2 SWAP1 PUSH2 0x126 JUMP JUMPDEST TIMESTAMP PUSH2 0x8B SWAP2 SWAP1 PUSH2 0x167 JUMP JUMPDEST PUSH1 0x4 DUP2 SWAP1 SSTORE POP POP PUSH2 0x19A JUMP JUMPDEST PUSH0 DUP1 REVERT JUMPDEST PUSH0 DUP2 SWAP1 POP SWAP2 SWAP1 POP JUMP JUMPDEST PUSH2 0xAD DUP2 PUSH2 0x9B JUMP JUMPDEST DUP2 EQ PUSH2 0xB7 JUMPI PUSH0 DUP1 REVERT JUMPDEST POP JUMP JUMPDEST PUSH0 DUP2 MLOAD SWAP1 POP PUSH2 0xC8 DUP2 PUSH2 0xA4 JUMP JUMPDEST SWAP3 SWAP2 POP POP JUMP JUMPDEST PUSH0 PUSH1 0x20 DUP3 DUP5 SUB SLT ISZERO PUSH2 0xE3 JUMPI PUSH2 0xE2 PUSH2 0x97 JUMP JUMPDEST JUMPDEST PUSH0 PUSH2 0xF0 DUP5 DUP3 DUP6 ADD PUSH2 0xBA JUMP JUMPDEST SWAP2 POP POP SWAP3 SWAP2 POP POP JUMP JUMPDEST PUSH32 0x4E487B7100000000000000000000000000000000000000000000000000000000 PUSH0 MSTORE PUSH1 0x11 PUSH1 0x4 MSTORE PUSH1 0x24 PUSH0 REVERT JUMPDEST PUSH0 PUSH2 0x130 DUP3 PUSH2 0x9B JUMP JUMPDEST SWAP2 POP PUSH2 0x13B DUP4 PUSH2 0x9B JUMP JUMPDEST SWAP3 POP DUP3 DUP3 MUL PUSH2 0x149 DUP2 PUSH2 0x9B JUMP JUMPDEST SWAP2 POP DUP3 DUP3 DIV DUP5 EQ DUP4 ISZERO OR PUSH2 0x160 JUMPI PUSH2 0x15F PUSH2 0xF9 JUMP JUMPDEST JUMPDEST POP SWAP3 SWAP2 POP POP JUMP JUMPDEST PUSH0 PUSH2 0x171 DUP3 PUSH2 0x9B JUMP JUMPDEST SWAP2 POP PUSH2 0x17C DUP4 PUSH2 0x9B JUMP JUMPDEST SWAP3 POP DUP3 DUP3 ADD SWAP1 POP DUP1 DUP3 GT ISZERO PUSH2 0x194 JUMPI PUSH2 0x193 PUSH2 0xF9 JUMP JUMPDEST JUMPDEST SWAP3 SWAP2 POP POP JUMP JUMPDEST PUSH2 0xFA8 DUP1 PUSH2 0x1A7 PUSH0 CODECOPY PUSH0 RETURN INVALID PUSH1 0x80 PUSH1 0x40 MSTORE CALLVALUE DUP1 ISZERO PUSH2 0xF JUMPI PUSH0 DUP1 REVERT JUMPDEST POP PUSH1 0x4 CALLDATASIZE LT PUSH2 0x86 JUMPI PUSH0 CALLDATALOAD PUSH1 0xE0 SHR DUP1 PUSH4 0x3C4F81CD GT PUSH2 0x59 JUMPI DUP1 PUSH4 0x3C4F81CD EQ PUSH2 0x122 JUMPI DUP1 PUSH4 0x406F12CB EQ PUSH2 0x140 JUMPI DUP1 PUSH4 0x6097E216 EQ PUSH2 0x15C JUMPI DUP1 PUSH4 0x7334151B EQ PUSH2 0x18D JUMPI PUSH2 0x86 JUMP JUMPDEST DUP1 PUSH4 0xA401942 EQ PUSH2 0x8A JUMPI DUP1 PUSH4 0x21606831 EQ PUSH2 0xA6 JUMPI DUP1 PUSH4 0x27073C4C EQ PUSH2 0xC2 JUMPI DUP1 PUSH4 0x372C12B1 EQ PUSH2 0xF2 JUMPI JUMPDEST PUSH0 DUP1 REVERT JUMPDEST PUSH2 0xA4 PUSH1 0x4 DUP1 CALLDATASIZE SUB DUP2 ADD SWAP1 PUSH2 0x9F SWAP2 SWAP1 PUSH2 0x7CF JUMP JUMPDEST PUSH2 0x1AB JUMP JUMPDEST STOP JUMPDEST PUSH2 0xC0 PUSH1 0x4 DUP1 CALLDATASIZE SUB DUP2 ADD SWAP1 PUSH2 0xBB SWAP2 SWAP1 PUSH2 0x849 JUMP JUMPDEST PUSH2 0x299 JUMP JUMPDEST STOP JUMPDEST PUSH2 0xDC PUSH1 0x4 DUP1 CALLDATASIZE SUB DUP2 ADD SWAP1 PUSH2 0xD7 SWAP2 SWAP1 PUSH2 0x8CE JUMP JUMPDEST PUSH2 0x482 JUMP JUMPDEST PUSH1 0x40 MLOAD PUSH2 0xE9 SWAP2 SWAP1 PUSH2 0x913 JUMP JUMPDEST PUSH1 0x40 MLOAD DUP1 SWAP2 SUB SWAP1 RETURN JUMPDEST PUSH2 0x10C PUSH1 0x4 DUP1 CALLDATASIZE SUB DUP2 ADD SWAP1 PUSH2 0x107 SWAP2 SWAP1 PUSH2 0x8CE JUMP JUMPDEST PUSH2 0x49F JUMP JUMPDEST PUSH1 0x40 MLOAD PUSH2 0x119 SWAP2 SWAP1 PUSH2 0x913 JUMP JUMPDEST PUSH1 0x40 MLOAD DUP1 SWAP2 SUB SWAP1 RETURN JUMPDEST PUSH2 0x12A PUSH2 0x4BC JUMP JUMPDEST PUSH1 0x40 MLOAD PUSH2 0x137 SWAP2 SWAP1 PUSH2 0x93B JUMP JUMPDEST PUSH1 0x40 MLOAD DUP1 SWAP2 SUB SWAP1 RETURN JUMPDEST PUSH2 0x15A PUSH1 0x4 DUP1 CALLDATASIZE SUB DUP2 ADD SWAP1 PUSH2 0x155 SWAP2 SWAP1 PUSH2 0x8CE JUMP JUMPDEST PUSH2 0x4E1 JUMP JUMPDEST STOP JUMPDEST PUSH2 0x176 PUSH1 0x4 DUP1 CALLDATASIZE SUB DUP2 ADD SWAP1 PUSH2 0x171 SWAP2 SWAP1 PUSH2 0x849 JUMP JUMPDEST PUSH2 0x5C8 JUMP JUMPDEST PUSH1 0x40 MLOAD PUSH2 0x184 SWAP3 SWAP2 SWAP1 PUSH2 0x9C3 JUMP JUMPDEST PUSH1 0x40 MLOAD DUP1 SWAP2 SUB SWAP1 RETURN JUMPDEST PUSH2 0x195 PUSH2 0x67C JUMP JUMPDEST PUSH1 0x40 MLOAD PUSH2 0x1A2 SWAP2 SWAP1 PUSH2 0x9F1 JUMP JUMPDEST PUSH1 0x40 MLOAD DUP1 SWAP2 SUB SWAP1 RETURN JUMPDEST PUSH1 0x1 PUSH0 SWAP1 SLOAD SWAP1 PUSH2 0x100 EXP SWAP1 DIV PUSH20 0xFFFFFFFFFFFFFFFFFFFFFFFFFFFFFFFFFFFFFFFF AND PUSH20 0xFFFFFFFFFFFFFFFFFFFFFFFFFFFFFFFFFFFFFFFF AND CALLER PUSH20 0xFFFFFFFFFFFFFFFFFFFFFFFFFFFFFFFFFFFFFFFF AND EQ PUSH2 0x23A JUMPI PUSH1 0x40 MLOAD PUSH32 0x8C379A000000000000000000000000000000000000000000000000000000000 DUP2 MSTORE PUSH1 0x4 ADD PUSH2 0x231 SWAP1 PUSH2 0xA7A JUMP JUMPDEST PUSH1 0x40 MLOAD DUP1 SWAP2 SUB SWAP1 REVERT JUMPDEST PUSH0 PUSH1 0x40 MLOAD DUP1 PUSH1 0x40 ADD PUSH1 0x40 MSTORE DUP1 DUP4 DUP2 MSTORE PUSH1 0x20 ADD PUSH0 DUP2 MSTORE POP SWAP1 DUP1 PUSH1 0x1 DUP2 SLOAD ADD DUP1 DUP3 SSTORE DUP1 SWAP2 POP POP PUSH1 0x1 SWAP1 SUB SWAP1 PUSH0 MSTORE PUSH1 0x20 PUSH0 KECCAK256 SWAP1 PUSH1 0x2 MUL ADD PUSH0 SWAP1 SWAP2 SWAP1 SWAP2 SWAP1 SWAP2 POP PUSH0 DUP3 ADD MLOAD DUP2 PUSH0 ADD SWAP1 DUP2 PUSH2 0x289 SWAP2 SWAP1 PUSH2 0xC92 JUMP JUMPDEST POP PUSH1 0x20 DUP3 ADD MLOAD DUP2 PUSH1 0x1 ADD SSTORE POP POP POP JUMP JUMPDEST PUSH1 0x2 PUSH0 CALLER PUSH20 0xFFFFFFFFFFFFFFFFFFFFFFFFFFFFFFFFFFFFFFFF AND PUSH20 0xFFFFFFFFFFFFFFFFFFFFFFFFFFFFFFFFFFFFFFFF AND DUP2 MSTORE PUSH1 0x20 ADD SWAP1 DUP2 MSTORE PUSH1 0x20 ADD PUSH0 KECCAK256 PUSH0 SWAP1 SLOAD SWAP1 PUSH2 0x100 EXP SWAP1 DIV PUSH1 0xFF AND PUSH2 0x322 JUMPI PUSH1 0x40 MLOAD PUSH32 0x8C379A000000000000000000000000000000000000000000000000000000000 DUP2 MSTORE PUSH1 0x4 ADD PUSH2 0x319 SWAP1 PUSH2 0xDD1 JUMP JUMPDEST PUSH1 0x40 MLOAD DUP1 SWAP2 SUB SWAP1 REVERT JUMPDEST PUSH1 0x4 SLOAD TIMESTAMP GT ISZERO PUSH2 0x367 JUMPI PUSH1 0x40 MLOAD PUSH32 0x8C379A000000000000000000000000000000000000000000000000000000000 DUP2 MSTORE PUSH1 0x4 ADD PUSH2 0x35E SWAP1 PUSH2 0xE5F JUMP JUMPDEST PUSH1 0x40 MLOAD DUP1 SWAP2 SUB SWAP1 REVERT JUMPDEST PUSH1 0x3 PUSH0 CALLER PUSH20 0xFFFFFFFFFFFFFFFFFFFFFFFFFFFFFFFFFFFFFFFF AND PUSH20 0xFFFFFFFFFFFFFFFFFFFFFFFFFFFFFFFFFFFFFFFF AND DUP2 MSTORE PUSH1 0x20 ADD SWAP1 DUP2 MSTORE PUSH1 0x20 ADD PUSH0 KECCAK256 PUSH0 SWAP1 SLOAD SWAP1 PUSH2 0x100 EXP SWAP1 DIV PUSH1 0xFF AND ISZERO PUSH2 0x3F1 JUMPI PUSH1 0x40 MLOAD PUSH32 0x8C379A000000000000000000000000000000000000000000000000000000000 DUP2 MSTORE PUSH1 0x4 ADD PUSH2 0x3E8 SWAP1 PUSH2 0xEC7 JUMP JUMPDEST PUSH1 0x40 MLOAD DUP1 SWAP2 SUB SWAP1 REVERT JUMPDEST PUSH1 0x1 PUSH0 DUP3 DUP2 SLOAD DUP2 LT PUSH2 0x406 JUMPI PUSH2 0x405 PUSH2 0xEE5 JUMP JUMPDEST JUMPDEST SWAP1 PUSH0 MSTORE PUSH1 0x20 PUSH0 KECCAK256 SWAP1 PUSH1 0x2 MUL ADD PUSH1 0x1 ADD PUSH0 DUP3 DUP3 SLOAD PUSH2 0x423 SWAP2 SWAP1 PUSH2 0xF3F JUMP JUMPDEST SWAP3 POP POP DUP2 SWAP1 SSTORE POP PUSH1 0x1 PUSH1 0x3 PUSH0 CALLER PUSH20 0xFFFFFFFFFFFFFFFFFFFFFFFFFFFFFFFFFFFFFFFF AND PUSH20 0xFFFFFFFFFFFFFFFFFFFFFFFFFFFFFFFFFFFFFFFF AND DUP2 MSTORE PUSH1 0x20 ADD SWAP1 DUP2 MSTORE PUSH1 0x20 ADD PUSH0 KECCAK256 PUSH0 PUSH2 0x100 EXP DUP2 SLOAD DUP2 PUSH1 0xFF MUL NOT AND SWAP1 DUP4 ISZERO ISZERO MUL OR SWAP1 SSTORE POP POP JUMP JUMPDEST PUSH1 0x3 PUSH1 0x20 MSTORE DUP1 PUSH0 MSTORE PUSH1 0x40 PUSH0 KECCAK256 PUSH0 SWAP2 POP SLOAD SWAP1 PUSH2 0x100 EXP SWAP1 DIV PUSH1 0xFF AND DUP2 JUMP JUMPDEST PUSH1 0x2 PUSH1 0x20 MSTORE DUP1 PUSH0 MSTORE PUSH1 0x40 PUSH0 KECCAK256 PUSH0 SWAP2 POP SLOAD SWAP1 PUSH2 0x100 EXP SWAP1 DIV PUSH1 0xFF AND DUP2 JUMP JUMPDEST PUSH1 0x1 PUSH0 SWAP1 SLOAD SWAP1 PUSH2 0x100 EXP SWAP1 DIV PUSH20 0xFFFFFFFFFFFFFFFFFFFFFFFFFFFFFFFFFFFFFFFF AND DUP2 JUMP JUMPDEST PUSH1 0x1 PUSH0 SWAP1 SLOAD SWAP1 PUSH2 0x100 EXP SWAP1 DIV PUSH20 0xFFFFFFFFFFFFFFFFFFFFFFFFFFFFFFFFFFFFFFFF AND PUSH20 0xFFFFFFFFFFFFFFFFFFFFFFFFFFFFFFFFFFFFFFFF AND CALLER PUSH20 0xFFFFFFFFFFFFFFFFFFFFFFFFFFFFFFFFFFFFFFFF AND EQ PUSH2 0x570 JUMPI PUSH1 0x40 MLOAD PUSH32 0x8C379A000000000000000000000000000000000000000000000000000000000 DUP2 MSTORE PUSH1 0x4 ADD PUSH2 0x567 SWAP1 PUSH2 0xA7A JUMP JUMPDEST PUSH1 0x40 MLOAD DUP1 SWAP2 SUB SWAP1 REVERT JUMPDEST PUSH1 0x1 PUSH1 0x2 PUSH0 DUP4 PUSH20 0xFFFFFFFFFFFFFFFFFFFFFFFFFFFFFFFFFFFFFFFF AND PUSH20 0xFFFFFFFFFFFFFFFFFFFFFFFFFFFFFFFFFFFFFFFF AND DUP2 MSTORE PUSH1 0x20 ADD SWAP1 DUP2 MSTORE PUSH1 0x20 ADD PUSH0 KECCAK256 PUSH0 PUSH2 0x100 EXP DUP2 SLOAD DUP2 PUSH1 0xFF MUL NOT AND SWAP1 DUP4 ISZERO ISZERO MUL OR SWAP1 SSTORE POP POP JUMP JUMPDEST PUSH0 DUP2 DUP2 SLOAD DUP2 LT PUSH2 0x5D6 JUMPI PUSH0 DUP1 REVERT JUMPDEST SWAP1 PUSH0 MSTORE PUSH1 0x20 PUSH0 KECCAK256 SWAP1 PUSH1 0x2 MUL ADD PUSH0 SWAP2 POP SWAP1 POP DUP1 PUSH0 ADD DUP1 SLOAD PUSH2 0x5F5 SWAP1 PUSH2 0xAC5 JUMP JUMPDEST DUP1 PUSH1 0x1F ADD PUSH1 0x20 DUP1 SWAP2 DIV MUL PUSH1 0x20 ADD PUSH1 0x40 MLOAD SWAP1 DUP2 ADD PUSH1 0x40 MSTORE DUP1 SWAP3 SWAP2 SWAP1 DUP2 DUP2 MSTORE PUSH1 0x20 ADD DUP3 DUP1 SLOAD PUSH2 0x621 SWAP1 PUSH2 0xAC5 JUMP JUMPDEST DUP1 ISZERO PUSH2 0x66C JUMPI DUP1 PUSH1 0x1F LT PUSH2 0x643 JUMPI PUSH2 0x100 DUP1 DUP4 SLOAD DIV MUL DUP4 MSTORE SWAP2 PUSH1 0x20 ADD SWAP2 PUSH2 0x66C JUMP JUMPDEST DUP3 ADD SWAP2 SWAP1 PUSH0 MSTORE PUSH1 0x20 PUSH0 KECCAK256 SWAP1 JUMPDEST DUP2 SLOAD DUP2 MSTORE SWAP1 PUSH1 0x1 ADD SWAP1 PUSH1 0x20 ADD DUP1 DUP4 GT PUSH2 0x64F JUMPI DUP3 SWAP1 SUB PUSH1 0x1F AND DUP3 ADD SWAP2 JUMPDEST POP POP POP POP POP SWAP1 DUP1 PUSH1 0x1 ADD SLOAD SWAP1 POP DUP3 JUMP JUMPDEST PUSH1 0x4 SLOAD DUP2 JUMP JUMPDEST PUSH0 PUSH1 0x40 MLOAD SWAP1 POP SWAP1 JUMP JUMPDEST PUSH0 DUP1 REVERT JUMPDEST PUSH0 DUP1 REVERT JUMPDEST PUSH0 DUP1 REVERT JUMPDEST PUSH0 DUP1 REVERT JUMPDEST PUSH0 PUSH1 0x1F NOT PUSH1 0x1F DUP4 ADD AND SWAP1 POP SWAP2 SWAP1 POP JUMP JUMPDEST PUSH32 0x4E487B7100000000000000000000000000000000000000000000000000000000 PUSH0 MSTORE PUSH1 0x41 PUSH1 0x4 MSTORE PUSH1 0x24 PUSH0 REVERT JUMPDEST PUSH2 0x6E1 DUP3 PUSH2 0x69B JUMP JUMPDEST DUP2 ADD DUP2 DUP2 LT PUSH8 0xFFFFFFFFFFFFFFFF DUP3 GT OR ISZERO PUSH2 0x700 JUMPI PUSH2 0x6FF PUSH2 0x6AB JUMP JUMPDEST JUMPDEST DUP1 PUSH1 0x40 MSTORE POP POP POP JUMP JUMPDEST PUSH0 PUSH2 0x712 PUSH2 0x682 JUMP JUMPDEST SWAP1 POP PUSH2 0x71E DUP3 DUP3 PUSH2 0x6D8 JUMP JUMPDEST SWAP2 SWAP1 POP JUMP JUMPDEST PUSH0 PUSH8 0xFFFFFFFFFFFFFFFF DUP3 GT ISZERO PUSH2 0x73D JUMPI PUSH2 0x73C PUSH2 0x6AB JUMP JUMPDEST JUMPDEST PUSH2 0x746 DUP3 PUSH2 0x69B JUMP JUMPDEST SWAP1 POP PUSH1 0x20 DUP2 ADD SWAP1 POP SWAP2 SWAP1 POP JUMP JUMPDEST DUP3 DUP2 DUP4 CALLDATACOPY PUSH0 DUP4 DUP4 ADD MSTORE POP POP POP JUMP JUMPDEST PUSH0 PUSH2 0x773 PUSH2 0x76E DUP5 PUSH2 0x723 JUMP JUMPDEST PUSH2 0x709 JUMP JUMPDEST SWAP1 POP DUP3 DUP2 MSTORE PUSH1 0x20 DUP2 ADD DUP5 DUP5 DUP5 ADD GT ISZERO PUSH2 0x78F JUMPI PUSH2 0x78E PUSH2 0x697 JUMP JUMPDEST JUMPDEST PUSH2 0x79A DUP5 DUP3 DUP6 PUSH2 0x753 JUMP JUMPDEST POP SWAP4 SWAP3 POP POP POP JUMP JUMPDEST PUSH0 DUP3 PUSH1 0x1F DUP4 ADD SLT PUSH2 0x7B6 JUMPI PUSH2 0x7B5 PUSH2 0x693 JUMP JUMPDEST JUMPDEST DUP2 CALLDATALOAD PUSH2 0x7C6 DUP5 DUP3 PUSH1 0x20 DUP7 ADD PUSH2 0x761 JUMP JUMPDEST SWAP2 POP POP SWAP3 SWAP2 POP POP JUMP JUMPDEST PUSH0 PUSH1 0x20 DUP3 DUP5 SUB SLT ISZERO PUSH2 0x7E4 JUMPI PUSH2 0x7E3 PUSH2 0x68B JUMP JUMPDEST JUMPDEST PUSH0 DUP3 ADD CALLDATALOAD PUSH8 0xFFFFFFFFFFFFFFFF DUP2 GT ISZERO PUSH2 0x801 JUMPI PUSH2 0x800 PUSH2 0x68F JUMP JUMPDEST JUMPDEST PUSH2 0x80D DUP5 DUP3 DUP6 ADD PUSH2 0x7A2 JUMP JUMPDEST SWAP2 POP POP SWAP3 SWAP2 POP POP JUMP JUMPDEST PUSH0 DUP2 SWAP1 POP SWAP2 SWAP1 POP JUMP JUMPDEST PUSH2 0x828 DUP2 PUSH2 0x816 JUMP JUMPDEST DUP2 EQ PUSH2 0x832 JUMPI PUSH0 DUP1 REVERT JUMPDEST POP JUMP JUMPDEST PUSH0 DUP2 CALLDATALOAD SWAP1 POP PUSH2 0x843 DUP2 PUSH2 0x81F JUMP JUMPDEST SWAP3 SWAP2 POP POP JUMP JUMPDEST PUSH0 PUSH1 0x20 DUP3 DUP5 SUB SLT ISZERO PUSH2 0x85E JUMPI PUSH2 0x85D PUSH2 0x68B JUMP JUMPDEST JUMPDEST PUSH0 PUSH2 0x86B DUP5 DUP3 DUP6 ADD PUSH2 0x835 JUMP JUMPDEST SWAP2 POP POP SWAP3 SWAP2 POP POP JUMP JUMPDEST PUSH0 PUSH20 0xFFFFFFFFFFFFFFFFFFFFFFFFFFFFFFFFFFFFFFFF DUP3 AND SWAP1 POP SWAP2 SWAP1 POP JUMP JUMPDEST PUSH0 PUSH2 0x89D DUP3 PUSH2 0x874 JUMP JUMPDEST SWAP1 POP SWAP2 SWAP1 POP JUMP JUMPDEST PUSH2 0x8AD DUP2 PUSH2 0x893 JUMP JUMPDEST DUP2 EQ PUSH2 0x8B7 JUMPI PUSH0 DUP1 REVERT JUMPDEST POP JUMP JUMPDEST PUSH0 DUP2 CALLDATALOAD SWAP1 POP PUSH2 0x8C8 DUP2 PUSH2 0x8A4 JUMP JUMPDEST SWAP3 SWAP2 POP POP JUMP JUMPDEST PUSH0 PUSH1 0x20 DUP3 DUP5 SUB SLT ISZERO PUSH2 0x8E3 JUMPI PUSH2 0x8E2 PUSH2 0x68B JUMP JUMPDEST JUMPDEST PUSH0 PUSH2 0x8F0 DUP5 DUP3 DUP6 ADD PUSH2 0x8BA JUMP JUMPDEST SWAP2 POP POP SWAP3 SWAP2 POP POP JUMP JUMPDEST PUSH0 DUP2 ISZERO ISZERO SWAP1 POP SWAP2 SWAP1 POP JUMP JUMPDEST PUSH2 0x90D DUP2 PUSH2 0x8F9 JUMP JUMPDEST DUP3 MSTORE POP POP JUMP JUMPDEST PUSH0 PUSH1 0x20 DUP3 ADD SWAP1 POP PUSH2 0x926 PUSH0 DUP4 ADD DUP5 PUSH2 0x904 JUMP JUMPDEST SWAP3 SWAP2 POP POP JUMP JUMPDEST PUSH2 0x935 DUP2 PUSH2 0x893 JUMP JUMPDEST DUP3 MSTORE POP POP JUMP JUMPDEST PUSH0 PUSH1 0x20 DUP3 ADD SWAP1 POP PUSH2 0x94E PUSH0 DUP4 ADD DUP5 PUSH2 0x92C JUMP JUMPDEST SWAP3 SWAP2 POP POP JUMP JUMPDEST PUSH0 DUP2 MLOAD SWAP1 POP SWAP2 SWAP1 POP JUMP JUMPDEST PUSH0 DUP3 DUP3 MSTORE PUSH1 0x20 DUP3 ADD SWAP1 POP SWAP3 SWAP2 POP POP JUMP JUMPDEST DUP3 DUP2 DUP4 MCOPY PUSH0 DUP4 DUP4 ADD MSTORE POP POP POP JUMP JUMPDEST PUSH0 PUSH2 0x986 DUP3 PUSH2 0x954 JUMP JUMPDEST PUSH2 0x990 DUP2 DUP6 PUSH2 0x95E JUMP JUMPDEST SWAP4 POP PUSH2 0x9A0 DUP2 DUP6 PUSH1 0x20 DUP7 ADD PUSH2 0x96E JUMP JUMPDEST PUSH2 0x9A9 DUP2 PUSH2 0x69B JUMP JUMPDEST DUP5 ADD SWAP2 POP POP SWAP3 SWAP2 POP POP JUMP JUMPDEST PUSH2 0x9BD DUP2 PUSH2 0x816 JUMP JUMPDEST DUP3 MSTORE POP POP JUMP JUMPDEST PUSH0 PUSH1 0x40 DUP3 ADD SWAP1 POP DUP2 DUP2 SUB PUSH0 DUP4 ADD MSTORE PUSH2 0x9DB DUP2 DUP6 PUSH2 0x97C JUMP JUMPDEST SWAP1 POP PUSH2 0x9EA PUSH1 0x20 DUP4 ADD DUP5 PUSH2 0x9B4 JUMP JUMPDEST SWAP4 SWAP3 POP POP POP JUMP JUMPDEST PUSH0 PUSH1 0x20 DUP3 ADD SWAP1 POP PUSH2 0xA04 PUSH0 DUP4 ADD DUP5 PUSH2 0x9B4 JUMP JUMPDEST SWAP3 SWAP2 POP POP JUMP JUMPDEST PUSH32 0x536F6C6F20656C2070726F706965746172696F20707565646520656A65637574 PUSH0 DUP3 ADD MSTORE PUSH32 0x617220657374612066756E63696F6E2E00000000000000000000000000000000 PUSH1 0x20 DUP3 ADD MSTORE POP JUMP JUMPDEST PUSH0 PUSH2 0xA64 PUSH1 0x30 DUP4 PUSH2 0x95E JUMP JUMPDEST SWAP2 POP PUSH2 0xA6F DUP3 PUSH2 0xA0A JUMP JUMPDEST PUSH1 0x40 DUP3 ADD SWAP1 POP SWAP2 SWAP1 POP JUMP JUMPDEST PUSH0 PUSH1 0x20 DUP3 ADD SWAP1 POP DUP2 DUP2 SUB PUSH0 DUP4 ADD MSTORE PUSH2 0xA91 DUP2 PUSH2 0xA58 JUMP JUMPDEST SWAP1 POP SWAP2 SWAP1 POP JUMP JUMPDEST PUSH32 0x4E487B7100000000000000000000000000000000000000000000000000000000 PUSH0 MSTORE PUSH1 0x22 PUSH1 0x4 MSTORE PUSH1 0x24 PUSH0 REVERT JUMPDEST PUSH0 PUSH1 0x2 DUP3 DIV SWAP1 POP PUSH1 0x1 DUP3 AND DUP1 PUSH2 0xADC JUMPI PUSH1 0x7F DUP3 AND SWAP2 POP JUMPDEST PUSH1 0x20 DUP3 LT DUP2 SUB PUSH2 0xAEF JUMPI PUSH2 0xAEE PUSH2 0xA98 JUMP JUMPDEST JUMPDEST POP SWAP2 SWAP1 POP JUMP JUMPDEST PUSH0 DUP2 SWAP1 POP DUP2 PUSH0 MSTORE PUSH1 0x20 PUSH0 KECCAK256 SWAP1 POP SWAP2 SWAP1 POP JUMP JUMPDEST PUSH0 PUSH1 0x20 PUSH1 0x1F DUP4 ADD DIV SWAP1 POP SWAP2 SWAP1 POP JUMP JUMPDEST PUSH0 DUP3 DUP3 SHL SWAP1 POP SWAP3 SWAP2 POP POP JUMP JUMPDEST PUSH0 PUSH1 0x8 DUP4 MUL PUSH2 0xB51 PUSH32 0xFFFFFFFFFFFFFFFFFFFFFFFFFFFFFFFFFFFFFFFFFFFFFFFFFFFFFFFFFFFFFFFF DUP3 PUSH2 0xB16 JUMP JUMPDEST PUSH2 0xB5B DUP7 DUP4 PUSH2 0xB16 JUMP JUMPDEST SWAP6 POP DUP1 NOT DUP5 AND SWAP4 POP DUP1 DUP7 AND DUP5 OR SWAP3 POP POP POP SWAP4 SWAP3 POP POP POP JUMP JUMPDEST PUSH0 DUP2 SWAP1 POP SWAP2 SWAP1 POP JUMP JUMPDEST PUSH0 PUSH2 0xB96 PUSH2 0xB91 PUSH2 0xB8C DUP5 PUSH2 0x816 JUMP JUMPDEST PUSH2 0xB73 JUMP JUMPDEST PUSH2 0x816 JUMP JUMPDEST SWAP1 POP SWAP2 SWAP1 POP JUMP JUMPDEST PUSH0 DUP2 SWAP1 POP SWAP2 SWAP1 POP JUMP JUMPDEST PUSH2 0xBAF DUP4 PUSH2 0xB7C JUMP JUMPDEST PUSH2 0xBC3 PUSH2 0xBBB DUP3 PUSH2 0xB9D JUMP JUMPDEST DUP5 DUP5 SLOAD PUSH2 0xB22 JUMP JUMPDEST DUP3 SSTORE POP POP POP POP JUMP JUMPDEST PUSH0 SWAP1 JUMP JUMPDEST PUSH2 0xBD7 PUSH2 0xBCB JUMP JUMPDEST PUSH2 0xBE2 DUP2 DUP5 DUP5 PUSH2 0xBA6 JUMP JUMPDEST POP POP POP JUMP JUMPDEST JUMPDEST DUP2 DUP2 LT ISZERO PUSH2 0xC05 JUMPI PUSH2 0xBFA PUSH0 DUP3 PUSH2 0xBCF JUMP JUMPDEST PUSH1 0x1 DUP2 ADD SWAP1 POP PUSH2 0xBE8 JUMP JUMPDEST POP POP JUMP JUMPDEST PUSH1 0x1F DUP3 GT ISZERO PUSH2 0xC4A JUMPI PUSH2 0xC1B DUP2 PUSH2 0xAF5 JUMP JUMPDEST PUSH2 0xC24 DUP5 PUSH2 0xB07 JUMP JUMPDEST DUP2 ADD PUSH1 0x20 DUP6 LT ISZERO PUSH2 0xC33 JUMPI DUP2 SWAP1 POP JUMPDEST PUSH2 0xC47 PUSH2 0xC3F DUP6 PUSH2 0xB07 JUMP JUMPDEST DUP4 ADD DUP3 PUSH2 0xBE7 JUMP JUMPDEST POP POP JUMPDEST POP POP POP JUMP JUMPDEST PUSH0 DUP3 DUP3 SHR SWAP1 POP SWAP3 SWAP2 POP POP JUMP JUMPDEST PUSH0 PUSH2 0xC6A PUSH0 NOT DUP5 PUSH1 0x8 MUL PUSH2 0xC4F JUMP JUMPDEST NOT DUP1 DUP4 AND SWAP2 POP POP SWAP3 SWAP2 POP POP JUMP JUMPDEST PUSH0 PUSH2 0xC82 DUP4 DUP4 PUSH2 0xC5B JUMP JUMPDEST SWAP2 POP DUP3 PUSH1 0x2 MUL DUP3 OR SWAP1 POP SWAP3 SWAP2 POP POP JUMP JUMPDEST PUSH2 0xC9B DUP3 PUSH2 0x954 JUMP JUMPDEST PUSH8 0xFFFFFFFFFFFFFFFF DUP2 GT ISZERO PUSH2 0xCB4 JUMPI PUSH2 0xCB3 PUSH2 0x6AB JUMP JUMPDEST JUMPDEST PUSH2 0xCBE DUP3 SLOAD PUSH2 0xAC5 JUMP JUMPDEST PUSH2 0xCC9 DUP3 DUP3 DUP6 PUSH2 0xC09 JUMP JUMPDEST PUSH0 PUSH1 0x20 SWAP1 POP PUSH1 0x1F DUP4 GT PUSH1 0x1 DUP2 EQ PUSH2 0xCFA JUMPI PUSH0 DUP5 ISZERO PUSH2 0xCE8 JUMPI DUP3 DUP8 ADD MLOAD SWAP1 POP JUMPDEST PUSH2 0xCF2 DUP6 DUP3 PUSH2 0xC77 JUMP JUMPDEST DUP7 SSTORE POP PUSH2 0xD59 JUMP JUMPDEST PUSH1 0x1F NOT DUP5 AND PUSH2 0xD08 DUP7 PUSH2 0xAF5 JUMP JUMPDEST PUSH0 JUMPDEST DUP3 DUP2 LT ISZERO PUSH2 0xD2F JUMPI DUP5 DUP10 ADD MLOAD DUP3 SSTORE PUSH1 0x1 DUP3 ADD SWAP2 POP PUSH1 0x20 DUP6 ADD SWAP5 POP PUSH1 0x20 DUP2 ADD SWAP1 POP PUSH2 0xD0A JUMP JUMPDEST DUP7 DUP4 LT ISZERO PUSH2 0xD4C JUMPI DUP5 DUP10 ADD MLOAD PUSH2 0xD48 PUSH1 0x1F DUP10 AND DUP3 PUSH2 0xC5B JUMP JUMPDEST DUP4 SSTORE POP JUMPDEST PUSH1 0x1 PUSH1 0x2 DUP9 MUL ADD DUP9 SSTORE POP POP POP JUMPDEST POP POP POP POP POP POP JUMP JUMPDEST PUSH32 0x536F6C6F206C617320706572736F6E6173206175746F72697A61646173207075 PUSH0 DUP3 ADD MSTORE PUSH32 0x6564656E20766F7461722E000000000000000000000000000000000000000000 PUSH1 0x20 DUP3 ADD MSTORE POP JUMP JUMPDEST PUSH0 PUSH2 0xDBB PUSH1 0x2B DUP4 PUSH2 0x95E JUMP JUMPDEST SWAP2 POP PUSH2 0xDC6 DUP3 PUSH2 0xD61 JUMP JUMPDEST PUSH1 0x40 DUP3 ADD SWAP1 POP SWAP2 SWAP1 POP JUMP JUMPDEST PUSH0 PUSH1 0x20 DUP3 ADD SWAP1 POP DUP2 DUP2 SUB PUSH0 DUP4 ADD MSTORE PUSH2 0xDE8 DUP2 PUSH2 0xDAF JUMP JUMPDEST SWAP1 POP SWAP2 SWAP1 POP JUMP JUMPDEST PUSH32 0x456C20706572696F646F20646520766F746163696F6E2068612066696E616C69 PUSH0 DUP3 ADD MSTORE PUSH32 0x7A61646F2E000000000000000000000000000000000000000000000000000000 PUSH1 0x20 DUP3 ADD MSTORE POP JUMP JUMPDEST PUSH0 PUSH2 0xE49 PUSH1 0x25 DUP4 PUSH2 0x95E JUMP JUMPDEST SWAP2 POP PUSH2 0xE54 DUP3 PUSH2 0xDEF JUMP JUMPDEST PUSH1 0x40 DUP3 ADD SWAP1 POP SWAP2 SWAP1 POP JUMP JUMPDEST PUSH0 PUSH1 0x20 DUP3 ADD SWAP1 POP DUP2 DUP2 SUB PUSH0 DUP4 ADD MSTORE PUSH2 0xE76 DUP2 PUSH2 0xE3D JUMP JUMPDEST SWAP1 POP SWAP2 SWAP1 POP JUMP JUMPDEST PUSH32 0x557374656420796120766F746F2E000000000000000000000000000000000000 PUSH0 DUP3 ADD MSTORE POP JUMP JUMPDEST PUSH0 PUSH2 0xEB1 PUSH1 0xE DUP4 PUSH2 0x95E JUMP JUMPDEST SWAP2 POP PUSH2 0xEBC DUP3 PUSH2 0xE7D JUMP JUMPDEST PUSH1 0x20 DUP3 ADD SWAP1 POP SWAP2 SWAP1 POP JUMP JUMPDEST PUSH0 PUSH1 0x20 DUP3 ADD SWAP1 POP DUP2 DUP2 SUB PUSH0 DUP4 ADD MSTORE PUSH2 0xEDE DUP2 PUSH2 0xEA5 JUMP JUMPDEST SWAP1 POP SWAP2 SWAP1 POP JUMP JUMPDEST PUSH32 0x4E487B7100000000000000000000000000000000000000000000000000000000 PUSH0 MSTORE PUSH1 0x32 PUSH1 0x4 MSTORE PUSH1 0x24 PUSH0 REVERT JUMPDEST PUSH32 0x4E487B7100000000000000000000000000000000000000000000000000000000 PUSH0 MSTORE PUSH1 0x11 PUSH1 0x4 MSTORE PUSH1 0x24 PUSH0 REVERT JUMPDEST PUSH0 PUSH2 0xF49 DUP3 PUSH2 0x816 JUMP JUMPDEST SWAP2 POP PUSH2 0xF54 DUP4 PUSH2 0x816 JUMP JUMPDEST SWAP3 POP DUP3 DUP3 ADD SWAP1 POP DUP1 DUP3 GT ISZERO PUSH2 0xF6C JUMPI PUSH2 0xF6B PUSH2 0xF12 JUMP JUMPDEST JUMPDEST SWAP3 SWAP2 POP POP JUMP INVALID LOG2 PUSH5 0x6970667358 0x22 SLT KECCAK256 0xB2 0xBA BASEFEE PUSH29 0x2F53030319750D03641F328F1E67511C359E8A77E9584D49379EA79F64 PUSH20 0x6F6C634300081A00330000000000000000000000 "
				},
				"gasEstimates": {
					"creation": {
						"codeDepositCost": "801600",
						"executionCost": "infinite",
						"totalCost": "infinite"
					},
					"external": {
						"adicionarDireccion(address)": "26994",
						"adicionarPropuesta(string)": "infinite",
						"propietario()": "2508",
						"propuestas(uint256)": "infinite",
						"sufragantes(address)": "2878",
						"tiempoVotacion()": "2491",
						"votar(uint256)": "infinite",
						"whiteList(address)": "2900"
					}
				},
				"methodIdentifiers": {
					"adicionarDireccion(address)": "406f12cb",
					"adicionarPropuesta(string)": "0a401942",
					"propietario()": "3c4f81cd",
					"propuestas(uint256)": "6097e216",
					"sufragantes(address)": "27073c4c",
					"tiempoVotacion()": "7334151b",
					"votar(uint256)": "21606831",
					"whiteList(address)": "372c12b1"
				}
			},
			"storageLayout": {
				"storage": [
					{
						"astId": 11,
						"contract": "1_Votacion_descentralizada.sol:Votacion",
						"label": "propuestas",
						"offset": 0,
						"slot": "0",
						"type": "t_array(t_struct(Propuesta)7_storage)dyn_storage"
					},
					{
						"astId": 13,
						"contract": "1_Votacion_descentralizada.sol:Votacion",
						"label": "propietario",
						"offset": 0,
						"slot": "1",
						"type": "t_address"
					},
					{
						"astId": 17,
						"contract": "1_Votacion_descentralizada.sol:Votacion",
						"label": "whiteList",
						"offset": 0,
						"slot": "2",
						"type": "t_mapping(t_address,t_bool)"
					},
					{
						"astId": 21,
						"contract": "1_Votacion_descentralizada.sol:Votacion",
						"label": "sufragantes",
						"offset": 0,
						"slot": "3",
						"type": "t_mapping(t_address,t_bool)"
					},
					{
						"astId": 23,
						"contract": "1_Votacion_descentralizada.sol:Votacion",
						"label": "tiempoVotacion",
						"offset": 0,
						"slot": "4",
						"type": "t_uint256"
					}
				],
				"types": {
					"t_address": {
						"encoding": "inplace",
						"label": "address",
						"numberOfBytes": "20"
					},
					"t_array(t_struct(Propuesta)7_storage)dyn_storage": {
						"base": "t_struct(Propuesta)7_storage",
						"encoding": "dynamic_array",
						"label": "struct Votacion.Propuesta[]",
						"numberOfBytes": "32"
					},
					"t_bool": {
						"encoding": "inplace",
						"label": "bool",
						"numberOfBytes": "1"
					},
					"t_mapping(t_address,t_bool)": {
						"encoding": "mapping",
						"key": "t_address",
						"label": "mapping(address => bool)",
						"numberOfBytes": "32",
						"value": "t_bool"
					},
					"t_string_storage": {
						"encoding": "bytes",
						"label": "string",
						"numberOfBytes": "32"
					},
					"t_struct(Propuesta)7_storage": {
						"encoding": "inplace",
						"label": "struct Votacion.Propuesta",
						"members": [
							{
								"astId": 4,
								"contract": "1_Votacion_descentralizada.sol:Votacion",
								"label": "nombre",
								"offset": 0,
								"slot": "0",
								"type": "t_string_storage"
							},
							{
								"astId": 6,
								"contract": "1_Votacion_descentralizada.sol:Votacion",
								"label": "votosTotales",
								"offset": 0,
								"slot": "1",
								"type": "t_uint256"
							}
						],
						"numberOfBytes": "64"
					},
					"t_uint256": {
						"encoding": "inplace",
						"label": "uint256",
						"numberOfBytes": "32"
					}
				}
			},
			"userdoc": {
				"kind": "user",
				"methods": {},
				"version": 1
			}
		}
	}
}